:020000040800F2
:10000000880800202D020008310200083302000891
:10001000350200083702000839020008000000001D
:100020000000000000000000000000003B0200088B
:100030003D020008000000003F02000841020008E5
:10004000430200084302000843020008430200087C
:10005000430200084302000843020008430200086C
:10006000430200084302000843020008430200085C
:10007000430200084302000843020008430200084C
:10008000430200084302000843020008430200083C
:10009000430200084302000843020008430200082C
:1000A000430200084302000843020008430200081C
:1000B0004302000843020008210700084302000829
:1000C00043020008430200084302000843020008FC
:1000D000430200085D0700084302000843020008CD
:1000E00043020008430200084302000843020008DC
:1000F00043020008430200084302000843020008CC
:1001000043020008430200084302000843020008BB
:1001100043020008430200084302000843020008AB
:10012000430200084302000843020008430200089B
:1001300000F002F800F06BF80AA090E8000C82448E
:100140008344AAF10107DA4501D100F060F8AFF26B
:10015000090EBAE80F0013F0010F18BFFB1A43F0A5
:1001600001031847D0940000F09400000A444FF0B7
:10017000000C10F8013B13F0070408BF10F8014B06
:100180001D1108BF10F8015B641E05D010F8016B4B
:10019000641E01F8016BF9D113F0080F1EBF10F8AF
:1001A000014BAD1C0C1B09D16D1E58BF01F801CBD2
:1001B000FAD505E014F8016B01F8016B6D1EF9D555
:1001C0009142D6D37047000000230024002500266A
:1001D000103A28BF78C1FBD8520728BF30C148BFAA
:1001E0000B607047642900F09B80752900F09880AF
:1001F000782900F0D180632900F02582732900F06E
:100200002A82002070471FB51FBD10B510BD00F039
:1002100055FA1146FFF7F7FF04F03AF800F073FAC9
:1002200003B4FFF7F2FF03BC00F0E1FA084800470F
:10023000FEE7FEE7FEE7FEE7FEE7FEE7FEE7FEE796
:10024000FEE7FEE703480449044A054B70470000F7
:10025000310100088802002088080020880400205E
:1002600088040020704700000FB4044910B503AAA9
:10027000029800F0F5F910BC5DF814FB04000020B2
:1002800070B5044685690068C10601D5302600E0D6
:100290002026C00707D070BDD4E901213046904721
:1002A000206A401C20626D1EF6D570BD70B50446F4
:1002B00085690078C00707D170BDD4E901212020ED
:1002C0009047206A401C20626D1EF6D570BD70B547
:1002D0000C460546012A05D02878800600D5EA6933
:1002E000002302E0012305E05B1C934202D2E05CA4
:1002F0000028F9D1A869E618C01AA861286A18442C
:1003000028622846FFF7BCFF04E0D5E9012114F874
:10031000010B9047B442F8D32846FFF7C7FF70BDE2
:100320002DE9F0410646002410687529314616A5CE
:1003300010D0AFF30080002802DA404213A507E096
:1003400031688A0701D512A502E0490704D511A535
:10035000012401E0AFF3008000210A2206F1240706
:1003600009E0B0FBF2FCB0FBF2F302FB1C00303002
:1003700078541846491C0028F3D123462A463046B3
:10038000BDE8F04100F0FCB8000000002D000000C6
:100390002B0000002000000070B504460D462146E9
:1003A0001068AFF300802188090502D50F4A7A440E
:1003B00002E00E4A7A440E32002104F1240305E0E3
:1003C00000F00F060009965D5E54491C0028F7D125
:1003D00020780023000704D5702D02D009B1022334
:1003E00011322046BDE8704000F0CAB864910000A8
:1003F0002DE9F05F894604464FF0000ADFF874B13A
:10040000FB44C0F820A02046E1688847002874D04B
:10041000252806D0D4E901219047206A401C20629B
:10042000F1E700265F462046E16888472028054618
:1004300007DB312D05D2781910F8200C08B10643DE
:10044000F1E7B00701D526F00406C4F81CA0002788
:10045000C4F818A02A2D09D0284600F0C1F938B3F5
:1004600004EB8708303DC8F8185019E059F8041B10
:10047000204604EB87029161E1688847012F054619
:1004800018D1E069002820DA26F020061DE0D8F80F
:10049000180000EB800005EB40003038C8F8180069
:1004A0002046E1688847054600F09AF90028EED119
:1004B000012F0AD02E2D08D12046E16888477F1CE5
:1004C0000546022F46F02006C4DBA069002803DAA7
:1004D000404246F00106A061F00701D026F0100668
:1004E0006C2D0BD0682D09D04C2D39D06A2D35D00C
:1004F000742D35D07A2D33D016E038E0E1682F46E0
:1005000020468847B842054609D16C2F26D04FF4C3
:100510008060E168064320468847054604E06C2F6A
:100520001AD04FF4807006430DB3A5F1410019288D
:1005300002D8203546F400664A4629462046266001
:100540004E46FFF74FFE80B101280BD0F61D26F076
:10055000070000F1080956E74020E4E78020D8E7CB
:100560000020D6E706F104094DE7284652E7206A45
:10057000BDE8F09F3A9100007047704770477047A0
:100580002DE9F0470D4699469246044600F12408AD
:100590000168880604D5E06921F01001216000E0BF
:1005A0000120A84201DD471B00E00027A1697A195C
:1005B00002EB0900081AA0612078C00602D4204688
:1005C000FFF75EFE002608E0D4E901211AF80600D4
:1005D0009047206A401C761C20624E45F4DB207850
:1005E000C0060AD52046FFF74BFE06E0D4E90121FC
:1005F00030209047206A401C2062381EA7F1010776
:10060000F4DC07E0D4E9012118F805009047206ADE
:10061000401C2062281EA5F10105F3DC2046FFF7EF
:1006200045FE2078000602D50220BDE8F0870120B3
:10063000FBE710B5436913B1AFF3008001E0FFF7AA
:1006400046FE012010BD127800F124010A7000223C
:100650004A700122EDE711684FF0FF32E9E7000030
:10066000074B70B50D467B4400F011F80446284650
:1006700000F020F810B14FF0FF3070BD204670BD83
:100680005B05000001694A1C02610878704700B5EB
:100690008FB0CDE901310021059105497944CDE9BB
:1006A000031011466846FFF7A3FE0FB000BD00001F
:1006B000E5FFFFFF007B00F080007047754600F00B
:1006C0002BF8AE4605006946534620F007008546E4
:1006D00018B020B5FFF7B6FDBDE820404FF000068A
:1006E0004FF000074FF000084FF0000B21F007011A
:1006F000AC46ACE8C009ACE8C009ACE8C009ACE85D
:10070000C0098D46704710B50446AFF300802046FF
:10071000BDE81040FFF784BD004870472802002064
:1007200010B50C48006800F0010058B10A4908698A
:10073000804700200749143108604FF47A7005495A
:100740001C3108600348006820F00100014908607E
:1007500010BD0000100800405C0000201D49096821
:1007600001F0200111B31B49091D0968C8B21A49DB
:10077000098801F40041C9B91749098801F4804189
:1007800061B10A2803D00021134A118020E01249E8
:10079000098841F40041104A118019E00D2806D162
:1007A0000D49098841F480410B4A118010E00A4943
:1007B0000988C1F30D01094A505407490988491CA9
:1007C000054A118011460988C72901DD00211180E1
:1007D0007047000000380140080000205001002050
:1007E00030380A2801D2012070470020704700BF2E
:1007F0007047000010B50A2812DA164A126800EB9A
:1008000040040723A3409A43124B1A601A46126809
:1008100000EB40040723A3401A430E4B1A6018E074
:100820000C4A121F1268A0F10A0303EB43040723CA
:10083000A3409A43074B1B1F1A601A461268A0F187
:100840000A0303EB43040723A3401A43014B1B1F76
:100850001A6010BD103C014010B504460721204627
:10086000FFF7C8FF0E48006820F01F000C49086021
:10087000084600682043086009482C38006840F4A6
:10088000800007492C39086000BF054834380068EB
:1008900000F002000028F8D001481830006810BDB0
:1008A000343C01402DE9F04107460C460025002666
:1008B00008E03846FFF7D0FF0544052000F054F962
:1008C000701CC6B2A642F4DBB5FBF4F0BDE8F081C3
:1008D0001CB500BF4148806940F004003F49886171
:1008E00000BF0120009000230322022101903C4818
:1008F00003F0BAFE3948806940F400403749886106
:100900000846C06840F40040C8600846C06820F44B
:100910000040C8600846406820F4404048600846EF
:10092000406840F4004048602E48006820F4702081
:100930002C4908600846006808600846006820F4F2
:1009400080700860081D006820F00200091D086022
:100950000846006820F4602008600846006840F4FB
:10096000602008600846006840F48010086008466F
:10097000006820F4006008601A482830006820F4FD
:10098000700018492831086008460068086015485A
:10099000001D006840F001001249091D086008466A
:1009A000006840F00800086000BF0E48001D0068A5
:1009B00000F008000028F8D10A48001D006840F047
:1009C00004000849091D086000BF0648001D0068B2
:1009D00000F004000028F8D11CBD00000010024007
:1009E00000080140043C01407CB50546681E000734
:1009F000040E2D48806940F004002B4988610846A8
:100A0000C06940F00050C861012000900190281D8D
:100A10000122824091B200230322244803F024FEE5
:100A200000202349086008460068611C01228A40B2
:100A300010431F49086008460068A11C00228A4034
:100A400010431B49086008460068E11C00228A40E8
:100A500010431749086008460068A11D00228A401B
:100A60001043134908600846006804F10C01002295
:100A70008A4010430E4908600846006804F10E01E0
:100A800000228A4010430A49086008460068012194
:100A9000A140084306490860002005490831086064
:100AA0000349143108607CBD001002400008014079
:100AB000007400402DE9F04706468946484605F097
:100AC000DAF904460D460022174B2046294605F068
:100AD0004DF804460D460022144B2046294605F0E9
:100AE00019FA07464FF06632114B05F03FF80446FD
:100AF0000D4600220D4B2046294605F009FB01D882
:100B000000240C4D012E06D12046294605F086F919
:100B10000949086006E02046294605F07FF90649A4
:100B20000C310860BDE8F08700408F400000B04005
:100B300066660A4000FEAF40087400404FF0E021B6
:100B4000096941F004014FF0E02211610549086094
:100B50001146096941F0010111616FF07041516165
:100B6000704700000000002010B504464FF47A7171
:100B700004FB01F000F002F810BD000070B5034660
:100B800000224FF0E02675690D4E366803FB06F42F
:100B90004FF0E026B16910E04FF0E026B0698842DE
:100BA0000BD0884202D20E1A324402E02E1A0E44B2
:100BB00032440146A24200D300E0EDE700BF70BD21
:100BC0000000002000BF054A126802F04002002A1F
:100BD000F9D0C2B2014B1B1D1A60704700380140AA
:100BE0001CB500BF1848806940F040001649886174
:100BF00000BF00BF0846806940F04000886100BF28
:100C000000BF0846806940F00400886100BF0120F1
:100C1000009000231A46102101900C4803F024FD97
:100C20000120009000231A4608210190074803F094
:100C30001BFD0220012100231A46CDE900100448C3
:100C400003F012FD1CBD000000100240001801401E
:100C50000008014070B50446002514B10120224966
:100C600008702148007848B31021204803F0E8FCC0
:100C700050B108211D4803F0E3FC28B101211C48B4
:100C800003F0DEFC012819D10A20FFF76DFF0020D8
:100C9000154908701021154803F0D2FC00B9012550
:100CA0000821124803F0CCFC00B9022501211048AC
:100CB00003F0C6FC012815D1032513E010210B48D1
:100CC00003F0BEFC01280DD10821084803F0B8FC50
:100CD000012807D10121064803F0B2FC10B9012018
:100CE00001490870284670BD14000020001801401A
:100CF0000008014070B50446002609480588408870
:100D000045430021084603F073F803F07BFA00BF67
:100D100002E004480480761CAE42FAD370BD0000A5
:100D2000180200200008006C10B504465848847171
:100D3000002C58D1F020564908804FF4A07048800C
:100D40000846808845F21051884210D14FF4305047
:100D50004F4908814FF4285048814FF42C50888126
:100D60004FF4F07008804FF4487048801AE048480B
:100D7000808841F6631188420DD12C2044490881B6
:100D80002B2048812A2088814FF4F07008804FF48E
:100D90004870488006E02C203D4908812A2048817F
:100DA0002B2088813A48808845F21031884205D04E
:100DB0003748808847F29671884206D14FF4A07078
:100DC000334908804FF4F07048803148808849F6F4
:100DD0000601884258D14FF4F0702D4908804FF435
:100DE0004870488050E04FF4A07029490880F020F6
:100DF00048800846808845F21051884210D14FF44F
:100E00003050234908814FF4285048814FF42C502A
:100E100088814FF4487008804FF4F070488020E0DB
:100E20001B48808841F66311884205D018488088A5
:100E300049F6060188420DD12C20154908812A2047
:100E400048812B2088814FF4487008804FF4F0705F
:100E5000488006E02C200E4908812A2048812B205A
:100E600088810B48808845F21031884205D00848B7
:100E7000808847F29671884206D14FF4F070044999
:100E800008804FF4A0704880002002F093FE10BD4F
:100E90001802002070B505460E4614463146284615
:100EA00002F0A6FF03F0AEF901490C8070BD00000E
:100EB0000008006C10B5CF2003F098F9002003F073
:100EC00089F9C12003F086F9302003F083F9ED2081
:100ED00003F08CF9642003F07DF9032003F07AF924
:100EE000122003F077F9812003F074F9E82003F071
:100EF0007DF9852003F06EF9102003F06BF97A205C
:100F000003F068F9CB2003F071F9392003F062F99E
:100F10002C2003F05FF9002003F05CF9342003F08B
:100F200059F9022003F056F9F72003F05FF9202069
:100F300003F050F9EA2003F059F9002003F04AF9D0
:100F4000002003F047F9C02003F050F91B2003F004
:100F500041F9C12003F04AF9012003F03BF9C52013
:100F600003F044F9302003F035F9302003F032F972
:100F7000C72003F03BF9B72003F02CF9362003F02B
:100F800035F9482003F026F93A2003F02FF95520CF
:100F900003F020F9B12003F029F9002003F01AF939
:100FA0001A2003F017F9B62003F020F90A2003F005
:100FB00011F9A22003F00EF9F22003F017F9002036
:100FC00003F008F9262003F011F9012003F002F9DB
:100FD000E02003F00BF90F2003F0FCF82A2003F0C7
:100FE000F9F8282003F0F6F8082003F0F3F80E20B3
:100FF00003F0F0F8082003F0EDF8542003F0EAF8CD
:10100000A92003F0E7F8432003F0E4F80A2003F0F6
:10101000E1F80F2003F0DEF8002003F0DBF80020F9
:1010200003F0D8F8002003F0D5F8002003F0D2F840
:10103000E12003F0DBF8002003F0CCF8152003F0EA
:10104000C9F8172003F0C6F8072003F0C3F81120F1
:1010500003F0C0F8062003F0BDF82B2003F0BAF827
:10106000562003F0B7F83C2003F0B4F8052003F055
:10107000B1F8102003F0AEF80F2003F0ABF83F20DA
:1010800003F0A8F83F2003F0A5F80F2003F0A2F822
:101090002B2003F0ABF8002003F09CF8002003F0B5
:1010A00099F8012003F096F83F2003F093F82A20E6
:1010B00003F09CF8002003F08DF8002003F08AF87C
:1010C000002003F087F8EF2003F084F8112003F0EC
:1010D0008DF87820FFF748FD292003F087F810BD30
:1010E00010B5FF2003F082F8FF2003F073F898207A
:1010F00003F070F8062003F06DF8BC2003F076F8DA
:10110000012003F067F80F2003F064F8612003F07A
:1011100061F8FF2003F05EF8012003F05BF8012086
:1011200003F058F80B2003F055F8102003F052F8A4
:10113000372003F04FF8632003F04CF8FF2003F052
:1011400049F8FF2003F046F8012003F043F801209E
:1011500003F040F8002003F03DF8002003F03AF8D7
:10116000FF2003F037F8522003F034F8012003F099
:1011700031F8002003F02EF8402003F02BF8BD20BA
:1011800003F034F8012003F025F8232003F022F8BF
:10119000452003F01FF8672003F01CF8012003F03E
:1011A00019F8232003F016F8452003F013F8672000
:1011B00003F010F8BE2003F019F8002003F00AF83D
:1011C000012003F007F8AB2003F004F8602003F0DF
:1011D00001F8222002F0FEFF222002F0FBFF222075
:1011E00002F0F8FF222002F0F5FF222002F0F2FFC9
:1011F000C72002F0FBFF362002F0ECFFED2002F0EA
:10120000F5FF7F2002F0E6FF0F2002F0E3FFC02091
:1012100002F0ECFF0F2002F0DDFF0B2002F0DAFFFE
:101220000A2002F0D7FFFC2002F0E0FF082002F0C5
:10123000D1FFDF2002F0DAFF002002F0CBFF002018
:1012400002F0C8FF002002F0C5FF002002F0C2FF3C
:10125000002002F0BFFF202002F0BCFFF32002F0CC
:10126000C5FF742002F0B6FFB42002F0BFFF0020DB
:1012700002F0B0FF002002F0ADFF002002F0AAFF54
:10128000F72002F0B3FF822002F0A4FFB12002F0A9
:10129000ADFF002002F09EFF132002F09BFF132001
:1012A00002F098FFF22002F0A1FF802002F092FFEE
:1012B000042002F08FFF402002F08CFF282002F073
:1012C00089FFC12002F092FF172002F083FF8820DF
:1012D00002F080FF882002F07DFF202002F07AFFDC
:1012E000E02002F083FF002002F074FF0A2002F0E9
:1012F00071FF122002F06EFF102002F06BFF0E2033
:1013000002F068FF202002F065FFCC2002F062FFAF
:10131000072002F05FFF062002F05CFF0B2002F0C6
:1013200059FF0E2002F056FF0F2002F053FF0D2050
:1013300002F050FF152002F04DFF102002F04AFF8E
:10134000002002F047FFE12002F050FF002002F0F1
:1013500041FF0B2002F03EFF132002F03BFF0D2067
:1013600002F038FF0E2002F035FF1B2002F032FFA2
:10137000712002F02FFF062002F02CFF062002F061
:1013800029FF0A2002F026FF0F2002F023FF0E2083
:1013900002F020FF0F2002F01DFF152002F01AFFBF
:1013A0000C2002F017FF002002F014FF2A2002F0A8
:1013B0001DFF002002F00EFF002002F00BFF0120B5
:1013C00002F008FFDF2002F005FF2B2002F00EFFE5
:1013D000002002F0FFFE002002F0FCFE032002F0DD
:1013E000F9FE1F2002F0F6FE3A2002F0FFFE552023
:1013F00002F0F0FE362002F0F9FE002002F0EAFED4
:10140000112002F0F3FE7820FFF7AEFB292002F056
:10141000EDFE1420FFF7A8FB2C2002F0E7FE10BD24
:1014200010B5ED2002F0E2FE012002F0D3FEFE2016
:1014300002F0D0FEEE2002F0D9FEDE2002F0CAFE5D
:10144000212002F0C7FEF12002F0D0FE012002F0C0
:10145000C1FEDF2002F0CAFE102002F0BBFEC42055
:1014600002F0C4FE8F2002F0B5FEC62002F0BEFEE0
:10147000002002F0AFFEE22002F0ACFEE22002F01B
:10148000A9FEE22002F0A6FEBF2002F0AFFEAA20D5
:1014900002F0A0FEB02002F0A9FE0D2002F09AFE9C
:1014A000002002F097FE0D2002F094FE002002F0D2
:1014B00091FE112002F08EFE002002F08BFE19201A
:1014C00002F088FE002002F085FE212002F082FE5C
:1014D000002002F07FFE2D2002F07CFE002002F0B2
:1014E00079FE3D2002F076FE002002F073FE5D20C2
:1014F00002F070FE002002F06DFE5D2002F06AFE38
:10150000002002F067FEB12002F070FE802002F0A1
:1015100061FE002002F05EFE8B2002F05BFE0020E8
:1015200002F058FE962002F055FE002002F052FE16
:10153000B22002F05BFE002002F04CFE002002F020
:1015400049FE022002F046FE002002F043FE032086
:1015500002F040FE002002F03DFEB32002F046FE05
:10156000002002F037FE002002F034FE002002F0DE
:1015700031FE002002F02EFE002002F02BFE0020A3
:1015800002F028FE002002F025FE002002F022FEDC
:10159000002002F01FFE002002F01CFE002002F0DE
:1015A00019FE002002F016FE002002F013FE0020BB
:1015B00002F010FE002002F00DFE002002F00AFEF4
:1015C000002002F007FE002002F004FE002002F0DE
:1015D00001FE002002F0FEFD002002F0FBFD0020D5
:1015E00002F0F8FD002002F0F5FD002002F0F2FD0F
:1015F000B42002F0FBFD8B2002F0ECFD002002F095
:10160000E9FD962002F0E6FD002002F0E3FDA120B6
:1016100002F0E0FD002002F0DDFDB52002F0E6FD65
:10162000022002F0D7FD002002F0D4FD032002F0DA
:10163000D1FD002002F0CEFD042002F0CBFD002001
:1016400002F0C8FDB62002F0D1FD002002F0C2FD7C
:10165000002002F0BFFDB72002F0C8FD002002F01C
:10166000B9FD002002F0B6FD3F2002F0B3FD0020DE
:1016700002F0B0FD5E2002F0ADFD002002F0AAFDF8
:10168000642002F0A7FD002002F0A4FD8C2002F0EF
:10169000A1FD002002F09EFDAC2002F09BFD002089
:1016A00002F098FDDC2002F095FD002002F092FD92
:1016B000702002F08FFD002002F08CFD902002F0DF
:1016C00089FD002002F086FDEB2002F083FD002062
:1016D00002F080FDDC2002F07DFD002002F07AFDAA
:1016E000B82002F083FD002002F074FD002002F01B
:1016F00071FD002002F06EFD002002F06BFD002065
:1017000002F068FD002002F065FD002002F062FD9D
:10171000002002F05FFDBA2002F068FD242002F0F4
:1017200059FD002002F056FD002002F053FD00207C
:1017300002F050FDC12002F059FD202002F04AFDC8
:10174000002002F047FD542002F044FD002002F08A
:1017500041FDFF2002F03EFD002002F03BFDC220D3
:1017600002F044FD0A2002F035FD002002F032FDB7
:10177000042002F02FFD002002F02CFDC32002F017
:1017800035FD3C2002F026FD002002F023FD3A202A
:1017900002F020FD002002F01DFD392002F01AFDAC
:1017A000002002F017FD372002F014FD002002F0A7
:1017B00011FD3C2002F00EFD002002F00BFD362052
:1017C00002F008FD002002F005FD322002F002FDCB
:1017D000002002F0FFFC2F2002F0FCFC002002F0B1
:1017E000F9FC2C2002F0F6FC002002F0F3FC29208A
:1017F00002F0F0FC002002F0EDFC262002F0EAFCF2
:10180000002002F0E7FC242002F0E4FC002002F0BB
:10181000E1FC242002F0DEFC002002F0DBFC2320AF
:1018200002F0D8FC002002F0D5FC3C2002F0D2FCF3
:10183000002002F0CFFC362002F0CCFC002002F0A9
:10184000C9FC322002F0C6FC002002F0C3FC2F20AD
:1018500002F0C0FC002002F0BDFC2C2002F0BAFC1B
:10186000002002F0B7FC292002F0B4FC002002F0B6
:10187000B1FC262002F0AEFC002002F0ABFC2420DC
:1018800002F0A8FC002002F0A5FC242002F0A2FC3B
:10189000002002F09FFC232002F09CFC002002F0BC
:1018A00099FCC42002F0A2FC622002F093FC00200C
:1018B00002F090FC052002F08DFC002002F08AFC72
:1018C000842002F087FC002002F084FCF02002F06B
:1018D00081FC002002F07EFC182002F07BFC00203E
:1018E00002F078FCA42002F075FC002002F072FCEB
:1018F000182002F06FFC002002F06CFC502002F077
:1019000069FC002002F066FC0C2002F063FC002061
:1019100002F060FC172002F05DFC002002F05AFC8F
:10192000952002F057FC002002F054FCF32002F056
:1019300051FC002002F04EFCE62002F04BFC00209F
:1019400002F048FCC52002F051FC322002F042FCBB
:10195000002002F03FFC442002F03CFC002002F09A
:1019600039FC652002F036FC002002F033FC7620C2
:1019700002F030FC002002F02DFC882002F02AFC4E
:10198000002002F027FCC62002F030FC202002F0EC
:1019900021FC002002F01EFC172002F01BFC00209E
:1019A00002F018FC012002F015FC002002F012FCED
:1019B000C72002F01BFC002002F00CFC002002F00B
:1019C00009FC002002F006FC002002F003FCC82005
:1019D00002F00CFC002002F0FDFB002002F0FAFBFC
:1019E000002002F0F7FB002002F0F4FBC92002F017
:1019F000FDFB002002F0EEFB002002F0EBFB0020DC
:101A000002F0E8FB002002F0E5FB002002F0E2FB20
:101A1000002002F0DFFB002002F0DCFB002002F0DF
:101A2000D9FB002002F0D6FB002002F0D3FB0020FF
:101A300002F0D0FB002002F0CDFB002002F0CAFB38
:101A4000002002F0C7FB002002F0C4FB002002F0DF
:101A5000C1FBE02002F0CAFB162002F0BBFB002015
:101A600002F0B8FB1C2002F0B5FB002002F0B2FB34
:101A7000212002F0AFFB002002F0ACFB362002F088
:101A8000A9FB002002F0A6FB462002F0A3FB0020E9
:101A900002F0A0FB522002F09DFB002002F09AFB16
:101AA000642002F097FB002002F094FB7A2002F001
:101AB00091FB002002F08EFB8B2002F08BFB0020BC
:101AC00002F088FB992002F085FB002002F082FBE7
:101AD000A82002F07FFB002002F07CFBB92002F07E
:101AE00079FB002002F076FBC42002F073FB00209B
:101AF00002F070FBCA2002F06DFB002002F06AFBCE
:101B0000D22002F067FB002002F064FBD92002F033
:101B100061FB002002F05EFBE02002F05BFB002096
:101B200002F058FBF32002F055FB002002F052FBBC
:101B3000E12002F05BFB162002F04CFB002002F0DB
:101B400049FB1C2002F046FB002002F043FB222050
:101B500002F040FB002002F03DFB362002F03AFB91
:101B6000002002F037FB452002F034FB002002F099
:101B700031FB522002F02EFB002002F02BFB6420F0
:101B800002F028FB002002F025FB7A2002F022FB65
:101B9000002002F01FFB8B2002F01CFB002002F053
:101BA00019FB992002F016FB002002F013FBA8207D
:101BB00002F010FB002002F00DFBB92002F00AFB3E
:101BC000002002F007FBC42002F004FB002002F01A
:101BD00001FBCA2002F0FEFA002002F0FBFAD2203C
:101BE00002F0F8FA002002F0F5FAD82002F0F2FA3A
:101BF000002002F0EFFAE02002F0ECFA002002F000
:101C0000E9FAF32002F0E6FA002002F0E3FAE2201B
:101C100002F0ECFA052002F0DDFA002002F0DAFA18
:101C20000B2002F0D7FA002002F0D4FA1B2002F0B9
:101C3000D1FA002002F0CEFA342002F0CBFA0020D4
:101C400002F0C8FA442002F0C5FA002002F0C2FAFD
:101C50004F2002F0BFFA002002F0BCFA612002F02F
:101C6000B9FA002002F0B6FA792002F0B3FA0020A7
:101C700002F0B0FA882002F0ADFA002002F0AAFAD1
:101C8000972002F0A7FA002002F0A4FAA62002F0A2
:101C9000A1FA002002F09EFAB72002F09BFA002081
:101CA00002F098FAC22002F095FA002002F092FAAF
:101CB000C72002F08FFA002002F08CFAD12002F047
:101CC00089FA002002F086FAD62002F083FA00207A
:101CD00002F080FADD2002F07DFA002002F07AFAAC
:101CE000F32002F077FA002002F074FAE32002F009
:101CF0007DFA052002F06EFA002002F06BFA0A204D
:101D000002F068FA002002F065FA1C2002F062FA84
:101D1000002002F05FFA332002F05CFA002002F0AB
:101D200059FA442002F056FA002002F053FA5020EB
:101D300002F050FA002002F04DFA622002F04AFA56
:101D4000002002F047FA782002F044FA002002F066
:101D500041FA882002F03EFA002002F03BFA972078
:101D600002F038FA002002F035FAA62002F032FA2A
:101D7000002002F02FFAB72002F02CFA002002F027
:101D800029FAC22002F026FA002002F023FAC72026
:101D900002F020FA002002F01DFAD12002F01AFA17
:101DA000002002F017FAD52002F014FA002002F009
:101DB00011FADD2002F00EFA002002F00BFAF320F7
:101DC00002F008FA002002F005FAE42002F00EFA10
:101DD000012002F0FFF9002002F0FCF9012002F0DE
:101DE000F9F9002002F0F6F9022002F0F3F90020E0
:101DF00002F0F0F92A2002F0EDF9002002F0EAF9F1
:101E00003C2002F0E7F9002002F0E4F94B2002F058
:101E1000E1F9002002F0DEF95D2002F0DBF900209C
:101E200002F0D8F9742002F0D5F9002002F0D2F9BE
:101E3000842002F0CFF9002002F0CCF9932002F0C8
:101E4000C9F9002002F0C6F9A22002F0C3F900206F
:101E500002F0C0F9B32002F0BDF9002002F0BAF997
:101E6000BE2002F0B7F9002002F0B4F9C42002F05D
:101E7000B1F9002002F0AEF9CD2002F0ABF900205C
:101E800002F0A8F9D32002F0A5F9002002F0A2F98F
:101E9000DD2002F09FF9002002F09CF9F32002F00F
:101EA00099F9002002F096F9E52002F09FF9002050
:101EB00002F090F9002002F08DF9002002F08AF97A
:101EC000002002F087F9022002F084F9002002F0DD
:101ED00081F9292002F07EF9002002F07BF93C20F4
:101EE00002F078F9002002F075F94B2002F072F947
:101EF000002002F06FF95D2002F06CF9002002F082
:101F000069F9742002F066F9002002F063F9842078
:101F100002F060F9002002F05DF9932002F05AF916
:101F2000002002F057F9A22002F054F9002002F03C
:101F300051F9B32002F04EF9002002F04BF9BE2017
:101F400002F048F9002002F045F9C42002F042F9FD
:101F5000002002F03FF9CD2002F03CF9002002F011
:101F600039F9D32002F036F9002002F033F9DC20F1
:101F700002F030F9002002F02DF9F32002F02AF9E6
:101F8000002002F027F9E62002F030F9112002F0DB
:101F900021F9002002F01EF9342002F01BF9002084
:101FA00002F018F9562002F015F9002002F012F99B
:101FB000762002F00FF9002002F00CF9772002F0F1
:101FC00009F9002002F006F9662002F003F900206A
:101FD00002F000F9882002F0FDF8002002F0FAF883
:101FE000992002F0F7F8002002F0F4F8BB2002F08C
:101FF000F1F8002002F0EEF8992002F0EBF8002052
:1020000002F0E8F8662002F0E5F8002002F0E2F8BD
:10201000552002F0DFF8002002F0DCF8552002F035
:10202000D9F8002002F0D6F8452002F0D3F80020BD
:1020300002F0D0F8432002F0CDF8002002F0CAF8F8
:10204000442002F0C7F8002002F0C4F8E72002F0B4
:10205000CDF8322002F0BEF8002002F0BBF8552087
:1020600002F0B8F8002002F0B5F8762002F0B2F8DD
:10207000002002F0AFF8662002F0ACF8002002F079
:10208000A9F8672002F0A6F8002002F0A3F8672064
:1020900002F0A0F8002002F09DF8872002F09AF8E4
:1020A000002002F097F8992002F094F8002002F046
:1020B00091F8BB2002F08EF8002002F08BF89920F6
:1020C00002F088F8002002F085F8772002F082F80C
:1020D000002002F07FF8442002F07CF8002002F09B
:1020E00079F8562002F076F8002002F073F82320E9
:1020F00002F070F8002002F06DF8332002F06AF868
:10210000002002F067F8452002F064F8002002F099
:1021100061F8E82002F06AF8002002F05BF8002085
:1021200002F058F8992002F055F8002002F052F819
:10213000872002F04FF8002002F04CF8882002F0CF
:1021400049F8002002F046F8772002F043F800201A
:1021500002F040F8662002F03DF8002002F03AF864
:10216000882002F037F8002002F034F8AA2002F0AC
:1021700031F8002002F02EF8BB2002F02BF80020EE
:1021800002F028F8992002F025F8002002F022F849
:10219000662002F01FF8002002F01CF8552002F023
:1021A00019F8002002F016F8552002F013F800206C
:1021B00002F010F8442002F00DF8002002F00AF8B6
:1021C000442002F007F8002002F004F8552002F045
:1021D00001F8002001F0FEFFE92002F007F8AA2034
:1021E00001F0F8FF002001F0F5FF002001F0F2FF00
:1021F000002001F0EFFF002001F0F8FFAA2001F01D
:10220000E9FFCF2001F0F2FF002001F0E3FF002002
:1022100001F0E0FF002001F0DDFF002001F0DAFF17
:10222000002001F0D7FF002001F0D4FF002001F0D2
:10223000D1FF002001F0CEFF002001F0CBFF0020F5
:1022400001F0C8FF002001F0C5FF002001F0C2FF2F
:10225000002001F0BFFF002001F0BCFF002001F0D2
:10226000B9FF002001F0B6FF002001F0B3FFF0201D
:1022700001F0BCFF002001F0ADFF502001F0AAFFEB
:10228000002001F0A7FF002001F0A4FF002001F0D2
:10229000A1FFF32001F0AAFF002001F09BFFF9202D
:1022A00001F0A4FF062001F095FF102001F092FF3D
:1022B000292001F08FFF002001F08CFF3A2001F06F
:1022C00095FF552001F086FF112001F08FFF64205B
:1022D000FEF74AFC292001F089FF352001F086FF36
:1022E000002001F077FF512001F080FFFF2001F076
:1022F00071FF532001F07AFF2C2001F06BFF552075
:1023000001F074FF822001F065FF2C2001F06EFFC8
:1023100010BD10B555214FF4704001F07DFFAA218A
:102320004FF2010001F078FF52214FF2020001F05C
:1023300073FF08214FF2030001F06EFF01214FF2FD
:10234000040001F069FF0D214FF4304001F064FFFB
:102350000D214BF2010001F05FFF0D214BF2020055
:1023600001F05AFF34214FF4364001F055FF34217B
:102370004BF2016001F050FF34214BF2026001F09A
:102380004BFF0D214FF4314001F046FF0D214BF280
:10239000011001F041FF0D214BF2021001F03CFF52
:1023A00034214FF4374001F037FF34214BF20170F4
:1023B00001F032FF34214BF2027001F02DFF0021B9
:1023C0004FF4324001F028FF00214BF2012001F0D0
:1023D00023FF00214BF2022001F01EFF24214FF4C5
:1023E000384001F019FF24214BF6010001F014FFE1
:1023F00024214BF6020001F00FFF01214FF43F4072
:1024000001F00AFF0F214FF4334001F005FF0F21C7
:102410004BF2013001F000FF0F214BF2023001F0CE
:10242000FBFE34214FF4394001F0F6FE34214BF627
:10243000011001F0F1FE34214BF6021001F0ECFE28
:1024400008214FF4354001F0E7FE08214BF201501E
:1024500001F0E2FE08214BF2025001F0DDFE032103
:102460004FF4424001F0D8FE24214FF43A4001F0ED
:10247000D3FE24214BF6012001F0CEFE24214BF6A1
:10248000022001F0C9FE00214FF43C4001F0C4FEDF
:1024900078214BF6014001F0BFFE00214BF60240CF
:1024A00001F0BAFE00214FF43D4001F0B5FE782165
:1024B0004BF6015001F0B0FE00214BF6025001F046
:1024C000ABFE00214FF43E4001F0A6FE64214BF626
:1024D000016001F0A1FE00214FF4514001F09CFE8B
:1024E00033214DF2011001F097FE00214DF2021050
:1024F00001F092FE34214DF2031001F08DFE002117
:102500004DF2041001F088FE3A214DF2051001F061
:1025100083FE00214DF2061001F07EFE4A214DF2AD
:10252000071001F079FE00214DF2081001F074FE51
:102530005C214DF2091001F06FFE00214DF20A10EE
:1025400001F06AFE81214DF20B1001F065FE0021C1
:102550004DF20C1001F060FEA6214DF20D1001F0BD
:102560005BFE00214DF20E1001F056FEE5214DF20A
:102570000F1001F051FE01214DF2101001F04CFE40
:1025800013214DF2111001F047FE01214DF21210FE
:1025900001F042FE54214DF2131001F03DFE0121E5
:1025A0004DF2141001F038FE82214DF2151001F0A9
:1025B00033FE01214DF2161001F02EFECA214DF21C
:1025C000171001F029FE02214DF2181001F024FE2F
:1025D00000214DF2191001F01FFE02214DF21A10D8
:1025E00001F01AFE01214DF21B1001F015FE02212F
:1025F0004DF21C1001F010FE34214DF21D1001F0BF
:102600000BFE02214DF21E1001F006FE67214DF275
:102610001F1001F001FE02214DF2201001F0FCFD1F
:1026200084214DF2211001F0F7FD02214DF222101C
:1026300001F0F2FDA4214DF2231001F0EDFD022185
:102640004DF2241001F0E8FDB7214DF2251001F004
:10265000E3FD02214DF2261001F0DEFDCF214DF207
:10266000271001F0D9FD02214DF2281001F0D4FD10
:10267000DE214DF2291001F0CFFD02214DF22A108A
:1026800001F0CAFDF2214DF22B1001F0C5FD02212F
:102690004DF22C1001F0C0FDFE214DF22D1001F085
:1026A000BBFD03214DF22E1001F0B6FD10214DF2BD
:1026B0002F1001F0B1FD03214DF2301001F0ACFDFF
:1026C00033214DF2311001F0A7FD03214DF23210FC
:1026D00001F0A2FD6D214DF2331001F09DFD0021AE
:1026E0004FF4524001F098FD33214DF2012001F0EA
:1026F00093FD00214DF2022001F08EFD34214DF2B8
:10270000032001F089FD00214DF2042001F084FD39
:102710003A214DF2052001F07FFD00214DF2062007
:1027200001F07AFD4A214DF2072001F075FD0021EC
:102730004DF2082001F070FD5C214DF2092001F0FE
:102740006BFD00214DF20A2001F066FD81214DF262
:102750000B2001F061FD00214DF20C2001F05CFD29
:10276000A6214DF20D2001F057FD00214DF20E2063
:1027700001F052FDE5214DF20F2001F04DFD012148
:102780004DF2102001F048FD13214DF2112001F00F
:1027900043FD01214DF2122001F03EFD54214DF286
:1027A000132001F039FD01214DF2142001F034FD18
:1027B00082214DF2152001F02FFD01214DF216204E
:1027C00001F02AFDCA214DF2172001F025FD02215A
:1027D0004DF2182001F020FD00214DF2192001F0EA
:1027E0001BFD02214DF21A2001F016FD01214DF2D0
:1027F0001B2001F011FD02214DF21C2001F00CFD07
:1028000034214DF21D2001F007FD02214DF21E2062
:1028100001F002FD67214DF21F2001F0FDFC0221B5
:102820004DF2202001F0F8FC84214DF2212001F02E
:10283000F3FC02214DF2222001F0EEFCA4214DF226
:10284000232001F0E9FC02214DF2242001F0E4FCF8
:10285000B7214DF2252001F0DFFC02214DF22620A8
:1028600001F0DAFCCF214DF2272001F0D5FC022146
:102870004DF2282001F0D0FCDE214DF2292001F09C
:10288000CBFC02214DF22A2001F0C6FCF2214DF2D0
:102890002B2001F0C1FC02214DF22C2001F0BCFCE8
:1028A000FE214DF22D2001F0B7FC03214DF22E2028
:1028B00001F0B2FC10214DF22F2001F0ADFC0321FC
:1028C0004DF2302001F0A8FC33214DF2312001F00F
:1028D000A3FC03214DF2322001F09EFC6D214DF24C
:1028E000332001F099FC00214FF4534001F094FC97
:1028F00033214DF2013001F08FFC00214DF2023006
:1029000001F08AFC34214DF2033001F085FC0021F6
:102910004DF2043001F080FC3A214DF2053001F017
:102920007BFC00214DF2063001F076FC4A214DF28D
:10293000073001F071FC00214DF2083001F06CFC11
:102940005C214DF2093001F067FC00214DF20A30A4
:1029500001F062FC81214DF20B3001F05DFC0021A1
:102960004DF20C3001F058FCA6214DF20D3001F073
:1029700053FC00214DF20E3001F04EFCE5214DF2EA
:102980000F3001F049FC01214DF2103001F044FC00
:1029900013214DF2113001F03FFC01214DF21230B4
:1029A00001F03AFC54214DF2133001F035FC0121C5
:1029B0004DF2143001F030FC82214DF2153001F05F
:1029C0002BFC01214DF2163001F026FCCA214DF2FC
:1029D000173001F021FC02214DF2183001F01CFCEF
:1029E00000214DF2193001F017FC02214DF21A308E
:1029F00001F012FC01214DF21B3001F00DFC02210F
:102A00004DF21C3001F008FC34214DF21D3001F074
:102A100003FC02214DF21E3001F0FEFB67214DF256
:102A20001F3001F0F9FB02214DF2203001F0F4FBE0
:102A300084214DF2213001F0EFFB02214DF22230D2
:102A400001F0EAFBA4214DF2233001F0E5FB022165
:102A50004DF2243001F0E0FBB7214DF2253001F0BA
:102A6000DBFB02214DF2263001F0D6FBCF214DF2E7
:102A7000273001F0D1FB02214DF2283001F0CCFBD0
:102A8000DE214DF2293001F0C7FB02214DF22A3040
:102A900001F0C2FBF2214DF22B3001F0BDFB02210F
:102AA0004DF22C3001F0B8FBFE214DF22D3001F03B
:102AB000B3FB03214DF22E3001F0AEFB10214DF29D
:102AC0002F3001F0A9FB03214DF2303001F0A4FBBF
:102AD00033214DF2313001F09FFB03214DF23230B2
:102AE00001F09AFB6D214DF2333001F095FB00218E
:102AF0004FF4544001F090FB33214DF2014001F0BE
:102B00008BFB00214DF2024001F086FB34214DF297
:102B1000034001F081FB00214DF2044001F07CFBF9
:102B20003A214DF2054001F077FB00214DF20640BD
:102B300001F072FB4A214DF2074001F06DFB0021CC
:102B40004DF2084001F068FB5C214DF2094001F0B4
:102B500063FB00214DF20A4001F05EFB81214DF242
:102B60000B4001F059FB00214DF20C4001F054FBE9
:102B7000A6214DF20D4001F04FFB00214DF20E4019
:102B800001F04AFBE5214DF20F4001F045FB012128
:102B90004DF2104001F040FB13214DF2114001F0C5
:102BA0003BFB01214DF2124001F036FB54214DF266
:102BB000134001F031FB01214DF2144001F02CFBD8
:102BC00082214DF2154001F027FB01214DF2164004
:102BD00001F022FBCA214DF2174001F01DFB02213A
:102BE0004DF2184001F018FB00214DF2194001F0A0
:102BF00013FB02214DF21A4001F00EFB01214DF2B0
:102C00001B4001F009FB02214DF21C4001F004FBC6
:102C100034214DF21D4001F0FFFA02214DF21E4019
:102C200001F0FAFA67214DF21F4001F0F5FA022196
:102C30004DF2204001F0F0FA84214DF2214001F0E4
:102C4000EBFA02214DF2224001F0E6FAA4214DF206
:102C5000234001F0E1FA02214DF2244001F0DCFAB8
:102C6000B7214DF2254001F0D7FA02214DF226405E
:102C700001F0D2FACF214DF2274001F0CDFA022126
:102C80004DF2284001F0C8FADE214DF2294001F052
:102C9000C3FA02214DF22A4001F0BEFAF2214DF2B0
:102CA0002B4001F0B9FA02214DF22C4001F0B4FAA8
:102CB000FE214DF22D4001F0AFFA03214DF22E40DE
:102CC00001F0AAFA10214DF22F4001F0A5FA0321DC
:102CD0004DF2304001F0A0FA33214DF2314001F0C5
:102CE0009BFA03214DF2324001F096FA6D214DF22C
:102CF000334001F091FA00214FF4554001F08CFA75
:102D000033214DF2015001F087FA00214DF20250BB
:102D100001F082FA34214DF2035001F07DFA0021D6
:102D20004DF2045001F078FA3A214DF2055001F0CD
:102D300073FA00214DF2065001F06EFA4A214DF26D
:102D4000075001F069FA00214DF2085001F064FAD1
:102D50005C214DF2095001F05FFA00214DF20A505A
:102D600001F05AFA81214DF20B5001F055FA002181
:102D70004DF20C5001F050FAA6214DF20D5001F029
:102D80004BFA00214DF20E5001F046FAE5214DF2CA
:102D90000F5001F041FA01214DF2105001F03CFAC0
:102DA00013214DF2115001F037FA01214DF212506A
:102DB00001F032FA54214DF2135001F02DFA0121A5
:102DC0004DF2145001F028FA82214DF2155001F015
:102DD00023FA01214DF2165001F01EFACA214DF2DC
:102DE000175001F019FA02214DF2185001F014FAAF
:102DF00000214DF2195001F00FFA02214DF21A5044
:102E000001F00AFA01214DF21B5001F005FA0221EE
:102E10004DF21C5001F000FA34214DF21D5001F02A
:102E2000FBF902214DF21E5001F0F6F967214DF237
:102E30001F5001F0F1F902214DF2205001F0ECF9A0
:102E400084214DF2215001F0E7F902214DF2225088
:102E500001F0E2F9A4214DF2235001F0DDF9022145
:102E60004DF2245001F0D8F9B7214DF2255001F070
:102E7000D3F902214DF2265001F0CEF9CF214DF2C7
:102E8000275001F0C9F902214DF2285001F0C4F990
:102E9000DE214DF2295001F0BFF902214DF22A50F6
:102EA00001F0BAF9F2214DF22B5001F0B5F90221EF
:102EB0004DF22C5001F0B0F9FE214DF22D5001F0F1
:102EC000ABF903214DF22E5001F0A6F910214DF27D
:102ED0002F5001F0A1F903214DF2305001F09CF97F
:102EE00033214DF2315001F097F903214DF2325068
:102EF00001F092F96D214DF2335001F08DF900216E
:102F00004FF4564001F088F933214DF2016001F091
:102F100083F900214DF2026001F07EF934214DF277
:102F2000036001F079F900214DF2046001F074F9B9
:102F30003A214DF2056001F06FF900214DF2066073
:102F400001F06AF94A214DF2076001F065F90021AC
:102F50004DF2086001F060F95C214DF2096001F06A
:102F60005BF900214DF20A6001F056F981214DF222
:102F70000B6001F051F900214DF20C6001F04CF9A9
:102F8000A6214DF20D6001F047F900214DF20E60CF
:102F900001F042F9E5214DF20F6001F03DF9012108
:102FA0004DF2106001F038F913214DF2116001F07B
:102FB00033F901214DF2126001F02EF954214DF246
:102FC000136001F029F901214DF2146001F024F998
:102FD00082214DF2156001F01FF901214DF21660BA
:102FE00001F01AF9CA214DF2176001F015F902211A
:102FF0004DF2186001F010F900214DF2196001F056
:103000000BF902214DF21A6001F006F901214DF28F
:103010001B6001F001F902214DF21C6001F0FCF887
:1030200034214DF21D6001F0F7F802214DF21E60CF
:1030300001F0F2F867214DF21F6001F0EDF8022176
:103040004DF2206001F0E8F884214DF2216001F09A
:10305000E3F802214DF2226001F0DEF8A4214DF2E6
:10306000236001F0D9F802214DF2246001F0D4F878
:10307000B7214DF2256001F0CFF802214DF2266014
:1030800001F0CAF8CF214DF2276001F0C5F8022106
:103090004DF2286001F0C0F8DE214DF2296001F008
:1030A000BBF802214DF22A6001F0B6F8F2214DF290
:1030B0002B6001F0B1F802214DF22C6001F0ACF868
:1030C000FE214DF22D6001F0A7F803214DF22E6094
:1030D00001F0A2F810214DF22F6001F09DF80321BC
:1030E0004DF2306001F098F833214DF2316001F07B
:1030F00093F803214DF2326001F08EF86D214DF20C
:10310000336001F089F855214FF4704001F084F8E4
:10311000AA214FF2010001F07FF852214FF2020084
:1031200001F07AF808214FF2030001F075F8002150
:103130004FF2040001F070F8CC214FF4314001F05F
:103140006BF800214BF2011001F066F805214FF4F5
:10315000364001F061F870214FF4374001F05CF81F
:1031600070214BF2017001F057F801214FF4384003
:1031700001F052F803214BF6010001F04DF8032154
:103180004BF6020001F048F803214BF6030001F072
:1031900043F802214FF43C4001F03EF800214BF689
:1031A000014001F039F800214BF6024001F034F8FB
:1031B000D0214FF4494001F02FF802214CF60110C4
:1031C00001F02AF850214CF6021001F025F85021A8
:1031D0004CF6031001F020F850214CF6041001F0D9
:1031E0001BF800214FF4545001F016F855214FF40C
:1031F000685001F011F84FF4885000F0F7FF782084
:10320000FDF7BCFC4FF4245000F0F0FF10BD10B5EA
:10321000E22000F0EBFF1D2000F0DCFF022000F0B8
:10322000D9FF042000F0D6FF6420FDF7A7FCE020C2
:1032300000F0DCFF012000F0CDFF0A20FDF794FC38
:10324000E02000F0D3FF032000F0C4FF0C20FDF7C6
:103250008BFC012000F0CAFF0A20FDF785FCE62068
:1032600000F0C4FF2F2000F0B5FFFF2000F0B2FFF8
:10327000FF2000F0AFFFB02000F0B8FF202000F0EA
:10328000A9FF002000F0A6FF032000F0A3FF40F2FA
:103290001F3000F09FFF012000F09CFF40F2DF1084
:1032A00000F098FF002000F095FFB42000F09EFF92
:1032B000042000F08FFF40F21F4000F08BFF002041
:1032C00000F088FF2E2000F085FF002000F082FF34
:1032D000002000F07FFF002000F07CFF002000F0C5
:1032E00079FFB62000F082FF022000F073FF4FF458
:1032F000037000F06FFF002000F06CFF172000F05B
:1033000069FF152000F066FF002000F063FF002039
:1033100000F060FFF02000F069FF032000F05AFF8A
:10332000292000F063FFD02000F060FF002000F0B3
:1033300051FFBE2000F05AFF052000F04BFFFE2099
:1033400000F048FF012000F045FF002000F042FFA0
:10335000002000F03FFF002000F03CFFB82000F00C
:1033600045FF032000F036FF012000F033FFBA20B4
:1033700000F03CFF012000F02DFF10BD10B5112022
:1033800000F034FF7820FDF7EFFB362000F02EFF31
:10339000002000F01FFF3A2000F028FF052000F079
:1033A00019FFB22000F022FF0C2000F013FF0C20C8
:1033B00000F010FF002000F00DFF332000F00AFFA6
:1033C000332000F007FFB72000F010FF352000F099
:1033D00001FFBB2000F00AFF322000F0FBFEC020FE
:1033E00000F004FF0C2000F0F5FEC22000F0FEFE0D
:1033F000012000F0EFFEC32000F0F8FE102000F0E6
:10340000E9FEC42000F0F2FE202000F0E3FEC6201A
:1034100000F0ECFE0F2000F0DDFED02000F0E6FE14
:10342000A42000F0D7FEA12000F0D4FEE02000F0A0
:10343000DDFED02000F0CEFE002000F0CBFE02200A
:1034400000F0C8FE072000F0C5FE0A2000F0C2FE12
:10345000282000F0BFFE322000F0BCFE442000F027
:10346000B9FE422000F0B6FE062000F0B3FE0E20AA
:1034700000F0B0FE122000F0ADFE142000F0AAFE15
:10348000172000F0A7FEE12000F0B0FED02000F0F1
:10349000A1FE002000F09EFE022000F09BFE07200F
:1034A00000F098FE0A2000F095FE282000F092FE21
:1034B000312000F08FFE542000F08CFE472000F0F9
:1034C00089FE0E2000F086FE1C2000F083FE1720EF
:1034D00000F080FE1B2000F07DFE1E2000F07AFE32
:1034E0002A2000F083FE002000F074FE002000F08F
:1034F00071FE002000F06EFEEF2000F06BFE2B202E
:1035000000F074FE002000F065FE002000F062FE76
:10351000012000F05FFE3F2000F05CFE292000F05B
:1035200065FE10BD10B5112000F060FE7820FDF79B
:103530001BFB362000F05AFE482000F04BFE3A20DC
:1035400000F054FE552000F045FEF02000F04EFE45
:10355000C32000F03FFEF02000F048FE962000F06F
:1035600039FEB42000F042FE012000F033FEB62008
:1035700000F03CFE0A2000F02DFEA22000F02AFE02
:10358000B72000F033FEC62000F024FEB92000F082
:103590002DFE022000F01EFEE02000F01BFEC020E9
:1035A00000F024FE802000F015FE162000F012FE30
:1035B000C12000F01BFE192000F00CFEC22000F01C
:1035C00015FEA72000F006FEC52000F00FFE162015
:1035D00000F000FEE82000F009FE402000F0FAFDB7
:1035E0008A2000F0F7FD002000F0F4FD002000F03C
:1035F000F1FD292000F0EEFD192000F0EBFDA520E3
:1036000000F0E8FD332000F0E5FDE02000F0EEFDE5
:10361000F02000F0DFFD072000F0DCFD0D2000F0C1
:10362000D9FD042000F0D6FD052000F0D3FD1420C4
:1036300000F0D0FD362000F0CDFD542000F0CAFD92
:103640004C2000F0C7FD382000F0C4FD132000F02E
:10365000C1FD142000F0BEFD2E2000F0BBFD342083
:1036600000F0B8FDE12000F0C1FDF02000F0B2FD57
:10367000102000F0AFFD142000F0ACFD0E2000F093
:10368000A9FD0C2000F0A6FD082000F0A3FD3520C8
:1036900000F0A0FD442000F09DFD4C2000F09AFDBC
:1036A000262000F097FD102000F094FD122000F07D
:1036B00091FD2C2000F08EFD322000F08BFDF020DB
:1036C00000F094FD3C2000F085FDF02000F08EFD20
:1036D000692000F07FFD7820FDF746FA212000F0F8
:1036E00085FD292000F082FD10BD00001CB500BF43
:1036F000FA48806940F48070F849886100BF00BFD3
:103700000846806940F02000886100BF00BF08467D
:10371000806940F02000886100BF00BF08468069D2
:1037200040F48070886100BF00BF0846806940F0A7
:103730000800886100BF0846806940F06000886129
:103740000846406940F4807048610120032100234D
:103750000222CDE900100103E14800F085FF0120BD
:10376000032100230222CDE900102021DD4800F0D2
:103770007BFF0120032100230222CDE9001010214C
:10378000D84800F071FF0120032100230222CDE977
:1037900000100146D24800F067FF012003210023FA
:1037A0000246CDE900100146CF4800F05DFF012040
:1037B000032100230222CDE900104CF20371C94815
:1037C00000F052FF0120032100230222CDE9001066
:1037D0004FF68071C54800F047FF00204FF02041B0
:1037E0008861C861C24908604FF02040806940F498
:1037F00080504FF0204188610846806940F4804045
:1038000088610846806940F0100088610846C069F8
:10381000C8610846C069C8610846C06940F4706064
:10382000C861B3480068C1F81C01B1480068C1F81C
:103830001C010846D0F81C0140F48070C1F81C013E
:103840000846806940F0010088610846806940F0C0
:1038500000408861A74800F08FF9D32000F0C6FC33
:1038600000F09CF9A449888000F098F9A24988806A
:1038700000F094F9A0498880084680884FF6FF71CF
:1038800001EA00209C49888000F088F99A498988DB
:103890000843994988800846808849F24131884226
:1038A0007ED0042000F0A2FC00F078F992498880D4
:1038B00000F074F99049888000F070F98E49888092
:1038C000084680884FF6FF7101EA00208A49888007
:1038D00000F064F988498988084387498880084648
:1038E000808848F25251884203D147F28970824958
:1038F00088808148808847F289718842D0D0D4205E
:1039000000F074FC00F04AF97B49888000F046F929
:103910007949888000F042F9774988800846808894
:103920004FF6FF7101EA00207349888000F036F9F4
:10393000714989880843704988800846808845F223
:1039400010318842ACD0D32000F050FC00F026F9B2
:103950006949888000F022F96749888000F01EF9E3
:1039600065498880084680884FF6FF7101EA00208B
:103970006149888000F012F95F49898808435E49EF
:1039800088800846808847F29671884288D0552101
:103990004FF4704000F040FCAA214FF2010000E01B
:1039A0007CE000F039FC52214FF2020000F034FCC0
:1039B00008214FF2030000F02FFC01214FF2040018
:1039C00000F02AFC4FF4454000F010FC00F0E6F84F
:1039D00049498880084680884FF6FF7101EA002037
:1039E000454988804CF2015000F000FC00F0D6F808
:1039F000414989880843404988800520FDF7B4F88B
:103A00003D48808845F21051884247D0D32000F0CD
:103A1000EDFB00F0C3F83849888000F0BFF8364964
:103A2000888000F0BBF834498880084680884FF6CB
:103A3000FF7101EA00203049888000F0AFF82E497C
:103A4000898808432C4988800846808849F6060101
:103A5000884223D0A12000F0C9FB00F09FF826493E
:103A6000888000F09BF824498880084680884FF6BB
:103A7000FF7101EA00202049888000F08FF81E497C
:103A8000898808431C4988800846808845F261710E
:103A9000884203D141F6631017498880164881880F
:103AA00016A0FCF7E1FB1448808847F28971884230
:103AB00002D1FFF763FC4DE00F48808849F24131A5
:103AC000884202D1FDF7F6F944E00B48808845F2C0
:103AD0001031884218D1FDF7A3FC3BE000100240F2
:103AE0000020014000140140000C0140001801407A
:103AF0001C0100A0FFFF0100180200204C434420DD
:103B000049443A25780D0A001948808847F2967191
:103B1000884202D1FFF706FD1CE01548808845F277
:103B20001051884202D1FEF7F4FB13E01048808860
:103B300049F60601884202D1FDF7D2FA0AE00C48A4
:103B4000808841F66311884204D1FFF760FB64204E
:103B500000F016FB0020FDF7E7F8012211460548AA
:103B600000F076FD4FF6FF70FDF7C4F81CBD0000B5
:103B700018020020000C014000BF011EA0F101004E
:103B8000FBD1704710B50246012000E050430B1EE8
:103B9000A1F10104E1B2F9D110BD000008B5022085
:103BA000FFF7EAFF024800880090BDF8000008BD5A
:103BB0000008006CF0B50546002400278B4880798A
:103BC000012805D18948808841F66311884208D1CF
:103BD00086488079F0B98548808841F6631188422B
:103BE00018D1082D15D2DFE805F00406080A0C0EDE
:103BF000101206250DE007250BE0042509E0052538
:103C000007E0012505E0002503E0032501E002258A
:103C100000BF00BF082D1CD2DFE805F00406090C28
:103C20000F12151800BF14E044F0800411E044F0B6
:103C300040040EE044F0C0040BE044F0200408E02F
:103C400044F0600405E044F0A00402E044F0E00425
:103C500000BF00BF36276548808845F21051884272
:103C600000D13F026148808849F2413188420BD03F
:103C70005E48808847F28971884205D05B48808819
:103C800047F29671884201D144F008042146384633
:103C900000F0C2FA5548808841F6631188421DD071
:103CA00004F0200068B15148008850494988884292
:103CB00014DA4E48068840884C49088008464680F9
:103CC0000CE04A48008849494988884206DD47484F
:103CD00006884088454908800846468043488088D1
:103CE00045F21051884252D14049488900F07EFA8D
:103CF000002000F06FFA3D494989491C88B200F064
:103D000075FA002000F066FA38494989891C88B2A2
:103D100000F06CFA35490988491EC1F30F2000F004
:103D200059FA32494989C91C88B200F05FFA2F4913
:103D30000978491EC8B200F04DFA2C49888900F074
:103D400055FA002000F046FA28498989491C88B2B2
:103D500000F04CFA002000F03DFA24498989891CC2
:103D600088B200F043FA21494988491EC1F30F2067
:103D700000F030FA1D498989C91C88B200F036FA72
:103D80001A498978491EC8B200F024FA2DE0174973
:103D9000488900F02BFA002000F01CFA002000F007
:103DA00019FA12490988491EC1F30F2000F012FACE
:103DB0000E490978491EC8B200F00CFA0B498889EF
:103DC00000F014FA002000F005FA002000F002FADA
:103DD00006494988491EC1F30F2000F0FBF9034949
:103DE0008978491EC8B200F0F5F9F0BD180200202C
:103DF00010B502460C464548808841F6631188425A
:103E000047D142488079A8B940480088401E801AAE
:103E100082B23E49488900F0E9F9002000F0DAF961
:103E2000002000F0D7F9101200F0D4F9D0B200F061
:103E3000D1F916E03549488900F0D8F9101200F0A0
:103E4000C9F9D0B200F0C6F930490988491EC1F35A
:103E50000F2000F0BFF92D490978491EC8B200F0C3
:103E6000B9F92A49888900F0C1F9201200F0B2F9A5
:103E7000E0B200F0AFF925494988491EC1F30F208F
:103E800000F0A8F921498978491EC8B200F0A2F9CA
:103E90003AE01E48808845F21051884220D11B49E3
:103EA000488900F0A3F9101200F094F917494989E4
:103EB000491C88B200F09AF9D0B200F08BF913498E
:103EC000888900F093F9201200F084F90F4989895C
:103ED000491C88B200F08AF9E0B200F07BF913E0E7
:103EE0000A49488900F082F9101200F073F9D0B243
:103EF00000F070F90549888900F078F9201200F087
:103F000069F9E0B200F066F910BD00001802002067
:103F10002DE9FC4F80460E4615461C46B346002050
:103F2000019000902046E31704EB5373DB10214609
:103F30004FEAE47C04EB5C7C4FEAEC0CA4EBCC0C89
:103F4000BCF1000F02D04FF0010C01E04FF0000C6B
:103F50006344224604EBD27C4FEA6C0C03FB0CF367
:103F6000DBB20193A5F12000C5B20C2C06D0102CB9
:103F70000BD0182C0ED0202C18D112E005EB4500E8
:103F80002D4901EB8000009012E02C4800EB051059
:103F900000900DE005EBC500294901EB8000009081
:103FA00006E0284800EB8510009001E0BDE8FC8F9A
:103FB00000BF00273AE0009810F807904FF0000A81
:103FC0002EE009F0800028B1314640460C9AFCF7FB
:103FD00061FF07E00B9828B91B483146026840464C
:103FE000FCF758FF4FEA49604FEA1069701C86B22F
:103FF00016484088B04200DCD8E7A6EB0B00A04290
:104000000AD15E4608F101001FFA80F80F480088C7
:10401000404500DCCAE706E00AF1010000F0FF0AB3
:10402000BAF1080FCDDB00BF781CC7B201988742F8
:10403000C1DB00BFBAE70000966500080A6A000805
:10404000FA6F0008567D00081000002018020020BA
:104050002DE9FC4F04460D4690469946DDE90C7A61
:104060000B9E04F0FF0B08EB04001FFA80F809EB2D
:1040700005001FFA80F917E0444502DB5C46A819E9
:1040800085B24D4500DB15E00020CDE9000A3A7805
:10409000334629462046FFF73BFF304606EBD071FA
:1040A00004EB61018CB27F1C38787E2802DC387802
:1040B0002028E1DA00BFBDE8FC8F2DE9FF4F85B075
:1040C000064693461F46DDE91389129C00200490A2
:1040D000002550E0781B401EC1B20A20FFF752FDB8
:1040E000BBFBF0F00A21B0FBF1F201FB120A0498CD
:1040F00060BB781EA84229DDBAF1000F24D108F078
:10410000800080B108F0010004EBD471491001FB7C
:104110000561CDE90009039488B22346302206994F
:10412000FFF7F6FE0FE008F0010004EBD471491030
:1041300001FB0561CDE90009039488B223462022E2
:104140000699FFF7E5FE14E00120049008F0010055
:1041500004EBD471491001FB0561CDE9000903941A
:1041600088B20AF13001CAB223460699FFF7D0FEA1
:1041700000BF681CC5B2BD42ACDB09B0BDE8F08F22
:104180002DE9F0470446BE2000F030F8052000F08D
:1041900021F8204601F06FFE07464FF066320C4BC7
:1041A00001F0B8FE054601F039FE1FFA80F94846D5
:1041B00000F010F8012000F00DF8FF2000F00AF8E0
:1041C000002000F007F8002000F004F8BDE8F087B8
:1041D0006666044001B5BDF800000090BDF800001F
:1041E0000149088008BD00000008006C01B5BDF859
:1041F00000000090BDF800000149088008BD0000E3
:10420000FE07006C024800890249088070470000E0
:1042100018020020FE07006C024A1080921C1180D8
:1042200070470000FE07006C1CB500BF1548806990
:1042300040F008001349886100BF00BF084680694C
:1042400040F04000886100BF01200090002302463A
:10425000202101900C4800F007FA01200090002373
:10426000024620210190094800F0FEF90122202198
:10427000054800F0EDF901222021044800F0E8F99A
:104280001CBD000000100240000C0140001801405D
:104290000EB54FF0000A0024092000F0B3FA4820C0
:1042A000FCF74CFC4FF4E131482000F0E3FA9A4867
:1042B000416848208847FFF7B7FFFFF717FAFCF778
:1042C0008FFCFCF705FB0120FCF78EFB4FF47840D8
:1042D00092A110221346CDE900210290C82232217A
:1042E0001E20FFF7B5FE4FF478408EA11022134632
:1042F000CDE900210290C82246211E20FFF7A8FE2A
:104300004FF478408AA110221346CDE90021029093
:10431000C8225A211E20FFF79BFE4FF4784088A147
:1043200010221346CDE900210290C8226E211E20E2
:10433000FFF78EFE1F2086A110221346CDE9002133
:104340000290C82282211E20FFF782FE1F2083A137
:1043500010221346CDE900210290C82296211E208A
:10436000FFF776FE1F2081A110221346CDE9002120
:104370000290C822AA211E20FFF76AFECBE00AF1B4
:10438000010000F0FF0A0020FCF764FC0546032D45
:1043900008D1B4F57A6F02DA04F1C80084B2774824
:1043A00004600AE0022D08D1C82C03DDA4F1C80086
:1043B00084B200E0002471480460BAF10A0F03D00F
:1043C000022D01D0032D7CD16C48006886B21F20DD
:1043D000002110220423CDE90021029032468221DF
:1043E0005E20FFF76AFE304601F076FF834601F05B
:1043F000C5FE4FF06632624BCDE9000101F08AFD47
:10440000074601F075FB8146484601F045FF86B23C
:10441000484601F041FF07461F20002110220123DA
:10442000CDE9002102903A4696215E20FFF745FE35
:10443000304601F051FF0746494602F02DF881460B
:104440005049484601F05CFF8146484601F024FF90
:1044500007461F20802110220323CDE9002102906E
:104460003A4696216E20FFF728FE14210120FCF722
:1044700019FA86B2304601F02FFF834601F07EFE26
:104480004FF066323E4BCDE9000101F043FD074697
:1044900001F02EFB8146484601F0FEFE86B24846FA
:1044A00001F0FAFE07461F20002110220123CDE96A
:1044B000002102903A46AA215E20FFF7FEFD304619
:1044C00000E025E001F008FF0746494601F0E4FF5F
:1044D00081462C49484601F013FF8146484601F0C9
:1044E000DBFE07461F20802110220323CDE9002197
:1044F00002903A46AA216E20FFF7DFFD00BF224856
:10450000006880F020002049086000BF4FF0000ADA
:104510000A20FCF729FB32E75C00002053544D339E
:104520003200000044414320544553540000000031
:1045300041544F4D40414C49454E54454B000000BD
:10454000574B5F55503A2B20204B4559313A2D009F
:104550004441432056414C3A00000000444143206E
:10456000564F4C3A302E30303056000041444320F4
:10457000564F4C3A302E3030305600000874004010
:1045800066664A3F00007A440C0C01400146086808
:104590007047000010B5024600210020264B1B6822
:1045A00043F48033244C23600AE000BF224B1B6895
:1045B00003F400331BB1B1F5004F00D904E0491CEE
:1045C0004FF6F0739942F0D300BF4FF6F073994263
:1045D00001D301202FE04FF48063174C6360921EDB
:1045E00023465B6843EA8243636023465B6843F487
:1045F000803363601023114C236023461B6843F013
:10460000020323600C4B1B6843F080730A4C236049
:1046100000BF094B1B685B0E002BFAD0064B5B6892
:1046200043F00203044C636000BF034B5B68C3F3B9
:104630008103022BF9D110BD00100240002002407E
:1046400002469068084008B1012070470020FCE74E
:1046500002F001031BB103690B43036103E003692B
:1046600043EA0143036170472DE9F04F0E461D46B2
:10467000DDE909C4002100278846002300BF64E06B
:104680004FF0010909FA01F706EA0708B8455BD1BE
:104690000023012A01D0022A0AD10CF0030305F0FD
:1046A000010943EA8903A2F1010943EAC90318E0B9
:1046B000BAB90CB9042314E00823D0F80C904FF0D9
:1046C000010A0AFA01FA29EA0A09C0F80C90D0F89E
:1046D0000CA004F0010909FA01F94AEA090AC0F834
:1046E0000CA0072916D8D0F800904FEA810B4FF0A4
:1046F0000F0A0AFA0BFA29EA0A09C0F80090D0F862
:1047000000904FEA810A03FA0AFA49EA0A09C0F856
:10471000009019E0D0F80490A1F1080A4FEA8A0B42
:104720004FF00F0A0AFA0BFA29EA0A09C0F80490B6
:10473000D0F80490A1F1080A4FEA8A0A03FA0AFAAB
:1047400049EA0A09C0F80490491C102998D3BDE829
:10475000F08F00002DE9F0410746884614461D46BB
:10476000284600F033F8C5F1040007FA00F60F20E0
:10477000284100EA0800064306F00F06E21704EBA2
:10478000D2625211920002F1E022D2F800212146B9
:10479000E31704EBD3635B11A4EB431C012303FA7F
:1047A0000CF31A432046E31704EBD3635B119B0021
:1047B00003F1E023C3F800210348005D40EA06103E
:1047C00001490855BDE8F08100E400E001460723F7
:1047D00023EA01021202054B18684FF6FF03184046
:1047E000034B18431043014B186070470CED00E079
:1047F0000000FA054A0A52020243014B1A60704750
:1048000008ED00E010B50446002017490861C860B3
:104810001420486100208861C8610846006840F0A3
:104820000100086008464068104908400E49486089
:10483000084600680E4908400B49086008460068B1
:1048400020F4802008600846406820F4FE0048609C
:104850004FF41F0088602046FFF79CFE00214FF0B8
:104860000060FFF7C7FF10BD001002400000FFF816
:10487000FFFFF6FE7CB506460C4600BF2A4880695D
:1048800040F004002849886100BF00BF08468069E5
:1048900040F00400886100BF00BF0846806940F412
:1048A0008040886100BF0120032100230222CDE95E
:1048B000001041021D48FFF7D7FE0120032100230D
:1048C0001A46CDE9001081021848FFF7CDFE1848BE
:1048D000704300EB5400B0FBF4F51648056000206F
:1048E0001449091D08600846006808600846006809
:1048F00040F0080008600846006840F004000860C6
:104900000846006840F020000860022325220321A9
:104910000846FFF71FFF0748001D006840F40050DD
:104920000449091D08607CBD0010024000080140D8
:1049300040420F000838014030B595B0054613AB32
:1049400012AA09A9284600F03FFA044614B12046ED
:1049500015B030BD0020149026E0224909689DF86A
:10496000502001EBC20113AB11AA486801A900F065
:104970002BFA04460CB12046EAE709A901A800F089
:10498000A7FC60B99DF844009DF84810884201DDFD
:104990000220DDE79DF85000124988750AE09DF875
:1049A0005000401CC0B214900E48007D9DF850107D
:1049B0008842D2DC00BF0B48007D9DF85010884231
:1049C00001D10420C4E714A9284600F0DDFA04460A
:1049D0000CB12046BCE79DF8500002494875002004
:1049E000B6E700005C0000202DE9F0419AB09C4839
:1049F000847D007DA04202DC1AB0BDE8F0819849B8
:104A0000096801EBC40106AB07AA486808A900F0D1
:104A1000DBF908A993A0FBF727FC002644E09048A7
:104A2000008B0121B1400840D8B122218FA0FBF7B3
:104A30001BFC304600F042FB8949243147183946B7
:104A40008BA0FBF711FC222188A0FBF70DFC304660
:104A500000F034FB82492431084410A941F82600B3
:104A600018E0304600F02AFB7D492431085810A98F
:104A700041F826007A48C07D30B910A850F82610B9
:104A80007CA0FBF7F1FB05E010A850F826107AA0F7
:104A9000FBF7EAFB9DF81C00401EB04202D078A054
:104AA000FBF7E2FB701CC6B29DF81C008642B6DB29
:104AB00074A0FBF7D9FB01F001F86948407D0B2891
:104AC0000DD2DFE800F0060D151E27323F4E5F7253
:104AD00087006349096851F834008047054690E033
:104AE0005F4A126852F8341010988847054688E0EB
:104AF0005B4B1B6853F83420DDE9100190470546F5
:104B00007FE0574F3F6857F8343010A807C89847E0
:104B1000054676E0DFF848C1DCF800C05CF8347088
:104B200010A80FC8B84705466BE01498DFF830C1ED
:104B30000090DCF800C05CF8347010A80FC8B847CB
:104B400005465EE0DDE91401DFF814C1CDE900019E
:104B5000DCF800C05CF8347010A80FC8B8470546F0
:104B60004FE0DDE914121698DFF8F4C0CDE9001229
:104B70000290DCF800C05CF8347010A80FC8B84789
:104B800005463EE0DDE91423DDE91610DFF8D0C06C
:104B9000CDE90023CDE90210DCF800C05CF83470E8
:104BA00010A80FC8B84705462BE0DDE91523DDE95D
:104BB0001710CDE90123CDE903101498DFF8A0C048
:104BC0000090DCF800C05CF8347010A80FC8B8473B
:104BD000054616E0DDE91623DDE91810CDE90223CC
:104BE000CDE90410DDE91401DFF874C0CDE900015E
:104BF000DCF800C05CF8347010A80FC8B847054650
:104C000000BF00BF00F006FF9DF8180001280CD17E
:104C10001348C07D20B929461BA0FBF725FB07E000
:104C200029461BA0FBF720FB02E018A0FBF71CFBAA
:104C30000B4890F8EC0088B10948D0F8F0000A2140
:104C4000B0FBF1F201FB12070548D0F8F000B0FB11
:104C5000F1F83A46414611A0FBF706FB00BFCBE650
:104C60005C0000200D0A2573280000002563000069
:104C700025730000256C64003058255800000000A2
:104C80002C000000290000003D256C753B0D0A003A
:104C90003D305825583B0D0A0000000046756E63F4
:104CA00074696F6E2052756E2054696D653A256483
:104CB0002E2531646D730D0A00000000F0B5034627
:104CC000154600200022002600245BE01F782C2FD0
:104CD00001D104B901221F78292F01D01F780FB903
:104CE00004B950E0002E3AD11F78302F02DB1F7834
:104CF000392F17DD1F782D2F14D01F782B2F11D0AF
:104D00001F78612F02DB1F78662F0BDD1F78412F84
:104D100002DB1F78462F05DD1F78582F02D01F7841
:104D2000782F0CD102B12EE01F78612F03DB1F78A2
:104D3000203F0F7001E01F780F70491C1FE01F78A3
:104D4000222F04D102B11EE00126012417E01F78B2
:104D5000202F14D01F782C2F11D0FF2613E01F789E
:104D6000222F00D1002402B10DE044B11F785C2F46
:104D700002D15B1C471CF8B21F780F70491C471CFE
:104D8000F8B25B1CA2E700BF00270F702E70F0BDC9
:104D900010B50446002010700BE020780870641CE9
:104DA000491C1078401C10701078984201DB0120DB
:104DB00010BD2078202802D020780028EDD10020D6
:104DC000087000BFF4E700002DE9FF4F85B0804672
:104DD00089460027002004900390012002904FF0A4
:104DE000000B002544461DE02078202816D005F051
:104DF0007F00052812DA0DB945F0800505F07F0027
:104E0000042803D120782A2800D00EE0207805F06D
:104E10007F010DF80100681CC5B202E0852D00D1AC
:104E200003E0641C20780028DED100BF8DB1002093
:104E300005F07F010DF8010051A1684600F048FA25
:104E400018B900210898017002E00121089801704A
:104E500000254FF0000A444614E0641C0AF10100EA
:104E600000F0FF0A2078202802D020782A2809D1D3
:104E7000204600F09FF90646282E03D02A2E01D0A6
:104E8000CDF810A02078282802D020780028E4D17E
:104E90004446049810B10498401C04444FF0000AA2
:104EA000002654E0207810B94FF0010A50E0207835
:104EB000282803D116B9781CC7B213E02078292816
:104EC00008D13EB917B1781EC7B201E04FF0010A10
:104ED00047B93DE02078222804D10EB9012000E036
:104EE0000020064647B9207820282FD0207889F85E
:104EF000000009F1010929E020782C2804D10120C3
:104F00000290681CC5B214E02078202811D02078C7
:104F100028280ED04DB9BBF1050F06DA20780DF820
:104F20000B000BF1010000F0FF0B0298401CC0B217
:104F30000290012F0AD10298022807D10298401C42
:104F4000C0B202900398401CC0B20390641CA9E751
:104F500000BF0398012809D100200DF80B0008A11B
:104F6000684600F0B5F908B9002003900799039846
:104F70000870002089F80000504609B0BDE8F08FA5
:104F8000766F6964000000002DE9F043B5B0054676
:104F90000F460024002604E000213D488155701C86
:104FA000C6B20A2EF8DB06E06D1C287818B901207D
:104FB00035B0BDE8F08328782828F5D16D1C61E074
:104FC00034AA69462846FFF779FE064635449DF81F
:104FD000D00020B1012827D0FF284CD149E09DF80E
:104FE000000000B333A9684600F0EFF806460EB1A2
:104FF0000220DDE7204600F061F825490A31339AA6
:105000000A50A1F12400008B0121A14088432049CE
:105010001A39088304211E480155601CC4B20A2CA9
:1050200001DD0320C4E726E0684600F06DF9401C6E
:1050300000F0FF08204600F041F815490A3100EB66
:1050400001094946684600F054F911481A38018BA5
:105050000120A040014388B20D491A3908830C4849
:1050600000F80480601CC4B20A2C01DD03209FE715
:1050700001E002209CE700BF2878292801D0287889
:1050800000B900E09CE700BF3C70002090E7000002
:10509000760000200020074A128802F400423AB14C
:1050A000044A11780022044B5A541846014B1A80C6
:1050B0007047000008000020500100200246002038
:1050C000002105E0044B5B5C0344D8B24B1CD9B211
:1050D0009142F7DB704700007600002010B50446CF
:1050E000204600F0B7FC01200149C87510BD000042
:1050F0005C00002010B50246012000E050430B1E6A
:10510000A1F10104E1B2F9D110BD000070B5002693
:10511000FFF7C0FF064606B970BD174881683046E4
:10512000884704461CB91449C868804721E03046C6
:1051300000F0F6F80546012D00D02C46CCB1012C2C
:1051400006D0022C08D0032C0AD0042C10D10BE07E
:105150000AA0FBF789F80BE00BA0FBF785F807E046
:105160000CA0FBF781F803E00DA0FBF77DF800BF72
:1051700000BF00BFD0E700005C000020BAAFCAFD4E
:10518000B4EDCEF3210D0A00B2CECAFDB4EDCEF3DC
:10519000210D0A00B2CECAFDCCABB6E0210D0A004B
:1051A000CEB4D5D2B5BDC6A5C5E4B5C4BAAFCAFDA7
:1051B000210D0A000146491C00E0491C08782028FE
:1051C00001D10029F9D1087870472DE9F04F054643
:1051D0000F4600264FF00A09B3462C4600203860DF
:1051E00034E02078392802DC2078302811DA287859
:1051F0002D2802D028782B2800D156B120784628B7
:1052000002DC2078412804DA2078582817D1012EB2
:1052100015D12078412801DB4FF0100928782D287E
:1052200003D14FF0020B6D1C0FE028782B2803D11F
:105230004FF0010B6D1C08E0701CC6B205E0207831
:1052400000B904E00120BDE8F08F641CC9E700BF8D
:105250002C46B9F1100F0FD1032E01DA0220F2E72C
:105260002078302806D16078582803D1A41CB01EBD
:10527000C6B204E00320E6E70EB90420E3E71BE032
:105280000EB1701EC6B22078392806DC207830288E
:1052900003DB2078A0F1300A02E02078A0F1370A81
:1052A00031464846FFF726FF39680AFB0010386090
:1052B000641C207800B900E0E2E700BFBBF1020FF8
:1052C00004D13868C0F10008C7F800800020BAE7B0
:1052D00002460AE010780B78984201D0012070470E
:1052E000107800B902E0521C491CF3E700BF00200F
:1052F000F5E706E002780A70027802B902E0401C85
:10530000491CF7E700BF70470146002005E00A7816
:1053100002B903E0421CD0B2491CF8E700BF704755
:1053200010B58CB004461E230BAA03A92046FFF734
:105330002FFD0090009810B101200CB010BD9DF819
:105340002C00044400200B900EE040489DF82C20D7
:1053500050F8221003A8FFF7BBFF00B908E09DF842
:105360002C00401CC0B20B909DF82C000728ECD3F9
:1053700000BF9DF82C00072863D2DFE800F0040589
:105380003C5E6564630000BF31A0FAF76DFF31A099
:10539000FAF76AFF3FA0FAF767FF4EA0FAF764FF3B
:1053A0005CA0FAF761FF6BA0FAF75EFF79A0FAF74D
:1053B0005BFF87A0FAF758FF8CA0FAF755FF94A07F
:1053C000FAF752FF98A0FAF74FFF9DA0FAF74CFFAB
:1053D000A2A0FAF749FFA8A0FAF746FFB4A0FAF78F
:1053E00043FFC1A0FAF740FFCCA0FAF73DFFD8A0D9
:1053F000FAF73AFFA2E216A0FAF736FFE4A0FAF7AE
:1054000033FF00200B900EE0F14800689DF82C203F
:1054100000EBC2004168EFA0FAF726FF9DF82C00D0
:10542000401CC0B20B90EA48007D9DF82C108842C9
:10543000EADC07A0FAF718FF80E205A0FAF714FFEC
:10544000CCE179E24DE221E2F4E100001800002015
:105450000D0A00002D2D2D2D2D2D2D2D2D2D2D2D19
:105460002D2D2D2D2D2D2D2D2D2D2D2D55534D41EA
:1054700052542056332E352D2D2D2D2D2D2D2D2DE5
:105480002D2D2D2D2D2D2D2D2D2D2D2D2D2D2D2059
:105490000D0A00002020202055534D415254CAC708
:1054A000D3C9414C49454E54454BBFAAB7A2B5C4D8
:1054B000D2BBB8F6C1E9C7C9B5C4B4AEBFDAB5F757
:1054C000CAD4BBA5BDBBD7E9BCFE2CCDA8B9FD2075
:1054D0000D0A0000CBFC2CC4E3BFC9D2D4CDA8B9BF
:1054E000FDB4AEBFDAD6FACAD6B5F7D3C3B3CCD0C3
:1054F000F2C0EFC3E6B5C4C8CEBACEBAAFCAFD2C6F
:10550000B2A2D6B4D0D02ED2F2B4CB2CC4E3BFC951
:105510000D0A0000D2D4CBE6D2E2B8FCB8C4BAAFD0
:10552000CAFDB5C4CAE4C8EBB2CECAFD28D6A7B33B
:10553000D6CAFDD7D62831302F3136BDF8D6C62C85
:10554000D6A7B3D6B8BACAFD29A1A2D7D6B7FBB49D
:10555000AE0D0A00A1A2BAAFCAFDC8EBBFDAB5D83A
:10556000D6B7B5C8D7F7CEAAB2CECAFD292CB5A5F5
:10557000B8F6BAAFCAFDD7EEB6E0D6A7B3D631308B
:10558000B8F6CAE4C8EBB2CECAFD2CB2A2D6A7B315
:10559000D60D0A00BAAFCAFDB7B5BBD8D6B5CFD4C1
:1055A000CABE2ED6A7B3D6B2CECAFDCFD4CABEBD10
:1055B000F8D6C6C9E8D6C3B9A6C4DC2CD6A7B3D6DC
:1055C000BDF8D6C6D7AABBBBB9A6C4DC2E0D0A004F
:1055D000BCBCCAF5D6A7B3D63A7777772E6F70657D
:1055E0006E6564762E636F6D0D0A000055534D4154
:1055F0005254D3D037B8F6CFB5CDB3C3FCC1EE28E3
:10560000B1D8D0EBD0A1D0B4293A0D0A00000000E7
:105610003F3A202020202020BBF1C8A1B0EFD6FACD
:10562000D0C5CFA20D0A000068656C703A2020201A
:10563000BBF1C8A1B0EFD6FAD0C5CFA20D0A0000C9
:105640006C6973743A202020BFC9D3C3B5C4BAAF04
:10565000CAFDC1D0B1ED0D0A0A00000069643A200C
:1056600020202020BFC9D3C3BAAFCAFDB5C4494466
:10567000C1D0B1ED0D0A0A006865783A20202020DB
:10568000B2CECAFD3136BDF8D6C6CFD4CABE2CBA0A
:10569000F3B8FABFD5B8F12BCAFDD7D6BCB4D6B48F
:1056A000D0D0BDF8D6C6D7AABBBB0D0A0A000000F1
:1056B0006465633A20202020B2CECAFD3130BDF8A7
:1056C000D6C6CFD4CABE2CBAF3B8FABFD5B8F12B20
:1056D000CAFDD7D6BCB4D6B4D0D0BDF8D6C6D7AAEA
:1056E000BBBB0D0A0A00000072756E74696D653AE5
:1056F000312CBFAAC6F4BAAFCAFDD4CBD0D0BCC639
:10570000CAB13B302CB9D8B1D5BAAFCAFDD4CBD0D1
:10571000D0BCC6CAB13B0D0A0A000000C7EBB0B44A
:10572000D5D5B3CCD0F2B1E0D0B4B8F1CABDCAE49B
:10573000C8EBBAAFCAFDC3FBBCB0B2CECAFDB2A2C1
:10574000D2D4BBD8B3B5BCFCBDE1CAF82E0D0A005B
:105750002D2D2D2D2D2D2D2D2D2D2D2D2D2D2D2D79
:105760002D2D2D2D2D2D2D2D2D2DD5FDB5E3D4AD8C
:10577000D7D32D2D2D2D2D2D2D2D2D2D2D2D2D2D09
:105780002D2D2D2D2D2D2D2D2D2D2D200D0A0000F3
:105790002D2D2D2D2D2D2D2D2D2D2D2D2D2D2D2D39
:1057A0002D2D2D2D2D2D2D2D2DBAAFCAFDC7E5B5D3
:1057B000A52D2D2D2D2D2D2D2D2D2D2D2D2D2D2DA1
:1057C0002D2D2D2D2D2D2D2D2D2D2D2D200D0A0086
:1057D0005C00002025730D0A0000000059A0FAF7B4
:1057E00043FD00200B901AE0664909689DF82C20C3
:1057F00001EBC20101AB02AA486803A9FFF7E4FA72
:10580000604800689DF82C1050F8312003A95EA074
:10581000FAF72AFD9DF82C00401CC0B20B905948A5
:10582000007D9DF82C108842DEDCAFF2DC30FAF708
:105830001BFD83E0AFF2E830FAF716FD0BAA03A9CF
:105840002046FFF73BFA9DF82C00C8B9694603A82B
:10585000FFF7BBFC0B909DF82C0020B94FA00099DE
:10586000FAF702FD0EE09DF82C00042801D002207A
:1058700063E54DA0FAF7F8FC01204249C87501E044
:1058800002205AE547A0FAF7EFFC57E045A0FAF7E7
:10589000EBFC0BAA03A92046FFF710FA9DF82C0099
:1058A000C8B9694603A8FFF790FC0B909DF82C003F
:1058B00020B942A00099FAF7D7FC0EE09DF82C0021
:1058C000042801D0022038E53FA0FAF7CDFC0020E3
:1058D0002C49C87501E002202FE532A0FAF7C4FC7C
:1058E0002CE030A0FAF7C0FC0BAA03A92046FFF772
:1058F000E5F99DF82C00C8B9694603A8FFF765FCD7
:105900000B909DF82C0078B91E49009881F8EC00A6
:10591000084690F8EC0018B130A0FAF7A5FC07E0B3
:1059200035A0FAF7A1FC03E0022006E5022004E519
:105930001CA0FAF799FC01E00120FEE400BF002062
:10594000FBE400002D2D2D2D2D2D2D2D2D2D2D2D5C
:105950002D2D2D2D2D2D2D2D2D2D2D2D2DBAAFCACB
:10596000FD204944202D2D2D2D2D2D2D2D2D2D2D7E
:105970002D2D2D2D2D2D2D2D2D2D2D2D2D2D2D2D57
:10598000200D0A005C0000202573206964206973E3
:105990003A0D0A3058253038580D0A004845583A13
:1059A000305825580D0A00003136BDF8D6C6B2CEA3
:1059B000CAFDCFD4CABE210D0A0000004445433AB7
:1059C000256C750D0A0000003130BDF8D6C6B2CE88
:1059D000CAFDCFD4CABE210D0A00000052756E2048
:1059E00054696D652043616C63756C6174696F6E99
:1059F000204F4E0D0A00000052756E2054696D65EF
:105A00002043616C63756C6174696F6E204F46460C
:105A10000D0A00000D48006800F0010040B10C487C
:105A2000D0F8F0004FF6FF7108440949C1F8F000C2
:105A30000748D0F8F00005491431096808440449C2
:105A4000C1F8F0000846D0F8F00070471008004098
:105A50005C00002010B5044600BF1648C06940F045
:105A600004001449C86100BF4FF47A7012490860FD
:105A700004EBC40000EB04100121C1EB80000E49CF
:105A8000091F08600C482038006840F001000A49EE
:105A90002039086008482C38006840F001000649A9
:105AA0002C39086002231E2203210846FEF752FE0D
:105AB00010BD0000001002402C080040094800689A
:105AC00020F00100074908604FF6FF7005491C31BE
:105AD000086000200349143108600349C1F8F00050
