:020000040800F2
:10000000E80B0020490100085101000853010008D5
:1000100055010008570100085901000800000000C0
:100020000000000000000000000000005B0100086C
:100030005D010008000000005F0100086101000888
:100040006301000863010008630100086301000800
:1000500063010008630100086301000863010008F0
:10006000630100086301000863010008A50D000892
:1000700063010008630100086301000863010008D0
:1000800063010008630100086301000863010008C0
:1000900063010008630100086301000863010008B0
:1000A00063010008630100086301000863010008A0
:1000B0006301000863010008630100086301000890
:1000C0006301000863010008630100086301000880
:1000D000630100084115000863010008630100087E
:1000E0006301000863010008630100086301000860
:1000F0006301000863010008630100086301000850
:10010000630100086301000863010008630100083F
:10011000630100086301000863010008630100082F
:10012000630100086301000863010008630100081F
:10013000DFF810D000F0D4F9004800474D1B00084C
:10014000AFF30080E80B00200648804706480047D0
:10015000FEE7FEE7FEE7FEE7FEE7FEE7FEE7FEE777
:10016000FEE7FEE7E1140008310100082DE9FE4F2B
:1001700081EA030404F0004421F0004100944FF0B0
:10018000000B23F0004350EA01045ED052EA03045E
:100190005BD0C3F30A54C1F30A552C44A4F2F334E0
:1001A0000194A0FB0254C1F3130141F48011C3F385
:1001B000130343F4801301FB024400FB034E840A43
:1001C000970A44EA815447EA8357A4FB07680295DB
:1001D0008D0A05FB07854FEA932C04FB0C54270579
:1001E000029D4FEA065847EA1637B5EB08056EEB55
:1001F000070C870E920E47EA811742EA8312A7FB8B
:100200000201B6EB0B0164EB00042B0D43EA0C3347
:100210005E1844EB1C50DA465146E7FB0201C5F379
:1002200013044FEA0B3343EA14534FEA0432019CA0
:1002300043EA0603A4F10C040294009CCDE900B447
:1002400000F000F903B0BDE8F08F00200146F9E7A7
:100250002DE9F04D81EA030404F0004B21F0004544
:1002600014464FF0000A23F0004150EA050220D066
:1002700054EA01021DD0C5F30A570246C5F3130321
:10028000C1F31300C1F30A5640F4801543F4801300
:10029000A7EB0608101BD64608F2FD3873EB0500E5
:1002A00002D308F1010801E092185B41B8F1000F98
:1002B00003DA00200146BDE8F08D00204FF48011E4
:1002C000064684460EE0171B73EB050705D3121B89
:1002D00063EB050306434CEA010C49084FEA300082
:1002E00092185B4150EA0107EDD152EA030012D0A7
:1002F00082EA040083EA0501084305D0101BAB41E4
:1003000006D20122002306E000224FF0004302E063
:100310006FF0010253101AEB06004CEB085110EB82
:100320000A0041EB0B01BDE8F04D00F07CB80EB5C2
:1003300040F2334102910021CDE900110A460B46FB
:1003400000F080F803B000BD70B5C1F30A5201F0AF
:1003500000450024C1F3130140F2FF3341F4801142
:100360009A4201DA002070BD40F233439A42A2F271
:10037000334203DC524200F046F800E090402C4348
:10038000F1D0404270BD2DE9F05F05460020924655
:100390009B4688460646814640241BE02846414647
:1003A0004746224600F02FF853465A46C01A91415C
:1003B00010D311461846224600F016F82D1A67EBA6
:1003C00001084F4622460120002100F00DF817EBEE
:1003D00000094E41201EA4F10104DFDC48463146ED
:1003E0002A464346BDE8F09F202A04DB203A00FA63
:1003F00002F1002070479140C2F1200320FA03F37C
:10040000194390407047202A04DB203A21FA02F079
:100410000021704721FA02F3D040C2F1200291403E
:1004200008431946704710B5141E73F1000408DA2A
:10043000401C41F1000192185B411A4301D120F0A8
:10044000010010BD2DE9F04D92469B4611B1B1FA65
:1004500081F202E0B0FA80F220329046FFF7C4FF4A
:1004600004460F4640EA0A0041EA0B0153465A4649
:10047000084313D0114653EA010019D0C8F14002D5
:100480005046FFF7C0FF05460E46504659464246C5
:10049000FFF7AAFF084305D0012004E020463946B3
:1004A000BDE8F08D0020054346EAE0762C43374353
:1004B0000A986305E40AA0EB08000022FD0A44EA5A
:1004C00047540A3002D500200146E9E7010510191A
:1004D0006941DDE9084500196941BDE8F04DA2E731
:1004E000064C074D06E0E06840F0010394E8070081
:1004F00098471034AC42F6D3FFF71EFEC81F000821
:10050000E81F0008002001E0411C88B20128FBDB45
:100510007047000008B50121402000F079FE4FF43B
:100520006070ADF8000010208DF8030003208DF8F6
:1005300002006946014800F0A1FC08BD0018014016
:100540002DE9F04F85B005460E4693461C464FF008
:1005500080413148CDE902102F46B04600222F4B92
:1005600038464146FFF774FE0746884638464146FE
:10057000DDE90223FFF7FAFD074688463846414683
:10058000FFF7E2FE0190DDF80490C9F30D09019830
:100590004FEAA03ACAF30D0A0E9840F44040049086
:1005A0004FF4807000F03CF84FF4045000F038F83D
:1005B000BBF1000F0CD149F480494AF4804A484607
:1005C00000F02EF8504600F02BF8049800F028F8C0
:1005D000BBF1010F0CD149F400494AF4004A4846E6
:1005E00000F01EF8504600F01BF8049800F018F8D0
:1005F0001CB942F2020000F013F8022C03D142F2BF
:10060000280000F00DF8012C02D1600300F008F87A
:1006100005B0BDE8F08F00005555654180842E413E
:1006200070B5044601201249086012490860002094
:100630000860002515E004F4004018B101200E49BF
:10064000086002E000200C490860FFF75BFF002013
:1006500007490860FFF756FF01200549086064005C
:100660006D1C102DE7DB01200249086070BD000001
:1006700080852242808922428083224270B50025F3
:100680004EF660261021254800F083FC0221234805
:1006900000F07FFC0421214800F07BFC08211F486A
:1006A00000F079FC0A2000F093FB08211B4800F0C1
:1006B00070FC80211A4800F06CFC0121174800F002
:1006C00068FC072000F0AEFA102000F0ABFA092019
:1006D00000F0A8FA002000F0A5FA602000F0A2FACD
:1006E000304600F09BFB06240CE015B9022000F018
:1006F00099FA611EC9B20C460A4A505C00F092FA9F
:10070000681CC5B2002CF0DC0421044800F043FC56
:100710000421024800F03DFC70BD0000001C0140B7
:10072000000801400100002010B510211A4800F017
:1007300030FC0221184800F02CFC0421164800F07F
:1007400028FC0821144800F026FC0A2000F040FB99
:100750000821114800F01DFC8021104800F019FC10
:1007600001210D4800F015FC072000F05BFA102075
:1007700000F058FA092000F055FA082000F052FA6B
:10078000602000F04FFA0421034800F004FC04212B
:10079000014800F0FEFB10BD001C014000080140B4
:1007A00010B510211A4800F0F4FB0221184800F09F
:1007B000F0FB0421164800F0ECFB0821144800F07F
:1007C000EAFB0A2000F004FB0821114800F0E1FBDD
:1007D0008021104800F0DDFB01210D4800F0D9FB1D
:1007E000072000F01FFA102000F01CFA092000F08A
:1007F00019FA022000F016FA602000F013FA042122
:10080000034800F0C8FB0421014800F0C2FB10BD02
:10081000001C01400008014010B510211A4800F0EA
:10082000B8FB0221184800F0B4FB0421164800F080
:10083000B0FB0821144800F0AEFB0A2000F0C8FA13
:100840000821114800F0A5FB8021104800F0A1FB11
:1008500001210D4800F09DFB072000F0E3F9102076
:1008600000F0E0F9092000F0DDF9002000F0DAF9ED
:10087000702000F0D7F90421034800F08CFB04211C
:10088000014800F086FB10BD001C0140000801403B
:1008900010B510211C4800F07CFB02211A4800F022
:1008A00078FB0421184800F074FB0821164800F07A
:1008B00072FB0A2000F08CFA0821134800F069FB53
:1008C0008021124800F065FB01210F4800F061FB18
:1008D00040210D4800F05DFB072000F0A3F9102037
:1008E00000F0A0F9092000F09DF9242000F09AF909
:1008F000202000F097F90421034800F04CFB04216C
:10090000014800F046FB10BD001C014000080140FA
:1009100010B50446082000F085F9201200F082F995
:10092000E0B200F07FF9092000F07CF9201200F01D
:1009300079F9E0B200F076F90421044800F02BFBCD
:100940000421024800F025FB10BD0000001C0140FE
:100950002DE9F04704460D4600274EF660284FF477
:100960007A69002000F05EF9201200F05BF9E0B235
:1009700000F058F9012000F055F9281200F052F962
:10098000E8B200F04FF9404600F048FA06260CE0C5
:1009900017B9022000F046F9711EC9B20E46124A7C
:1009A000505C00F03FF9781CC7B2002EF0DC082044
:1009B00000F038F90F2000F035F9A02000F032F9EE
:1009C000092000F02FF90F2000F02CF9A02000F0F2
:1009D00029F90421054800F0DEFA0421034800F05B
:1009E000D8FABDE8F087000001000020001C01409B
:1009F0002DE9F04780460D460624002600274FF4D7
:100A00007A69404600F00AFA00BF0CE016B90220ED
:100A100000F008F9611EC9B20C461C4A505C00F097
:100A200001F9701CC6B2002CF0DC284600F0F6F983
:100A300006240CE017B9032000F0F4F8611EC9B2D7
:100A40000C46124A505C00F0EDF8781CC7B2002C3E
:100A5000F0DC082000F0E6F80F2000F0E3F8A0201A
:100A600000F0E0F8092000F0DDF80F2000F0DAF8DF
:100A7000A02000F0D7F80421054800F08CFA0421EA
:100A8000034800F086FABDE8F0870000010000206E
:100A9000001C01402DE9F041064600254EF6602776
:100AA0004FF47A68384600F0B9F906240CE015B91D
:100AB000022000F0B7F8611EC9B20C46144A505C1F
:100AC00000F0B0F8681CC5B2002CF0DC082000F083
:100AD000A9F80F2000F0A6F8A02000F0A3F8092044
:100AE00000F0A0F80F2000F09DF8A02000F09AF888
:100AF0000A2000F097F8304600F094F804210548E9
:100B000000F049FA0421034800F043FABDE8F081FF
:100B100001000020001C01402DE9F84F83460E46DD
:100B200017461D4606244FF000084FF000094FF00D
:100B3000000A4FF461600090584600F06FF900BF62
:100B400010E0B8F1000F02D1022000F06BF8611E36
:100B5000C9B20C46314A505C00F064F808F101005B
:100B600000F0FF08002CECDC304600F057F90624BA
:100B700010E0B9F1000F02D1032000F053F8611E1C
:100B8000C9B20C46254A505C00F04CF809F101004E
:100B900000F0FF09002CECDC384600F03FF9062499
:100BA00010E0BAF1000F02D1042000F03BF8611E02
:100BB000C9B20C46194A505C00F034F80AF1010041
:100BC00000F0FF0A002CECDC062000F02BF8C5F347
:100BD000034000F027F8C5F3072000F023F8E8B23F
:100BE00000F020F8082000F01DF80E2000F01AF8A0
:100BF000102000F017F8092000F014F80E2000F083
:100C000011F8102000F00EF80421054800F0C3F997
:100C10000421034800F0BDF9BDE8F88F0100002071
:100C2000001C014070B50446082517E004F0800060
:100C300020B120210B4800F0AEF903E02021094843
:100C400000F0A7F96006040E0221074800F0A1F9A0
:100C50000221054800F09FF9681EC5B2002DE5DCB1
:100C600070BD000000080140001C01402DE9F84F54
:100C700004460D46022D02DA0120BDE8F88F2078E7
:100C8000052801D00120F8E76078113806286FD2D6
:100C9000DFE800F0031C354B6181A078212802D1E8
:100CA000FFF77EFD11E0A07822280CD10B2D01DA90
:100CB0000120E2E7D4F80770D4F8038041463846B3
:100CC000FFF796FE01E00120D7E767E0A078212832
:100CD00002D1FFF729FD11E0A07823280CD10B2DBC
:100CE00001DA0120C9E7B4F803B0B4F8076031466F
:100CF0005846FFF72DFE01E00120BEE74EE0A07848
:100D0000212802D1FFF788FD0EE0A078242809D120
:100D1000072D01DA0120B0E7E07800900720FFF707
:100D2000B9FE01E00120A8E738E0A078212802D12F
:100D3000FFF7A4FC0EE0A078252809D1072D01DAE1
:100D400001209AE7B4F803603046FFF7E1FD01E0C7
:100D5000012092E722E0A078212802D1FFF798FD38
:100D600018E0A078262813D1132D02DA012084E799
:100D700012E0D4F80370D4F80780D4F80B90D4F8BC
:100D80000FA053464A4641463846FFF7C5FE01E0EC
:100D9000012072E702E001E001206EE700BF0020C1
:100DA0006BE700000848006800F0020050B1012025
:100DB0000649087000BF0448406840F0020002493C
:100DC000486000BF704700000000024000000020A3
:100DD00000BF072100BF0B2200BF531E9BB21A1E8B
:100DE000FBD14B1E9BB2191EF5D1431EDBB2181E60
:100DF000EFD1704700BF40F2712100BF3F2200BF1A
:100E0000531E9BB21A1EFBD14B1E9BB2191EF5D16D
:100E1000431EDBB2181EEED17047000018B5014624
:100E2000144ACBB28DF800300B0A8DF801300B0C50
:100E30008DF802300B0E8DF803309DF8003003FB67
:100E400002F00D4C2070000A9DF8013002FB0300F7
:100E50006070000A9DF8023002FB0300A070000AD7
:100E60009DF8033002FB0300E070000A2071030AC2
:100E7000637118BD44E80F00010000202DE9F04126
:100E8000024600250026002000230024002791F8B8
:100E900003C00CF00F0591F803C00CF0100CBCF16E
:100EA000000F03D091F802C04CEA050591F800C08C
:100EB000BCF1000F31D0146800202BE04FF0010C82
:100EC0000CFA00F3B1F800C00CEA03069E4220D1F0
:100ED00083004FF00F0C0CFA03F7BC4305FA03FC38
:100EE0004CEA040491F803C0BCF1280F06D14FF07E
:100EF000010C0CFA00FCC2F814C00AE091F803C01F
:100F0000BCF1480F05D14FF0010C0CFA00FCC2F8FF
:100F100010C0401C0828D1D31460B1F800C0BCF147
:100F2000FF0F34DD546800202EE000F1080C4FF074
:100F3000010808FA0CF3B1F800C00CEA03069E425F
:100F400021D183004FF00F0C0CFA03F7BC4305FAD4
:100F500003FC4CEA040491F803C0BCF1280F05D14E
:100F600000F1080C08FA0CF8C2F8148091F803C0DC
:100F7000BCF1480F07D100F1080C4FF0010808FA46
:100F80000CF8C2F81080401C0828CED35460BDE88D
:100F9000F0814161704701617047000010B5002089
:100FA0000F4908600F48006820F470400D49086040
:100FB0000846006840F44050086000200A49C1F823
:100FC000AC01022000F090FD0120054908600220DC
:100FD00000F08AFD00200449C1F8A80110BD0000FE
:100FE000A8812142040C01400080214210B500205C
:100FF0000F4908600F48006820F470400D490860F0
:101000000846006840F44050086001200A49C1F8D1
:10101000AC01022000F068FD0120054908600220B3
:1010200000F062FD00200449C1F8A80110BD0000D5
:10103000A8812142040C01400080214270B5054680
:1010400000241748006820F47040154908600846DD
:10105000006840F400400860002616E000201149B6
:101060000860022000F040FD01200F49C1F8A801EE
:101070006006040E0B487C38006808B1601CC4B2DE
:10108000012000F031FD701CC6B2082EE6DB15B958
:10109000FFF7ACFF01E0FFF781FF204670BD0000C5
:1010A000040C0140A88121420080214270B5044611
:1010B0001548006820F4704013490860084600682D
:1010C00040F440500860002010490860002517E0F7
:1010D000E0090E49091D08606006040E022000F0B8
:1010E00003FD01200A49C1F8A801022000F0FCFC20
:1010F000002006490860022000F0F6FC681CC5B21A
:10110000082DE5DB70BD0000040C0140A8812142E0
:101110000080214210B50F48006820F470400D494E
:1011200008600846006840F44050086001200A4901
:1011300008600A49C1F8A801042000F0D5FC00208D
:1011400005490860042000F0CFFC00200349C1F8E5
:10115000A80110BD040C0140AC8121420080214255
:1011600010B50F48006820F470400D49086008462B
:10117000006840F44050086000200A4908600A49AD
:10118000C1F8AC01042000F0AFFC01200549086063
:101190000549C1F8AC01042000F0A6FC10BD000018
:1011A000040C0140A88121420080214210B5002496
:1011B0001448006820F4704012490860084600682E
:1011C00040F40040086001200F49086000F08CFCEA
:1011D00001200E49C1F8A80100F086FC07E0601C60
:1011E000C4B2FA2C03DDFFF7BBFF012010BD064897
:1011F000803800680028F2D10349091F086000BF49
:10120000F4E70000040C0140AC812142008021423F
:1012100029B1064A92690243044B9A6104E0034AE9
:1012200092698243014B9A617047000000100240AE
:1012300070B50546032000F05CF804464FF6F370E5
:10124000044044EA85042146032000F0B9F870BD4B
:101250002DE9F04706460027B846032000F049F87C
:10126000044604F01F04C4F3810804F003070FB917
:101270000A2704E0012F01D1142700E00527B8F167
:10128000000F02D142F2FC1512E0B8F1010F02D0BA
:10129000B8F1020F02D141F6B05509E0532000F039
:1012A00028F8054605EB85004FF6FF7101EA400579
:1012B000AE4201DABDE8F087701B90FBF7F01FFA31
:1012C00080F9C9F3090944EA891084B244F0100492
:1012D0002146032000F074F8142000F0FBFB00BF4F
:1012E0000B2000F006F800F080000028F8D000BFC6
:1012F000E0E770B50546FFF70DFF2220FFF7D6FEA9
:10130000FFF754FF2846FFF7D1FEFFF74FFFFFF727
:1013100001FF2320FFF7CAFEFFF748FF0120FFF778
:101320008DFE04464FF6FF7000EA04240020FFF70C
:1013300085FE0443FFF714FF204670BD10B5402022
:10134000FFF7D7FF04464FF6F070044021464020D7
:1013500000F036F810BD10B50B20FFF7CAFF0446A9
:10136000601210BD70B505460320FFF7C2FF0446AA
:101370004FF6FC7004402C432146032000F020F877
:1013800070BD70B505464220FFF7B3FF04464FF627
:10139000C07004402C432146422000F011F870BD7B
:1013A00070B505464220FFF7A4FF04464FF6FF0044
:1013B000044044EA05242146422000F001F870BDB3
:1013C00070B505460C46FFF7A5FE2220FFF76EFE1E
:1013D000FFF7ECFE2846FFF769FEFFF7E7FE201255
:1013E000FFF764FEFFF7E2FEE0B2FFF75FFEFFF7F4
:1013F000DDFEFFF7B5FE70BD10B500F001F810BDC1
:101400000CB50020019000903348006840F4803013
:101410003149086000BF3048006800F40030009097
:101420000198401C0190009818B90198B0F5A06F80
:10143000F1D12948006800F4003010B1012000907B
:1014400001E0002000900098012843D12348006863
:1014500040F01000214908600846006820F00300B1
:1014600008600846006840F0020008601A484068BA
:10147000194948600846406848600846406840F49A
:10148000806048600846406820F47C104860084648
:10149000406840F4E81048600846006840F08070FA
:1014A000086000BF0C48006800F000700028F9D008
:1014B0000948406820F00300074948600846406832
:1014C00040F00200486000BF0348406800F00C0094
:1014D0000828F9D10CBD0000001002400020024095
:1014E00010B51348006840F0010011490860084633
:1014F0004068104908400E494860084600680E4997
:1015000008400B4908600846006820F48020086005
:101510000846406820F4FE0048604FF41F008860D1
:10152000FFF76AFF4FF000600449086010BD00003B
:10153000001002400000FFF8FFFFF6FE08ED00E09B
:1015400010B51F48008800F0200020B31C48001D83
:101550000088C4B21B48008800F40040D8B919487C
:10156000008800F4804070B10A2C03D00020154997
:10157000088023E01348008840F4004011490880A7
:1015800000F024F81AE00D2C06D10E48008840F433
:1015900080400C49088011E00A480088C0F30D0023
:1015A00009490C5407480088401C06490880084631
:1015B0000088B0F5FA6F01DB0020088010BD000044
:1015C000003801400C0000201400002010B50C4829
:1015D000047821460B48FFF749FB30B90623AA22BD
:1015E000552109A000F014F805E01523AA22552181
:1015F00005A000F00DF800200149088010BD000092
:101600000C000020140000202563256325630000E2
:101610000FB4054B10B503A9044A029800F018F85E
:1016200010BC5DF814FB0000311B0008080000200E
:1016300002E008C8121F08C1002AFAD1704770479B
:10164000002001E001C1121F002AFBD170470000F9
:101650002DE9FF4F8DB00F460546002606E02528F0
:101660000BD0DDE90F1290476D1C761C28780028FE
:10167000F5D111B03046BDE8F08F0024A246A14656
:101680000122E94900E0044315F8013F203B02FA3A
:1016900003F00842F7D128782A2810D06FF02F02E3
:1016A0002878A0F13001092914D80AEB8A0102EB4D
:1016B000410144F0020400EB010A6D1CF0E701CF88
:1016C0005FEA000A03D544F40054CAF1000A44F06A
:1016D00002046D1C28782E2817D115F8010F44F04C
:1016E00004042A280ED06FF02F022878A0F13001D0
:1016F00009290AD809EB890102EB410100EB010934
:101700006D1CF2E757F8049B6D1C28786C280FD0ED
:1017100006DC4C2817D068280DD06A2814D104E0C4
:10172000742810D07A280FD10DE044F400140AE098
:1017300044F4801401E044F440146978814202D1F9
:1017400004F580146D1C6D1C28786E281ED00CDCEE
:10175000632830D004DC00288BD0582811D19FE0BA
:10176000642867D069280CD164E073282DD004DC8C
:101770006F2872D0702804D194E075286ED0782834
:101780006DD0DDE90F129047761C4BE1C4F3025097
:10179000022806D0032809D0042801CF09D006600A
:1017A00040E101CFF117C0E900613BE101CF0680C4
:1017B00038E1067036E117F8040B8DF800000020C0
:1017C0008DF80100EB46012003E057F804BB4FF011
:1017D000FF3061074FF0000102D40DE008F1010174
:1017E000884649450FDA8045F8DB1BF808100029C8
:1017F000F4D108E008F1010188468142FADB1BF8C8
:1018000008100029F6D1DDE90F23AAEB0800814674
:10181000214600F031F9304400EB080604E0DDE930
:101820000F121BF8010B9047B8F10108F7D22146BF
:101830004846F2E00A21C4F302524FF0000B08912F
:10184000022A04D001CFC117032A09D00AE0FF1DE4
:1018500027F00707F7E8020108E02CE01EE01FE090
:1018600000B2C117042A01D140B2C117021E71F1A2
:10187000000206DA0023D0EB030063EB01012D2206
:1018800002E0220504D52B228DF82420012203E05A
:10189000E20701D02022F7E7904653E00A210BE04F
:1018A000102109E010214FF0000B44F004044FF028
:1018B0000809089103E008214FF0000B0891C4F3D8
:1018C0000252022A04D001CF0021032A06D006E0EA
:1018D000FF1D27F00707F7E8020103E080B2042AA2
:1018E00000D1C0B24FF0000822072BD52A78702A09
:1018F00007D0DDF820C08CF0100C5CEA0B0C05D092
:101900000EE040228DF82420012208E050EA010375
:1019100006D030238DF824308DF825200222904601
:10192000089B83F0080353EA0B030BD150EA010232
:1019300001D1620706D530228DF824204FF001082E
:10194000A9F101092A78582A04D038A20B9208AAD2
:101950000A920BE03AA2F9E75B46089AFEF713FDFC
:101960000B9B9B5C0A9A521E0A92137050EA01026A
:10197000F2D10A98ADEB000000F1200B600702D510
:1019800024F4803401E04FF00109D94502DDA9EBD0
:101990000B0000E0002000EB0B0141440890AAEB93
:1019A000010AE00306D4DDE90F232146504600F08A
:1019B00063F806444FF0000908E009A911F809008E
:1019C000DDE90F12904709F10109761CC145F4DBEE
:1019D000E0030CD5DDE90F232146504600F04CF81A
:1019E000064404E0DDE90F1230209047761C089988
:1019F000481E08900029F5DC08E00A980A9900784A
:101A0000491C0A91DDE90F129047761CBBF10001D9
:101A1000ABF1010BF1DC21465046DDE90F2300F06C
:101A200019F806446D1C21E60928010030313233D3
:101A3000343536373839616263646566000000000A
:101A400030313233343536373839414243444546F4
:101A5000000000002DE9F041044600251E4617460F
:101A6000880404D405E039462020B0476D1C641E6C
:101A7000F9D52846BDE8F0812DE9F041044600255E
:101A80001E469046C80301D5302700E02027880471
:101A900004D505E041463846B0476D1C641EF9D5B3
:101AA0002846BDE8F08100004FF0E021096941F0CF
:101AB00004014FF0E02211610549086011460969EF
:101AC00041F0010111616FF07041516170470000F8
:101AD0001000002010B504464FF47A7104FB01F0A9
:101AE00000F002F810BD000070B5034600224FF070
:101AF000E02675690D4E366803FB06F44FF0E026CC
:101B0000B16910E04FF0E026B06988420BD08842FE
:101B100002D20E1A324402E02E1A0E44324401461A
:101B2000A24200D300E0EDE700BF70BD100000202E
:101B300000BF054A128802F04002002AF9D0C2B262
:101B4000014B1B1D1A8070470038014086B044F6D7
:101B500020664BF6745B374C012764254FF0000874
:101B6000002005904FF496798246052004900920C4
:101B700000F090F94820FFF797FF4FF4E13148203B
:101B800000F0C0F96420FFF735F9FEF7C3FC40F21E
:101B90008A215320FFF714FC40F27E415420FFF7C6
:101BA0000FFC0320FFF744FB0020FFF7DBFB0320C3
:101BB000FFF7F6FB3F20FFF7E4FBFFF7BFFB5846BC
:101BC000FFF746FB1CA0FFF723FD2046FEF7AFFB07
:101BD000CDE9020100200123024600900298FEF7A1
:101BE000AFFC26E00AF1010A07FB05440A20FFF7D3
:101BF0007BFFFFF7B0FB80460598804501DA78420D
:101C0000C7B2CDF81480A6EB0900A04200D9012785
:101C100006EB0900A04200D2FF270498854208DDA8
:101C20004FF4FA70BAFBF0F100FB11A008B9681F7D
:101C3000C5B2D7E7A086010050726F6772616D6D03
:101C4000652053746172740A0000000010B50246EA
:101C500000210020264B1B6843F48033244C236072
:101C60000AE000BF224B1B6803F400331BB1B1F53F
:101C7000004F00D904E0491C4FF6F0739942F0D3AD
:101C800000BF4FF6F073994201D301202FE04FF4CB
:101C90008063174C6360921E23465B6843EA82436D
:101CA000636023465B6843F4803363601023114C08
:101CB000236023461B6843F0020323600C4B1B6820
:101CC00043F080730A4C236000BF094B1B685B0E16
:101CD000002BFAD0064B5B6843F00203044C6360B0
:101CE00000BF034B5B68C3F38103022BF9D110BD26
:101CF00000100240002002402DE9F04F0E461D4624
:101D0000DDE909C4002100278846002300BF64E004
:101D10004FF0010909FA01F706EA0708B8455BD157
:101D20000023012A01D0022A0AD10CF0030305F096
:101D3000010943EA8903A2F1010943EAC90318E052
:101D4000BAB90CB9042314E00823D0F80C904FF072
:101D5000010A0AFA01FA29EA0A09C0F80C90D0F837
:101D60000CA004F0010909FA01F94AEA090AC0F8CD
:101D70000CA0072916D8D0F800904FEA810B4FF03D
:101D80000F0A0AFA0BFA29EA0A09C0F80090D0F8FB
:101D900000904FEA810A03FA0AFA49EA0A09C0F8F0
:101DA000009019E0D0F80490A1F1080A4FEA8A0BDC
:101DB0004FF00F0A0AFA0BFA29EA0A09C0F8049050
:101DC000D0F80490A1F1080A4FEA8A0A03FA0AFA45
:101DD00049EA0A09C0F80490491C102998D3BDE8C3
:101DE000F08F00002DE9F0410746884614461D4655
:101DF000284600F033F8C5F1040007FA00F60F207A
:101E0000284100EA0800064306F00F06E21704EB3B
:101E1000D2625211920002F1E022D2F80021214652
:101E2000E31704EBD3635B11A4EB431C012303FA18
:101E30000CF31A432046E31704EBD3635B119B00BA
:101E400003F1E023C3F800210348005D40EA0610D7
:101E500001490855BDE8F08100E400E00146072390
:101E600023EA01021202054B18684FF6FF031840DF
:101E7000034B18431043014B186070470CED00E012
:101E80000000FA054A0A52020243014B1A607047E9
:101E900008ED00E010B50446002017490861C8604D
:101EA0001420486100208861C8610846006840F03D
:101EB0000100086008464068104908400E49486023
:101EC000084600680E4908400B490860084600684B
:101ED00020F4802008600846406820F4FE00486036
:101EE0004FF41F0088602046FFF7B0FE00214FF03E
:101EF0000060FFF7C7FF10BD001002400000FFF8B0
:101F0000FFFFF6FE7CB506460C4600BF2A488069F6
:101F100040F004002849886100BF00BF084680697E
:101F200040F00400886100BF00BF0846806940F4AB
:101F30008040886100BF0120032100230222CDE9F7
:101F4000001041021D48FFF7D7FE012003210023A6
:101F50001A46CDE9001081021848FFF7CDFE184857
:101F6000704300EB5400B0FBF4F516490D800020DF
:101F7000091D08800846008808800846008840F04F
:101F8000080008800846008840F0040008800846E1
:101F9000008840F020000880022325220321084603
:101FA000FFF720FF0748001D008840F40050054956
:101FB000091D08807CBD000000100240000801409F
:101FC00040420F0008380140E81F000800000020D0
:101FD0001400000030160008FC1F00081400002048
:101FE000D40B0000401600080000000000000000B4
:0C1FF000000000000000000000000000E5
:0400000508000131BD
:00000001FF
