:020000040800F2
:10000000C81300204901000827200008731E0008BB
:100010002520000851030008E1240008000000002A
:100020000000000000000000000000002B2000087D
:10003000070400080000000029200008D120000863
:100040006301000863010008630100086301000800
:1000500063010008630100086301000863010008F0
:10006000630100086301000863010008B903000888
:1000700063010008630100086301000863010008D0
:1000800063010008630100086301000863010008C0
:1000900063010008630100086301000863010008B0
:1000A00063010008630100086301000863010008A0
:1000B0006301000863010008630100086301000890
:1000C0006301000863010008630100086301000880
:1000D00063010008D52400086301000863010008DB
:1000E0006301000863010008630100086301000860
:1000F0006301000863010008630100086301000850
:10010000630100086301000863010008630100083F
:10011000630100086301000863010008630100082F
:100120006301000863010008C5030008D10300084B
:10013000DFF810D000F02CF8004800472125000817
:10014000AFF30080C81300200648804706480047E8
:10015000FEE7FEE7FEE7FEE7FEE7FEE7FEE7FEE777
:10016000FEE7FEE74B21000831010008D2B201E0B2
:1001700000F8012B491EFBD270470022F6E710B5AC
:1001800013460A4604461946FFF7F0FF204610BD05
:10019000064C074D06E0E06840F0010394E80700D4
:1001A00098471034AC42F6D3FFF7C6FF2826000864
:1001B0004826000870B58C1810F8015B15F007038D
:1001C00001D110F8013B2A1106D110F8012B03E0F0
:1001D00010F8016B01F8016B5B1EF9D12B0705D4F8
:1001E0000023521E0DD401F8013BFAE710F8013B41
:1001F000CB1A921C03E013F8015B01F8015B521E5D
:10020000F9D5A142D8D3002070BD000070B50446D6
:1002100000688168C943C90717D1816821F00101CD
:10022000816000F03BFF05460AE000BF00F036FFAA
:10023000401B022804D920688068C043C00706D04C
:1002400020688068C043C007F0D0002070BDA06A5D
:1002500040F01000A062E06A40F00100E06201207E
:1002600070BD10B50146406A826A12F0500F05D089
:10027000006A026BBDE8104008461047816A41F4ED
:100280000071816201688968C1F3424107290CD17C
:10029000017B51B9816A21F480718162816AC9044C
:1002A00003D4816A41F00101816200F02DF910BD93
:1002B00010B5406A816A41F040018162C16A41F033
:1002C0000401C16200F022F910BD10B5406A00F0CF
:1002D0001CF910BDF8B50026044600960068816838
:1002E000C943C9072DD0816841F0010181601648DA
:1002F00016490068B0FBF1F000E0401E00900028B5
:10030000FBD100F0CBFE054616E000BF00F0C6FEB4
:10031000401B022810D920688068C043C0070BD05A
:10032000A06A40F01000A062E06A40F00100E062C4
:1003300084F824600120F8BD20688068C043C007AD
:10034000E4D10020F8BD00005C01002040420F0015
:10035000FEE710B5446A204600F062FA01202071E1
:1003600010BD10B5446A204600F030FA012020711B
:1003700010BD10B5446A206940F004002061204699
:1003800000F050FA0120207110BD10B5446A2069B8
:1003900040F004002061204600F01AFA012020718C
:1003A00010BD10B5406A00F03CFA10BD10B5406AAF
:1003B00000F00DFA10BD0000014800F0C7BB0000BE
:1003C00058020020014800F0C1BB0000B00200202C
:1003D000014800F0BBBB0000F402002030B590F8EB
:1003E00040500124AC40C56B6C6004686360436896
:1003F000102B036803D099600068C26030BD9A601A
:100400000068C16030BD704772B6FEE7F8B50024E1
:10041000009490F824202546012A12D0012280F869
:1004200024204A681F23072A0DD20668776B521EC4
:1004300002EB820293409F430B6893401F43776314
:1004400019E00220F8BD06680D2A0AD2376BD21FC8
:1004500002EB820293409F430B6893401F43376334
:1004600009E0F76A0D3A02EB820293409F430B6862
:1004700093401F43F7620A68072306680A2A0AD3D3
:10048000F7680A3A02EB420293409F438B6893401D
:100490001F43F76008E0376902EB420293409F4335
:1004A0008B6893401F4337610A68102A01D0112AD4
:1004B00020D1124B02689A4217D193681B0219D4BB
:1004C000936843F4000393600968102912D10C4922
:1004D0000C4A0968B1FBF2F101EB8101490000E02F
:1004E000491E00910029FBD104E0816A41F02001FE
:1004F0008162012480F824502046F8BD0024014088
:100500005C01002040420F007047704770470000B8
:100510002DE9F04104004FF000057FD0A06A0026CD
:1005200028B9E66284F82460204600F081F820466D
:10053000FFF76CFEA16AC90600D420B1A06A40F0A2
:100540001000A0626AE0A16A21F4885141F0020122
:10055000A162334923688B42E16904D1B1F5402F90
:1005600001D14FF40021277B4FF4807C41EA470200
:1005700061680A43A168614508D0012906D00021BD
:1005800094F814E0BEF1010F02D00AE06146F7E7EB
:10059000C7B1A76A47F02007A762E76A47F00107DB
:1005A000E7625F6827F469470F435F6023689968D3
:1005B0001C4F394011439960A16861450BD0012956
:1005C00009D00CE0DFF860E0A7690EEB47370F4376
:1005D00047F40061E5E7218A0D05A5F5801521683E
:1005E000CB6A23F470032B43CB62216889680F4BDD
:1005F0001940914208D1E662A16A21F0020141F05E
:100600000101A162BDE8F081A06A20F0020040F083
:100610001000A062E06A40F00100E0620120F1E712
:10062000003C0140FDF7E1FF00E0FFFFFE0E1FFF71
:1006300070B586B000250646009501950295039594
:1006400000681A4988422ED11949886940F400701F
:100650008861886900F400700490886940F00400A3
:1006600088618869694600F00400049002200090C7
:10067000032001900F4800F015FC104C0E48C4E90F
:1006800000058020C4E902504000206180006061C4
:100690002020C4E90605204600F07CFB08B1FFF7E6
:1006A000B3FE3462666206B070BD000000240140F3
:1006B00000100240000801400800024058020020DB
:1006C0002DE9F047894604463B4900683B4F0E1D23
:1006D0009046884201D0B84207D1306810F4702F9C
:1006E00003D001252846BDE8F08794F824000128AE
:1006F0000CD0012084F824002046FFF7EBFD050014
:100700004FF0000004D084F82400EBE70220EAE771
:10071000A16A40F60162914341F48071A1622168AF
:10072000B94218D1326812F4702F14D0A16A41F482
:100730008011A1623168490505D5A16A21F40051F3
:1007400041F48051A162A16AC9040AD5E16A21F08D
:100750000601E16206E0A26A22F48012A262496800
:10076000E9E7E06284F82400216A15488862216A7A
:100770001448C862216A1448086321686FF00200B7
:1007800008602068816841F4807181602168434677
:100790004A464C31206A00F03BFB20688168C1F377
:1007A00042410729816803D041F48011816099E7B3
:1007B00041F4A001FAE700000024014000280140B4
:1007C00063020008CB020008B102000870477047BE
:1007D000704770B500B3F9B14379012B1ED00126E3
:1007E00046710223037105682C6802F0100340F67D
:1007F000FE729A409443D1E900210A439A40224371
:100800002A6001680A68C0249C40A2430A600671FD
:1008100000214171084670BD012070BD022070BDED
:1008200070477047704770B5040003D020790025E9
:1008300010B105E0012070BD6571204600F008F898
:1008400002202071256101202071002070BD000070
:100850002DE9F04F85B000260546009601960296D8
:10086000039600682349884241D12348C16941F079
:100870000051C161C16901F000510491816941F0E9
:10088000040181618069694600F004000490302011
:10089000009003200190194800F004FB194C1848FF
:1008A000802701C410204FF480784FF480694FF006
:1008B000200A4FF4405B84E8C10F201F241F00F082
:1008C00069FA08B1FFF7A0FDAC6065620D4C0C48F9
:1008D0004434143001C4102084E8C10F201F241FA9
:1008E00000F058FA08B1FFF78FFDEC60656205B0C3
:1008F000BDE8F08F00740040001002400008014085
:1009000030040240B00200202DE9F04104000698B6
:1009100017460D461BD0617901291BD0012666714F
:1009200002212171C5B1E26824499162E26824493B
:10093000D162E2682349116321680A6842F080525B
:100940000A6018B32268042823D01C3222E0012058
:10095000BDE8F0810220FBE7A2681B499162A26812
:100960001A49D162A2681A49116321680A6842F4DF
:1009700080520A6020B12268042804D0103203E0BB
:100980002268083200E00C32A06804E022681432C9
:1009900000E01832E068394600F03AFA002161714F
:1009A00020B1216941F004012161D1E721680A6881
:1009B00005F010039E4032430A60C9E76303000854
:1009C000AD0300088B03000853030008A3030008CD
:1009D0007303000810B590F821100022022905D0F9
:1009E0000421816380F82020012010BD01680B687C
:1009F00023F00E030B6001680B6823F001030B600A
:100A000090F84030C46B012101FA03F3636080F871
:100A1000211080F82020104610BD00002DE9F05F65
:100A200090F821100024022903D0042181630124BD
:100A300085E001680A6822F00E020A6001680A680F
:100A400022F001020A603F4E3E4FB215DFF8F4C0BB
:100A5000DFF8F090DFF8ECA0DFF8E8B0DFF8E4E0D2
:100A60000168783F13011502ACF1640CA9F150093B
:100A7000AAF13C0AABF1280BAEF1140E4FF480182A
:100A8000B14227D9B9420ED0614512D049451DD097
:100A9000514518D0594518D0714501D1424615E04D
:100AA000294EB14201D1012210E0274E1436B14245
:100AB00001D110220AE0244E2836B14206D0224A43
:100AC0003C32914201D11A4600E02A461E49091FD4
:100AD0000A602BE0B94213D0614517D0494522D0B6
:100AE00051451DD059451DD0714501D142461AE0EE
:100AF000B14202D14FF0807215E0134EB14201D1E4
:100B0000012210E0104E1436B14201D110220AE049
:100B10000D4E2836B14206D00B4A3C32914201D1EB
:100B20001A4600E02A46074980394A60012180F8C8
:100B30002110002180F82010416B01B18847204628
:100B4000BDE8F09F80000240080402402DE9F05FFC
:100B5000C16B0A6801680B68046C4FF0040808FA5E
:100B600004F8844D844E854FDFF814C2DFF81492E8
:100B7000DFF814A2DFF814B2DFF814E218EA020F6B
:100B800065D05FEA437862D50A68920603D40A68A2
:100B900022F004020A60DFF8F0814FF480620168FD
:100BA00008F1140813011402414524D9A9420DD0BB
:100BB000B1420FD0B9421AD0614515D0494515D080
:100BC000514501D1120312E0594501D104220EE032
:100BD000714501D140220AE06D4D1435A94206D07D
:100BE0006B4A2832914201D11A4600E022466749F9
:100BF000091F0A6029E0A94213D0B14215D0B942B9
:100C000020D061451BD049451BD0514502D14FF43E
:100C1000800217E0414502D14FF0806212E0594551
:100C200001D104220EE0714501D140220AE0584D65
:100C30001435A94206D0564A2832914201D11A46AB
:100C400000E022464B4908394A60C16A71E04FF022
:100C5000020808FA04F818EA020F70D05FEA8378F5
:100C60006DD50A68920606D40A6822F00A020A6064
:100C7000012180F82110DFF810814FF40072016823
:100C800008F1140813011402414524D9A9420DD0DA
:100C9000B1420FD0B9421AD0614515D0494515D09F
:100CA000514501D1120312E0594501D102220EE053
:100CB000714501D120220AE0354D1435A94206D0F4
:100CC000334A2832914201D11A4600E022462F4988
:100CD000091F0A6029E0A94213D0B14215D0B942D8
:100CE00020D061451BD049451BD0514502D14FF45E
:100CF000001217E0414502D14FF0007212E0594551
:100D000001D102220EE0714501D120220AE0204DDE
:100D10001435A94206D01E4A2832914201D11A4602
:100D200000E02246134908394A60002180F820106B
:100D3000816A00291CD0BDE8F05F0847FFE708255D
:100D4000A540154214D01A0712D50A6822F00E02E7
:100D50000A6090F84020C36B012101FA02F25A6048
:100D6000816380F82110002180F82010016BE0E7FA
:100D7000BDE8F09F080002401C0002403000024025
:100D800044000240580002406C0002400804024047
:100D90001C04024030B560B11A4B026814219A421B
:100DA00009D2194B1344B3FBF1F1890001641749CF
:100DB0000AE0012030BD134B5B421344B3FBF1F159
:100DC000890001640F490839C163022180F82110AC
:100DD000136843F6F0718B43F0E901142143D0E925
:100DE00002452C432143046921434469214384691A
:100DF00021431943116000214163012242770177A9
:100E0000084630BD08040240F8FFFDBF0000024064
:100E100070B5044690F82000002501280CD0012070
:100E200084F8200094F821600020012E06D084F878
:100E300020000225284670BD022070BD022684F8DD
:100E40002160A0632068066826F00106066020463F
:100E5000FFF7C4FAE06A00282068016802D041F078
:100E60000E0106E021F0040101602068016841F0F4
:100E70000A0101602068016841F001010160D9E7C1
:100E800070B5044600F00AF90546601C02D004481B
:100E90000078044400F002F9401BA042FAD370BD70
:100EA000500100202DE9F84FDFF8C8910024A9F186
:100EB000040B23460F2709F1040AABF1040ED1E01D
:100EC0000125A54006EA0502AA4276D1DFF8A8C1AD
:100ED0004E68A6EB0C0866452BD00DDC032E34D0F3
:100EE00005DC36B3012E19D0022E2FD11BE0112EB6
:100EF00016D0122E2AD119E0B8F5881F19D006DCB9
:100F0000B8F5803F15D0B8F5801F1FD111E0B8F5B6
:100F1000001F0ED0B8F5041F18D10AE0CB6815E009
:100F2000CB681B1D12E0CB6808330FE0CB680C3395
:100F30000CE08B682BB1012B4FF0080303D0456107
:100F400004E0042302E0056100E00023FF2A01D849
:100F5000064601E000F104064FEA840501D9A5F137
:100F60002005D6F8008007FA05FC28EA0C0803FAE9
:100F700005F548EA0508C6F800804D68ED0070D513
:100F80003E4DAE6946F00106AE61AD6924F0030640
:100F900005F0010500953A4D06EB050CDCF808500C
:100FA000A607360F07FA06F825EA0805DFF8D48009
:100FB000404503D14FF0000825E052E0DFF8C8803B
:100FC000404502D14FF001081DE0DFF8C0804045E8
:100FD00002D14FF0020816E0DFF8B480404502D19C
:100FE0004FF003080FE0DFF8AC80404502D14FF02E
:100FF000040808E0DFF8A080404502D14FF0050862
:1010000001E04FF0060808FA06F848EA0508CCF8AF
:1010100008804D68D9F80060ED024D4601D51643B1
:1010200000E096432E604D68DAF80060AD02554648
:1010300001D5164300E096432E604D68DBF8006052
:10104000AD035D4601D5164300E096432E604D6822
:10105000DEF80060ED03754601D5164300E09643C7
:101060002E60641C0A681646E2407FF429AFBDE892
:10107000F88F000008040140000011100010024029
:101080000000014000080140000C01400010014038
:101090000014014000180140001C01400148806814
:1010A0007047000050010020024881680278114416
:1010B0008160704750010020074810B5016841F079
:1010C00010010160032000F075F80F2000F006F811
:1010D00000F024F8002010BD0020024070B50D4D36
:1010E00004464FF47A712878B1FBF0F00A49096898
:1010F000B1FBF0F000F052FB48B9102C07D20022EF
:101100002146501E00F036F800206C6070BD0120B2
:1011100070BD0000500100205C0100200C4808B5A3
:10112000816941F001018161816901F00101009152
:10113000C16941F08051C161C06900F080500090E8
:101140000448416821F0E06141F00071416008BD50
:101150000010024000000140002809DB00F01F02DF
:10116000012191404009800000F1E020C0F8001109
:1011700070470000F0B40E4B1B680C46C3F302230B
:10118000C3F10705042D00D90425191D072901D233
:10119000002300E0DB1E012606FA05F1491E21406E
:1011A00099409E40761E16403143F0BC01F099B93B
:1011B0000CED00E0064900F0070208684FF6FF0357
:1011C000184040EA0220034A1043086070470000BC
:1011D0000CED00E00000FA052DE9F8430546007823
:1011E000354CC00754D0E0690026C00008D4E0693F
:1011F00040F08050E061E069012600F080500090EE
:101200002E480168C90512D40168804641F48071F6
:101210000160FFF743FF074605E000BFFFF73EFF11
:10122000C01B642823D8D8F80000C005F6D5206A72
:1012300010F4407021D0A98801F4407181421CD083
:10124000206A1F49012220F440700A6000220A60CF
:101250002062C00711D0FFF721FF074641F288380E
:1012600008E000BFFFF71AFFC11B414502D9032068
:10127000BDE8F883206A8007F4D5206A696820F405
:101280004070084320621EB1E06920F08050E061A8
:101290002878800705D56068A96820F44040084395
:1012A00060602878C00605D56068696920F4800010
:1012B000084360600020DBE700100240007000403F
:1012C000400442422DE9F0470F46050061D0434EED
:1012D000306800F00700B84209D2306820F00700FB
:1012E00038433060306800F00700B84251D12868B8
:1012F0003B4C810712D5400703D5606840F4E0609D
:1013000060602878000703D5606840F46050606032
:101310006068A96820F0F000084360602878C00782
:1013200028D06868012810D02168022810D08907C9
:1013300000292EDA616821F0030101436160FFF7A3
:10134000ADFE804641F288390DE021688903EFE760
:101350008901EDE7FFF7A2FEA0EB0801494502D99C
:101360000320BDE8F0876068696800F00C00B0EB0E
:10137000810FEFD1306800F00700B8420BD9306818
:1013800020F0070038433060306800F00700B842B2
:1013900001D00120E5E72878400705D56068E968B5
:1013A00020F4E060084360602878000706D5606894
:1013B000296920F4605040EAC100606000F038F80C
:1013C0006168084AC1F30311515CC84006490860CE
:1013D00006480068FFF782FE0020C2E700200240B6
:1013E000001002400E2600085C010020540100207D
:1013F0000448054900684968044AC1F30221515C68
:10140000C84070475C010020001002401E26000802
:101410000448054900684968044AC1F3C221515C87
:10142000C84070475C010020001002401E260008E2
:101430000E4A51680E4801F00C03042B11D0082B02
:101440000FD10C48C1F38343C903C05C0AD551686E
:10145000084AC1F34041921E515C054A5043B0FB1B
:10146000F1F0704704494843704700000010024003
:1014700000127A00FE25000800093D002DE9F84F12
:10148000040070D02078C04DC00749D06868C0F310
:101490008100012807D06868C0F38100022809D1C3
:1014A0006868C00306D52868800339D560680028BD
:1014B000E7D035E06068B0F5803F0BD010B1B0F5F3
:1014C000A02F11D0286820F480302860286820F4EC
:1014D000802002E0286840F480302860606890B185
:1014E000FFF7DCFD06460AE0286840F4802028600B
:1014F000F0E700BFFFF7D2FD801B642873D828688F
:101500008003F7D50CE0FFF7C9FD064605E000BFF4
:10151000FFF7C4FD801B6428F0D828688003F7D447
:1015200020789A4E80074FF001094FF0000839D516
:10153000686810F00C0F07D06868C0F381000228BB
:1015400009D16868C00306D42868800714D52069CB
:10155000012808D110E02069B0B1C6F80090FFF76B
:101560009DFD074605E00AE1FFF798FDC01B022834
:10157000C4D828688007F7D52868616920F0F8008A
:1015800040EAC10028600DE0C6F80080FFF786FD44
:10159000074604E0FFF782FDC01B022823D8286815
:1015A0008007F7D4207800072CD57948A169D9B1F4
:1015B000C0F80090FFF772FD074604E0FFF76EFDEC
:1015C000C01B02280FD8686A8007F7D571484FF40E
:1015D000FA510068B0FBF1F0009000BF0098411E86
:1015E0000091FAD20EE080E0C0F80080FFF756FDCF
:1015F000074604E0FFF752FDC01B022875D8686A51
:101600008007F7D42078400760D5E8690027C0003C
:1016100008D4E86940F08050E861E869012700F0EB
:10162000805000905C480168C90513D40168834666
:1016300041F480710160FFF731FD824606E000BF92
:10164000FFF72CFDA0EB0A0064284ED8DBF8000061
:10165000C005F5D5E06801280AD008B1052813D0E7
:10166000286A20F001002862286A20F0040002E0C5
:10167000286A40F001002862E06841F2883B98B196
:10168000FFF70CFD82460BE0286A40F00400286258
:10169000EEE700BFFFF702FDA0EB0A0159455AD85B
:1016A000286A8007F6D50CE0FFF7F8FC824605E0D3
:1016B000FFF7F4FCA0EB0A0159454CD8286A8007D3
:1016C000F6D41FB1E86920F08050E861E06988B382
:1016D0006968C1F38101022944D00228C6F86080FC
:1016E00004D0FFF7DBFC044638E034E0FFF7D6FC1B
:1016F000074604E0FFF7D2FCC01B02282BD828685D
:101700008001F7D4206AB0F5803F05D16868A168F0
:1017100020F4003008436860D4E908010843696890
:1017200021F4741108436860C6F86090FFF7B6FCB6
:10173000044606E025E000BFFFF7B0FC001B0228CE
:1017400009D828688001F7D51BE000BFFFF7A6FC89
:10175000001B022802D90320BDE8F88F2868800109
:10176000F4D40EE00128F7D06868226A00F48031D2
:10177000914204D1616A00F47010884201D00120C6
:10178000EAE70020E8E700000010024000004242C3
:10179000800442425C0100200070004010B5401EF1
:1017A000B0F1807F01D3012010BD4FF0E0246061D3
:1017B0000F21601700F095FE0020A0610720206136
:1017C000002010BD70B590F83C20012A2CD00124D7
:1017D00080F83C40022280F83D2003685A689D68EA
:1017E00022F070060A6832435A60104B02689A422F
:1017F0000ED00F4B9A420BD0B2F1804F08D00D4B58
:101800009A4205D00C4B9A4202D00C4B9A4204D11A
:10181000496825F080031943916080F83D4000211C
:1018200080F83C10084670BD022070BD002C0140BD
:10183000003401400004004000080040000C00405B
:1018400010B5040003D094F83D0010B107E001206A
:1018500010BD002084F83C00204600F01FF8022054
:1018600084F83D00211D206800F070FC012084F800
:10187000460084F83E0084F83F0084F8400084F875
:10188000410084F8420084F8430084F8440084F85E
:10189000450084F83D00002010BD000008B5006838
:1018A000B0F1804F08D10548C16941F00101C16123
:1018B000C06900F00100009008BD00000010024067
:1018C00090F83D10012901D001207047022180F8D5
:1018D0003D1000680E4988420ED00E4988420BD058
:1018E000B0F1804F08D00C49884205D00B4988429E
:1018F00002D00B49884204D1816801F00701062912
:1019000003D0016841F00101016000207047000030
:10191000002C014000340140000400400008004059
:10192000000C004070B5044690F83C0000250128EA
:1019300017D0012684F83C60022084F83D0020681E
:10194000826822F0770222F47F4282600868502881
:1019500038D00DDC20284FD005DC90B3102811D1F1
:101960004AE0022070BD302846D040280AD13BE032
:1019700060282FD070280DD0B0F5805F03D0B0F56F
:10198000005F12D0012584F83D60002084F83C00FF
:10199000284670BDCB68D1E90121206800F024FC05
:1019A0002068816841F0770109E0CB68D1E9012125
:1019B000206800F019FC2068816841F48041816052
:1019C000E1E719E0CA684968206800F01FFC50216F
:1019D000206806E0CA684968206800F028FC602199
:1019E000206800F00BFCCEE7CA684968206800F068
:1019F0000DFC40212068F4E7226801461046F0E71C
:101A000070477047F8B5016804460868CA684B69B2
:101A100010F00F0F4FF0000559D003F0010602F44B
:101A20009077374365D0C10705D0D10503D5616CE8
:101A300041F001016164410705D5D90703D0616C0C
:101A400041F002016164810705D5D90703D0616CBB
:101A500041F004016164010707D502F02001314320
:101A600003D0616C41F008016164616C00293AD0D7
:101A7000800604D5900602D5204600F019FC2068A7
:101A80004069616CC0F38010090700D460B3204640
:101A900000F0E7FB20684069400621D5206814303B
:101AA00050E8001F21F0400140E80012002AF5D163
:101AB000E06BA8B16D494163E06BFEF7AFFF002812
:101AC00011D0E06B416B01B0BDE8F04008478306E0
:101AD0000FD593060DD52046BDE8F84000F0E8BBD1
:101AE0002046FFF78EFFF8BD2046FFF78AFF6564AA
:101AF000F8BD266B2023012E7CD1C6067AD5D606EA
:101B000078D508684868009048694FF0020640069A
:101B100040D5E16B086840680004000CE8D0A28D55
:101B20008242E5D9E085886920282DD020680C30D4
:101B300050E8001F21F4807140E80012002AF5D11E
:101B40002068143050E8001F21F0010140E8001225
:101B5000002AF5D12068143050E8001F21F0400120
:101B600040E80012002AF5D184F84230256320684D
:101B70000C3050E8001F21F0100140E80012002A4C
:101B8000F5D1E06BFEF726FF6663A08DE18D401A6C
:101B900081B22AE0A08DE18D401A81B2E08D00284B
:101BA000A6D00029A4D022680C3252E8000F20F4FD
:101BB000907042E80007002FF5D12068143050E8FB
:101BC000002F22F0010240E80027002FF5D184F811
:101BD0004230256320680C3050E8002F22F01002BC
:101BE00040E80023002BF5D166632046FFF708FF8D
:101BF000F8BDFFE705062BD5150629D594F8410059
:101C00002128F5D1A068B0F5805F01D12069B0B17D
:101C1000206A411C2162216800784860E08C401EE7
:101C20000004000CE084E3D12068C16821F0800149
:101C3000C1602068C16841F04001C160D8E7206AF6
:101C40000088C0F308004860206A801C2062E5E735
:101C50004006CDD55006CBD5CA68204622F04002BA
:101C6000CA6084F8413000F003F9C1E7532200084C
:101C700070B5040004D094F84100002510B106E0CE
:101C8000012070BD84F84050204600F023F8242045
:101C900084F841002068C16821F40051C1602046E9
:101CA00000F068FB2068016921F49041016120681F
:101CB000416921F02A0141612068C16841F4005165
:101CC000C1606564202084F8410084F842006563A7
:101CD000002070BD30B585B00024009401940294BA
:101CE00003940068184988422CD11848816941F44E
:101CF00080418161816901F480410491816941F0F1
:101D0000040181618069124D00F0040004904FF4D9
:101D1000007000900220019003200390694628463D
:101D2000FFF7C0F82815CDE900046946284602945B
:101D3000FFF7B8F8002211462520FFF71BFA2520EF
:101D4000FFF70AFA05B030BD00380140001002402C
:101D50000008014090F84230202B01D0022070474B
:101D600021B11AB10023036300F060BB012070476A
:101D700010B500681349884223D11348811E0278A8
:101D8000031D0878FE2A04D001280CD0052A0FD0A4
:101D900010E001280ED10020087048701888888053
:101DA00000F006FC06E048781A54401C487001E038
:101DB00001200870BDE81040012203490348FFF7E5
:101DC000C9BF10BD00380140020000208003002080
:101DD0002DE9F843044690F84100984616460D4612
:101DE000202802D00220BDE8F88385B17EB1002012
:101DF0006064212084F84100FFF750F9A6848146F1
:101E0000E684A0682027B0F5805F02D003E00120BF
:101E1000E9E7206910B12E4600250EE000260CE00F
:101E20008021204600F01DFBA8B9C6B116F8010BB1
:101E300021684860E08C401EE084E08C4B464FF007
:101E40000002CDF800800028EAD14FF04001204682
:101E500000F007FB40B184F841700320C3E735F878
:101E6000020BC0F30800E3E784F841700020BAE7F2
:101E70007047FEE73EB50024104800940194029498
:101E80000D498460016001250573047505614FF4F7
:101E900060214460C161FEF73BFB08B1FEF7B4FA74
:101EA0000095CDE9015469460448FEF7AFFA0028D1
:101EB00001D0FEF7A9FA3EBD00240140280200200F
:101EC0001CB500201149009001900F480860084699
:101ED000FEF7A9FC08B1FEF797FA24200090022033
:101EE0000190002269460948FEF773FC08B1FEF72D
:101EF0008BFA102269460548FEF76BFC002801D0DA
:101F0000FEF782FA1CBD0000007400409C02002015
:101F1000154808B5416941F002014161416901F08C
:101F200002010091416941F00101416140690022D3
:101F300000F00100009011460B20FFF71BF90B2069
:101F4000FFF70AF9002211463A20FFF713F93A2069
:101F5000FFF702F9002211463B20FFF70BF9BDE81D
:101F600008403B20FFF7F8B800100240054808B5CC
:101F7000816941F004018161806900F004000090F2
:101F800008BD00000010024010B586B000241648BD
:101F9000009401940294039404944FF080410594BA
:101FA000C0E900144721C0E9024180210461816138
:101FB000FFF746FC08B1FEF727FA4FF48050009077
:101FC00069460948FFF7AEFC08B1FEF71DFA20206C
:101FD000CDE9040404A90448FFF7F4FB002801D06C
:101FE000FEF712FA06B010BD380300200C4810B5F9
:101FF0000A4901604FF4E1314160002181600C2207
:10200000C160C0E904128161C161FFF731FE00289F
:1020100003D0BDE81040FEF7F7B910BD003801400D
:1020200080030020FEE7FEE7704770472DE9FF417F
:1020300006460520ADF8080002204FF6FF770D4652
:10204000ADF80C003C463B46012202A91F48FFF7B1
:10205000BFFE2346012203A91C48FFF7B9FE002456
:102060004FEA070806EB44010F4643460122174892
:10207000FFF7AEFE791C434601221448FFF7A8FE85
:1020800005EB44010F46434601221048FFF7A0FE2E
:10209000791C434601220D48FFF79AFE641CE4B206
:1020A000282CDFD3FE208DF800008DF80400444674
:1020B0004346012269460548FFF78AFE234601226E
:1020C00001A90248FFF784FEBDE8FF8180030020DC
:1020D000FEF7EABF30B595B028216846FEF74DF807
:1020E00014210AA8FEF749F818210FA8FEF745F8B1
:1020F00001210804CDE90010002502950224049175
:10210000CDE907404FF4E01009906846FFF7B6F9B3
:1021100008B172B6FEE70AA90F2081E831004FF43A
:102120008060CDE90D0502210AA8FFF7CBF808B1C0
:1021300072B6FEE70FA811950F94FFF74DF800282F
:1021400001D072B6FEE715B030BD7047F0B5026839
:10215000204C214D214E224F224B4FF0804CA0426B
:1021600009D0984207D0604505D0A84203D0B042BC
:1021700001D0B84204D122F0700E4A6842EA0E0241
:10218000A04209D0984207D0604505D0A84203D0AC
:10219000B04201D0B84203D122F44075CA682A4344
:1021A0004D6922F080022A4302608A68C2620A688E
:1021B0008262A04201D0984201D1096901630121E4
:1021C00041610169C90703D0016921F00101016181
:1021D000F0BD0000002C0140000400400008004059
:1021E000000C00400034014010B5846842EA03222C
:1021F00024F47F440A432243826010BD826822F0A7
:1022000070020A4342F007018160704710B5036A0B
:10221000046A24F001040462846924F0F00444EAAE
:10222000021423F00A020A438461026210BD10B551
:10223000036A046A24F010040462846923F0A00392
:1022400024F4704444EA023243EA011182610162DB
:1022500010BD10B5406A0021C185C184FFF7D1FBD4
:1022600010BD01680C3151E8002F22F4907241E852
:102270000023002BF5D10168143151E8002F22F022
:10228000010241E80023002BF5D1016B012909D19E
:1022900001680C3151E8002F22F0100241E80023C0
:1022A000002BF5D1202180F84210002101637047F6
:1022B00008B590F84210222901D0022008BD82689A
:1022C0004FF480539A4201D1016921B1816A9A4247
:1022D0001BD04AB10AE00268816A5268C2F3080260
:1022E0000A80816A891C08E0026972B1026852683A
:1022F00002F07F020A70816A491C8162C18D491E09
:102300000904090CC18503D01BE002685268F1E79B
:102310000168CA6822F02002CA600168CA6822F413
:102320008072CA6001684A6922F001024A61202174
:1023300080F8421000214163026B012A03D0FFF7AD
:1023400017FD002008BD016301680C3151E8002F22
:1023500022F0100241E80023002BF5D101680A6841
:10236000D20602D50A6849680091818DFFF748FBC3
:10237000E7E7000070B5044600680169E26821F4EF
:102380004051114301612169A06808436169084314
:102390002168CA6841F20C639A430243CA6020680C
:1023A0004169A26921F44071114341611E492068CD
:1023B000884202D1FFF72CF801E0FFF719F800EB93
:1023C000C00101EB0012606864218000B2FBF0F3F1
:1023D000B3FBF1F36FF018067343B2FBF0F5B2FBF9
:1023E000F0F605EB8305322303EB0515B5FBF1F59C
:1023F000B6FBF1F605F0F00505EB0615B2FBF0F6BD
:10240000B2FBF0F0B0FBF1F06FF01802504306EBB6
:10241000800003EB0010B0FBF1F0216800F00F002A
:102420002844886070BD00000038014081628285C8
:10243000C28500214164222180F84210016921B146
:102440000168CA6842F48072CA6001684A6942F051
:1024500001024A610068C16841F02001C1600020AA
:1024600070472DE9F843984617460D460446089EE6
:1024700024E0701C22D0FEF711FEA0EB0800B04251
:102480001AD8CEB12068C168490717D5802D15D05C
:10249000402D13D00168C94309070FD401680025F6
:1024A000406800902046FFF7DCFE0820606484F856
:1024B00040500120BDE8F8830320FBE72068006856
:1024C00035EA000004D00020B842D2D00020F1E765
:1024D0000120F9E70148FFF795BA000080030020CA
:1024E000FEE70907090E002804DB00F1E02080F870
:1024F0000014704700F00F0000F1E02080F8141D78
:10250000704702E008C8121F08C1002AFAD17047BC
:102510007047002001E001C1121F002AFBD1704763
:1025200008B5FEF7C9FDFFF7D5FDFFF71FFDFFF763
:10253000EFFCFFF7C5FCFFF727FDFFF757FDFFF79F
:1025400099FC1548FFF7BCF900243C23134A2146A7
:1025500013480094FEF7D8F9104A3C23A0321546E0
:1025600010210F480094FEF7CFF964220D490E4860
:10257000FEF7A6F8094901220E390C48FFF7EAFBDD
:102580004FF4FA74282229460448FFF74FFD2046ED
:10259000FEF776FCF6E7000038030020100000206C
:1025A0009C020020600100202802002080030020FF
:1025B00010B500220F4B114633F81140491C22443C
:1025C0006429F9DB6421B2FBF1F1282811D88AB221
:1025D0000949012801EB4003A3F89E2009D1A1F885
:1025E0001621A1F81421A1F81221A1F81021A1F8B7
:1025F0000E2110BD60010020100000200102020326
:102600000405060708090A0B0C0D0E0F1010000038
:102610000000000000000102030406070809000092
:10262000000001020304000048260008000000200A
:1026300060010000B4010008D426000860010020F9
:1026400068120000122500080110126412C8084C1C
:10265000132C019001F4015802BC0220038403E80A
:10266000034C04B00414057805DC054006A40608F4
:10267000076C07D00734089808FC086009C40928CB
:102680000A8C0AF00A540BB80B1C0C800CE40C48A2
:102690000DAC0D100E740ED80E3C0FA002013C12B2
:1026A0000A12161228123C124E125E126E127D127F
:1026B0009012A118108601E8039808E803EE02764C
:1026C000024E0264B60A27F5BA0150320182101395
:0426D000127A00007A
:0400000508000131BD
:00000001FF
