:020000040800F2
:10000000E00B0020490100085101000853010008DD
:1000100055010008570100085901000800000000C0
:100020000000000000000000000000005B0100086C
:100030005D010008000000005F0100086101000888
:100040006301000863010008630100086301000800
:1000500063010008630100086301000863010008F0
:100060006301000863010008630100083102000811
:1000700063010008630100086301000863010008D0
:1000800063010008630100086301000863010008C0
:1000900063010008630100086301000863010008B0
:1000A00063010008630100086301000863010008A0
:1000B0006301000863010008630100086301000890
:1000C0006301000863010008630100086301000880
:1000D00063010008C108000863010008630100080B
:1000E0006301000863010008630100086301000860
:1000F0006301000863010008630100086301000850
:10010000630100086301000863010008630100083F
:10011000630100086301000863010008630100082F
:10012000630100086301000863010008630100081F
:10013000DFF810D000F06AF800480047D50E00083C
:10014000AFF30080E00B00200648804706480047D8
:10015000FEE7FEE7FEE7FEE7FEE7FEE7FEE7FEE777
:10016000FEE7FEE761080008310100082DE9F05FB5
:100170000546002092469B46884606468146402416
:100180001BE0284641464746224600F02FF85346DA
:100190005A46C01A914110D311461846224600F023
:1001A00016F82D1A67EB01084F4622460120002160
:1001B00000F00DF817EB00094E41201EA4F10104D8
:1001C000DFDC484631462A464346BDE8F09F202AF8
:1001D00004DB203A00FA02F1002070479140C2F19E
:1001E000200320FA03F3194390407047202A04DBD0
:1001F000203A21FA02F00021704721FA02F3D040A0
:10020000C2F120029140084319467047064C074D41
:1002100006E0E06840F0010394E8070098471034D6
:10022000AC42F6D3FFF788FF081300082813000834
:100230000848006800F0020050B10120064908702B
:1002400000BF0448406840F002000249486000BF17
:1002500070470000000002400000002000BF77212E
:1002600000BF432200BF531E9BB21A1EFBD14B1E80
:100270009BB2191EF5D1431EDBB2181EEFD1704799
:1002800000BF40F2712100BF3F2200BF531E9BB24E
:100290001A1EFBD14B1E9BB2191EF5D1431EDBB2B9
:1002A000181EEED17047000010B500200F490860FD
:1002B0000F48006820F470400D4908600846006847
:1002C00040F44050086000200A49C1F8AC01022007
:1002D00000F0AAFD012005490860022000F0A4FDFD
:1002E00000200449C1F8A80110BD0000A8812142E6
:1002F000040C0140008021420C48806940F0080055
:100300000A4988610A48006820F47F40084908606B
:100310000846006840F44C50086005480830006802
:1003200040F4406002490831086070470010024004
:10033000040C014010B500200F4908600F48006808
:1003400020F470400D4908600846006840F44050B1
:10035000086001200A49C1F8AC01022000F064FDE8
:10036000012005490860022000F05EFD00200449DC
:10037000C1F8A80110BD0000A8812142040C014071
:100380000080214270B5054600241748006820F41B
:100390007040154908600846006840F40040086055
:1003A000002616E0002011490860022000F03CFD04
:1003B00001200F49C1F8A8016006040E0B487C38E3
:1003C000006808B1601CC4B2012000F02DFD701C53
:1003D000C6B2082EE6DB15B9FFF7ACFF01E0FFF768
:1003E00063FF204670BD0000040C0140A88121423B
:1003F0000080214270B504461548006820F4704022
:10040000134908600846006840F440500860002026
:1004100010490860002517E0E0090E49091D086031
:100420006006040E022000F0FFFC01200A49C1F81A
:10043000A801022000F0F8FC002006490860022014
:1004400000F0F2FC681CC5B2082DE5DB70BD0000B1
:10045000040C0140A88121420080214210B50F48C0
:10046000006820F470400D4908600846006840F4B8
:100470004050086001200A4908600A49C1F8A801F3
:10048000042000F0D1FC002005490860042000F0A1
:10049000CBFC00200349C1F8A80110BD040C0140A9
:1004A000AC8121420080214210B50F48006820F441
:1004B00070400D4908600846006840F440500860EC
:1004C00000200A4908600A49C1F8AC01042000F084
:1004D000ABFC0120054908600549C1F8AC010420C6
:1004E00000F0A2FC10BD0000040C0140A8812142D4
:1004F0000080214210B500241448006820F47040A8
:10050000124908600846006840F400400860012075
:100510000F49086000F088FC01200E49C1F8A801CD
:1005200000F082FC07E0601CC4B2FA2C03DDFFF788
:10053000BBFF012010BD0648803800680028F2D1BA
:100540000349091F086000BFF4E70000040C0140E4
:10055000AC8121420080214270B50546032000F0A5
:10056000A7F804464FF6F370044044EA8504214698
:10057000032000F0E5F870BD2DE9F047064600279E
:10058000B846032000F094F8044604F01F04C4F3B6
:10059000810804F003070FB90A2704E0012F01D1F5
:1005A000142700E00527B8F1000F02D142F2FC1534
:1005B00012E0B8F1010F02D0B8F1020F02D141F6FA
:1005C000B05509E0532000F073F8054605EB8500AF
:1005D0004FF6FF7101EA4005AE4201DABDE8F0874F
:1005E000701B90FBF7F01FFA80F9C9F3090944EA80
:1005F000891084B244F010042146032000F0A0F8D2
:10060000142000F007FC00BF0B2000F051F800F0B0
:1006100080000028F8D000BFE0E710B5FFF76CFEBF
:10062000002000F045F8044645F60500844203D05A
:1006300045F62000844237D10221084600F080F8B8
:10064000322000F0E7FB4CF20101022000F078F8C4
:100650004FF4167000F0DEFB48F64F01052000F065
:100660006FF84FF4F041072000F06AF808211320DA
:1006700000F066F84FF4A151152000F061F84FF436
:100680004041162000F05CF843F226111C2000F0D7
:1006900057F849F62441222000F052F84FF26061E9
:1006A000472000F04DF801E0012010BD0020FCE7DC
:1006B00070B50546FFF7D2FE2220FFF79BFEFFF73D
:1006C00019FF2846FFF796FEFFF714FFFFF7C6FE57
:1006D0002320FFF78FFEFFF70DFF0120FFF752FEEB
:1006E00004464FF6FF7000EA04240020FFF74AFE9C
:1006F0000443FFF7D9FE204670BD10B54020FFF738
:10070000D7FF04464FF6F07004402146402000F029
:1007100017F810BD10B50B20FFF7CAFF0446601292
:1007200010BD70B505460320FFF7C2FF04464FF623
:10073000FC7004402C432146032000F001F870BDFA
:1007400070B505460C46FFF789FE2220FFF752FEE2
:10075000FFF7D0FE2846FFF74DFEFFF7CBFE201235
:10076000FFF748FEFFF7C6FEE0B2FFF743FEFFF7D4
:10077000C1FEFFF799FE70BD10B500F001F810BD85
:100780000CB50020019000903348006840F48030A0
:100790003149086000BF3048006800F40030009024
:1007A0000198401C0190009818B90198B0F5A06F0D
:1007B000F1D12948006800F4003010B10120009008
:1007C00001E0002000900098012843D123480068F0
:1007D00040F01000214908600846006820F003003E
:1007E00008600846006840F0020008601A48406847
:1007F000194948600846406848600846406840F427
:10080000806048600846406820F47C1048600846D4
:10081000406840F4E81048600846006840F0807086
:10082000086000BF0C48006800F000700028F9D094
:100830000948406820F003000749486008464068BE
:1008400040F00200486000BF0348406800F00C0020
:100850000828F9D10CBD0000001002400020024021
:1008600010B51348006840F00100114908600846BF
:100870004068104908400E494860084600680E4923
:1008800008400B4908600846006820F48020086092
:100890000846406820F4FE0048604FF41F0088605E
:1008A000FFF76AFF4FF000600449086010BD0000C8
:1008B000001002400000FFF8FFFFF6FE08ED00E028
:1008C00010B51F48008800F0200020B31C48001D10
:1008D0000088C4B21B48008800F40040D8B9194809
:1008E000008800F4804070B10A2C03D00020154924
:1008F000088023E01348008840F400401149088034
:1009000000F024F81AE00D2C06D10E48008840F4BF
:1009100080400C49088011E00A480088C0F30D00AF
:1009200009490C5407480088401C064908800846BD
:100930000088B0F5FA6F01DB0020088010BD0000D0
:10094000003801400800002010000020704700001F
:100950000FB4054B10B503A9044A029800F018F82B
:1009600010BC5DF814FB0000710E000804000020AC
:1009700002E008C8121F08C1002AFAD17047704768
:10098000002001E001C1121F002AFBD170470000C6
:100990002DE9FF4F8DB00F460546002606E02528BD
:1009A0000BD0DDE90F1290476D1C761C28780028CB
:1009B000F5D111B03046BDE8F08F0024A246A14623
:1009C0000122E94900E0044315F8013F203B02FA07
:1009D00003F00842F7D128782A2810D06FF02F02B0
:1009E0002878A0F13001092914D80AEB8A0102EB1A
:1009F000410144F0020400EB010A6D1CF0E701CF55
:100A00005FEA000A03D544F40054CAF1000A44F036
:100A100002046D1C28782E2817D115F8010F44F018
:100A200004042A280ED06FF02F022878A0F130019C
:100A300009290AD809EB890102EB410100EB010900
:100A40006D1CF2E757F8049B6D1C28786C280FD0BA
:100A500006DC4C2817D068280DD06A2814D104E091
:100A6000742810D07A280FD10DE044F400140AE065
:100A700044F4801401E044F440146978814202D1C6
:100A800004F580146D1C6D1C28786E281ED00CDCBB
:100A9000632830D004DC00288BD0582811D19FE087
:100AA000642867D069280CD164E073282DD004DC59
:100AB0006F2872D0702804D194E075286ED0782801
:100AC0006DD0DDE90F129047761C4BE1C4F3025064
:100AD000022806D0032809D0042801CF09D00660D7
:100AE00040E101CFF117C0E900613BE101CF068091
:100AF00038E1067036E117F8040B8DF8000000208D
:100B00008DF80100EB46012003E057F804BB4FF0DD
:100B1000FF3061074FF0000102D40DE008F1010140
:100B2000884649450FDA8045F8DB1BF80810002994
:100B3000F4D108E008F1010188468142FADB1BF894
:100B400008100029F6D1DDE90F23AAEB0800814641
:100B5000214600F031F9304400EB080604E0DDE9FD
:100B60000F121BF8010B9047B8F10108F7D221468C
:100B70004846F2E00A21C4F302524FF0000B0891FC
:100B8000022A04D001CFC117032A09D00AE0FF1DB1
:100B900027F00707F7E8020108E02CE01EE01FE05D
:100BA00000B2C117042A01D140B2C117021E71F16F
:100BB000000206DA0023D0EB030063EB01012D22D3
:100BC00002E0220504D52B228DF82420012203E027
:100BD000E20701D02022F7E7904653E00A210BE01C
:100BE000102109E010214FF0000B44F004044FF0F5
:100BF0000809089103E008214FF0000B0891C4F3A5
:100C00000252022A04D001CF0021032A06D006E0B6
:100C1000FF1D27F00707F7E8020103E080B2042A6E
:100C200000D1C0B24FF0000822072BD52A78702AD5
:100C300007D0DDF820C08CF0100C5CEA0B0C05D05E
:100C40000EE040228DF82420012208E050EA010342
:100C500006D030238DF824308DF8252002229046CE
:100C6000089B83F0080353EA0B030BD150EA0102FF
:100C700001D1620706D530228DF824204FF00108FB
:100C8000A9F101092A78582A04D038A20B9208AA9F
:100C90000A920BE03AA2F9E75B46089AFFF766FA78
:100CA0000B9B9B5C0A9A521E0A92137050EA010237
:100CB000F2D10A98ADEB000000F1200B600702D5DD
:100CC00024F4803401E04FF00109D94502DDA9EB9D
:100CD0000B0000E0002000EB0B0141440890AAEB60
:100CE000010AE00306D4DDE90F232146504600F057
:100CF00063F806444FF0000908E009A911F809005B
:100D0000DDE90F12904709F10109761CC145F4DBBA
:100D1000E0030CD5DDE90F232146504600F04CF8E6
:100D2000064404E0DDE90F1230209047761C089954
:100D3000481E08900029F5DC08E00A980A99007816
:100D4000491C0A91DDE90F129047761CBBF10001A6
:100D5000ABF1010BF1DC21465046DDE90F2300F039
:100D600019F806446D1C21E60928010030313233A0
:100D700034353637383961626364656600000000D7
:100D800030313233343536373839414243444546C1
:100D9000000000002DE9F041044600251E461746DC
:100DA000880404D405E039462020B0476D1C641E39
:100DB000F9D52846BDE8F0812DE9F041044600252B
:100DC0001E469046C80301D5302700E0202788043E
:100DD00004D505E041463846B0476D1C641EF9D580
:100DE0002846BDE8F08100004FF0E021096941F09C
:100DF00004014FF0E02211610549086011460969BC
:100E000041F0010111616FF07041516170470000C4
:100E10000C00002010B504464FF47A7104FB01F079
:100E200000F002F810BD000070B5034600224FF03C
:100E3000E02675690D4E366803FB06F44FF0E02698
:100E4000B16910E04FF0E026B06988420BD08842CB
:100E500002D20E1A324402E02E1A0E4432440146E7
:100E6000A24200D300E0EDE700BF70BD0C000020FF
:100E700000BF054A128802F04002002AF9D0C2B22F
:100E8000014B1B1D1A807047003801402DE9F041CD
:100E900000240025002641F64C5741F6B05412E0DC
:100EA0002046FFF769FB1420FFF7B4FFFFF732FC81
:100EB00005460120FFF7AEFFB54201DD27462E466D
:100EC00004F1640084B242F21C508442E8DD3846EA
:100ED000BDE8F08100BF00240025092000F07AF968
:100EE0004820FFF781FF4FF4E131482000F0AAF9D4
:100EF0006420FFF7C5F900BFFFF78FFB0028FBD187
:100F000040F28A215320FFF71BFC40F27E4154201F
:100F1000FFF716FC0320FFF71FFB0020FFF701FC83
:100F2000FFF7EBFB2046FFF727FB41F64C54FFF79A
:100F3000ADFF04462046FFF71FFB642094FBF0F052
:100F4000C0B2A0F14B0631460FA0FFF701FD1AE039
:100F5000FFF7E0FB05463220FFF75CFF502D12DA69
:100F6000FFF794FF04462046FFF706FB642094FB3E
:100F7000F0F0C0B2A0F14B06314603A0FFF7E8FC49
:100F8000E820FFF76BF9E3E72563000010B50246A0
:100F900000210020264B1B6843F48033244C23603F
:100FA0000AE000BF224B1B6803F400331BB1B1F50C
:100FB000004F00D904E0491C4FF6F0739942F0D37A
:100FC00000BF4FF6F073994201D301202FE04FF498
:100FD0008063174C6360921E23465B6843EA82433A
:100FE000636023465B6843F4803363601023114CD5
:100FF000236023461B6843F0020323600C4B1B68ED
:1010000043F080730A4C236000BF094B1B685B0EE2
:10101000002BFAD0064B5B6843F00203044C63607C
:1010200000BF034B5B68C3F38103022BF9D110BDF2
:1010300000100240002002402DE9F04F0E461D46F0
:10104000DDE909C4002100278846002300BF64E0D1
:101050004FF0010909FA01F706EA0708B8455BD124
:101060000023012A01D0022A0AD10CF0030305F063
:10107000010943EA8903A2F1010943EAC90318E01F
:10108000BAB90CB9042314E00823D0F80C904FF03F
:10109000010A0AFA01FA29EA0A09C0F80C90D0F804
:1010A0000CA004F0010909FA01F94AEA090AC0F89A
:1010B0000CA0072916D8D0F800904FEA810B4FF00A
:1010C0000F0A0AFA0BFA29EA0A09C0F80090D0F8C8
:1010D00000904FEA810A03FA0AFA49EA0A09C0F8BD
:1010E000009019E0D0F80490A1F1080A4FEA8A0BA9
:1010F0004FF00F0A0AFA0BFA29EA0A09C0F804901D
:10110000D0F80490A1F1080A4FEA8A0A03FA0AFA11
:1011100049EA0A09C0F80490491C102998D3BDE88F
:10112000F08F00002DE9F0410746884614461D4621
:10113000284600F033F8C5F1040007FA00F60F2046
:10114000284100EA0800064306F00F06E21704EB08
:10115000D2625211920002F1E022D2F8002121461F
:10116000E31704EBD3635B11A4EB431C012303FAE5
:101170000CF31A432046E31704EBD3635B119B0087
:1011800003F1E023C3F800210348005D40EA0610A4
:1011900001490855BDE8F08100E400E0014607235D
:1011A00023EA01021202054B18684FF6FF031840AC
:1011B000034B18431043014B186070470CED00E0DF
:1011C0000000FA054A0A52020243014B1A607047B6
:1011D00008ED00E010B50446002017490861C8601A
:1011E0001420486100208861C8610846006840F00A
:1011F0000100086008464068104908400E494860F0
:10120000084600680E4908400B4908600846006817
:1012100020F4802008600846406820F4FE00486002
:101220004FF41F0088602046FFF7B0FE00214FF00A
:101230000060FFF7C7FF10BD001002400000FFF87C
:10124000FFFFF6FE7CB506460C4600BF2A488069C3
:1012500040F004002849886100BF00BF084680694B
:1012600040F00400886100BF00BF0846806940F478
:101270008040886100BF0120032100230222CDE9C4
:10128000001041021D48FFF7D7FE01200321002373
:101290001A46CDE9001081021848FFF7CDFE184824
:1012A000704300EB5400B0FBF4F516490D800020AC
:1012B000091D08800846008808800846008840F01C
:1012C000080008800846008840F0040008800846AE
:1012D000008840F0200008800223252203210846D0
:1012E000FFF720FF0748001D008840F40050054923
:1012F000091D08807CBD000000100240000801406C
:1013000040420F0008380140281300080000002068
:1013100010000000700900083813000810000020B9
:10132000D00B000080090008000000000000000051
:081330000000000000000000B5
:0400000508000131BD
:00000001FF
