:020000040800F2
:1000000070060020CD010008930D0008510C000877
:10001000910D000845040008010E000800000000D2
:10002000000000000000000000000000970D000824
:100030004704000800000000950D0008990D000815
:10004000E7010008E7010008E7010008E7010008F0
:10005000E7010008E7010008E7010008E7010008E0
:10006000E7010008E7010008E7010008E7010008D0
:10007000E7010008E7010008E7010008E7010008C0
:10008000E7010008E7010008E7010008E7010008B0
:10009000E7010008E7010008E7010008E7010008A0
:1000A000E7010008E7010008E7010008E701000890
:1000B000E7010008E7010008E7010008E701000880
:1000C000E7010008E7010008E7010008E701000870
:1000D000E7010008E7010008E7010008E701000860
:1000E000E7010008E7010008E7010008E701000850
:1000F000E7010008E7010008E7010008E701000840
:10010000E7010008E7010008E7010008E70100082F
:10011000E7010008E7010008E7010008E70100081F
:10012000E7010008E7010008E7010008E70100080F
:1001300000F002F800F03AF80AA090E8000C8244BF
:100140008344AAF10107DA4501D100F02FF8AFF29C
:10015000090EBAE80F0013F0010F18BFFB1A43F0A5
:100160000103184788100000A8100000103A24BFAF
:1001700078C878C1FAD8520724BF30C830C144BF0C
:1001800004680C607047000000230024002500264E
:10019000103A28BF78C1FBD8520728BF30C148BFEA
:1001A0000B6070471FB51FBD10B510BD00F058F8AB
:1001B0001146FFF7F7FF00F0B5FE00F076F803B444
:1001C000FFF7F2FF03BC00F07DF80000094880470C
:1001D00009480047FEE7FEE7FEE7FEE7FEE7FEE729
:1001E000FEE7FEE7FEE7FEE704480549054A064B41
:1001F00070470000FF0D000831010008700000206A
:100200007006002070020020700200204FF00002F3
:1002100000B5134694469646203922BFA0E80C50FC
:10022000A0E80C50B1F12001BFF4F7AF090728BFD7
:10023000A0E80C5048BF0CC05DF804EB890028BF53
:1002400040F8042B08BF704748BF20F8022B11F07C
:10025000804F18BF00F8012B7047704770477047F8
:10026000754600F02BF8AE4605006946534620F06F
:100270000700854618B020B5FFF7B6FFBDE820405F
:100280004FF000064FF000074FF000084FF0000B52
:1002900021F00701AC46ACE8C009ACE8C009ACE805
:1002A000C009ACE8C0098D46704710B50446AFF3ED
:1002B00000802046BDE81040FFF781BF004870472E
:1002C0001000002001491820ABBEFEE72600020006
:1002D0007047000010B5284C01224021204600F054
:1002E000C1F900222021204600F0BCF9002208219B
:1002F000204600F0B7F900226115204800F0B2F95D
:1003000000220121204600F0ADF900220221204602
:1003100000F0A8F900220421204600F0A3F9184CAF
:1003200000220121204600F09DF9002261141548A9
:1003300000F098F900220421204600F093F90022F1
:100340000221204600F08EF900221021204600F004
:1003500089F9062000F078F801221021204600F0EB
:1003600081F9642000F070F820460022BDE81040BA
:10037000102100F077B9000000180140000C014086
:10038000001C0140001001403EB505460FA00C4680
:10039000006801900EA000230068029002AA0321C9
:1003A000012000F043FD0321002301AA084600F0CC
:1003B0003DFD6A462846214600F024FD0421012324
:1003C0006A46084600F032FD3EBD000000233500BD
:1003D000D000000008B505A00023006800906A4620
:1003E0000121184600F022FD08BD000010000000A9
:1003F00008B505A00023006800906A460121184650
:1004000000F014FD08BD00002000000008B505A0A4
:100410000023006800906A460121184600F006FD9E
:1004200008BD00004000000008B505A000230068DA
:1004300000906A460121184600F0F8FC08BD000053
:1004400080000000FEE7704770B5044600F010F928
:100450000546601C02D004480078044400F008F906
:10046000401BA042FAD370BD000000202DE9F84FD8
:10047000DFF8C8910024A9F1040B23460F2709F1E6
:10048000040AABF1040ED1E00125A54006EA0502FD
:10049000AA4276D1DFF8A8C14E68A6EB0C086645E3
:1004A0002BD00DDC032E34D005DC36B3012E19D051
:1004B000022E2FD11BE0112E16D0122E2AD119E0B8
:1004C000B8F5881F19D006DCB8F5803F15D0B8F50F
:1004D000801F1FD111E0B8F5001F0ED0B8F5041F22
:1004E00018D10AE0CB6815E0CB681B1D12E0CB6881
:1004F00008330FE0CB680C330CE08B682BB1012B79
:100500004FF0080303D0456104E0042302E00561D5
:1005100000E00023FF2A01D8064601E000F10406AE
:100520004FEA840501D9A5F12005D6F8008007FA25
:1005300005FC28EA0C0803FA05F548EA0508C6F8A0
:1005400000804D68ED0070D53E4DAE6946F0010665
:10055000AE61AD6924F0030605F0010500953A4D42
:1005600006EB050CDCF80850A607360F07FA06F86C
:1005700025EA0805DFF8D480404503D14FF0000894
:1005800025E052E0DFF8C880404502D14FF0010875
:100590001DE0DFF8C080404502D14FF0020816E0B0
:1005A000DFF8B480404502D14FF003080FE0DFF8D8
:1005B000AC80404502D14FF0040808E0DFF8A0808D
:1005C000404502D14FF0050801E04FF0060808FA57
:1005D00006F848EA0508CCF808804D68D9F80060AC
:1005E000ED024D4601D5164300E096432E604D685E
:1005F000DAF80060AD02554601D5164300E0964397
:100600002E604D68DBF80060AD035D4601D51643F2
:1006100000E096432E604D68DEF80060ED037546FD
:1006200001D5164300E096432E60641C0A68164606
:10063000E2407FF429AFBDE8F88F000008040140D4
:1006400000001110001002400000014000080140AD
:10065000000C01400010014000140140001801404E
:10066000001C01400AB1016170470904FBE700006A
:10067000014880687047000000000020024881683F
:10068000027811448160704700000020074810B5CF
:10069000016841F010010160032000F067F80F20AD
:1006A00000F006F800F024F8002010BD0020024001
:1006B00070B50D4D04464FF47A712878B1FBF0F017
:1006C0000A490968B1FBF0F000F0AEFA48B9102C05
:1006D00007D200222146501E00F028F800206C604E
:1006E00070BD012070BD0000000000200C00002043
:1006F0000C4808B5816941F001018161816901F00F
:1007000001010091C16941F08051C161C06900F0EF
:10071000805000900448416821F0E06141F0007190
:10072000416008BD0010024000000140F0B40E4BD3
:100730001B680C46C3F30223C3F10705042D00D93F
:100740000425191D072901D2002300E0DB1E012624
:1007500006FA05F1491E214099409E40761E16403A
:100760003143F0BC00F0CEBB0CED00E0064900F0D8
:10077000070208684FF6FF03184040EA0220034AC8
:1007800010430860704700000CED00E00000FA051F
:100790002DE9F0470F46050061D0434E306800F068
:1007A0000700B84209D2306820F0070038433060B3
:1007B000306800F00700B84251D128683B4C8107EF
:1007C00012D5400703D5606840F4E0606060287887
:1007D000000703D5606840F4605060606068A968F5
:1007E00020F0F000084360602878C00728D06868CF
:1007F000012810D02168022810D0890700292EDA9C
:10080000616821F0030101436160FFF731FF804619
:1008100041F288390DE021688903EFE78901EDE7AE
:10082000FFF726FFA0EB0801494502D90320BDE8E8
:10083000F0876068696800F00C00B0EB810FEFD1C1
:10084000306800F00700B8420BD9306820F007008C
:1008500038433060306800F00700B84201D0012012
:10086000E5E72878400705D56068E96820F4E0608E
:10087000084360602878000706D56068296920F47D
:10088000605040EAC100606000F018F86168084AF2
:10089000C1F30311515CC84006490860064800686E
:1008A000FFF706FF0020C2E70020024000100240D0
:1008B000DA1100080C000020040000200E4A5168E4
:1008C0000E4801F00C03042B11D0082B0FD10C485B
:1008D000C1F38343C903C05C0AD55168084AC1F318
:1008E0004041921E515C054A5043B0FBF1F0704705
:1008F00004494843704700000010024000127A008B
:10090000CA11000800093D002DE9F84F040070D01D
:100910002078C04DC00749D06868C0F38100012825
:1009200007D06868C0F38100022809D16868C00355
:1009300006D52868800339D560680028E7D035E0FF
:100940006068B0F5803F0BD010B1B0F5A02F11D08A
:10095000286820F480302860286820F4802002E095
:10096000286840F480302860606890B1FFF780FE0E
:1009700006460AE0286840F480202860F0E700BFBF
:10098000FFF776FE801B642873D828688003F7D5AC
:100990000CE0FFF76DFE064605E000BFFFF768FEBE
:1009A000801B6428F0D828688003F7D420789A4EFA
:1009B00080074FF001094FF0000839D5686810F042
:1009C0000C0F07D06868C0F38100022809D168685D
:1009D000C00306D42868800714D52069012808D1EF
:1009E00010E02069B0B1C6F80090FFF741FE07465D
:1009F00005E00AE1FFF73CFEC01B0228C4D82868C6
:100A00008007F7D52868616920F0F80040EAC10046
:100A100028600DE0C6F80080FFF72AFE074604E0D4
:100A2000FFF726FEC01B022823D828688007F7D4CA
:100A3000207800072CD57948A169D9B1C0F8009079
:100A4000FFF716FE074604E0FFF712FEC01B022860
:100A50000FD8686A8007F7D571484FF4FA510068DB
:100A6000B0FBF1F0009000BF0098411E0091FAD257
:100A70000EE080E0C0F80080FFF7FAFD074604E0D2
:100A8000FFF7F6FDC01B022875D8686A8007F7D407
:100A90002078400760D5E8690027C00008D4E869DD
:100AA00040F08050E861E869012700F08050009034
:100AB0005C480168C90513D40168834641F480711C
:100AC0000160FFF7D5FD824606E000BFFFF7D0FDCD
:100AD000A0EB0A0064284ED8DBF80000C005F5D56D
:100AE000E06801280AD008B1052813D0286A20F050
:100AF00001002862286A20F0040002E0286A40F021
:100B000001002862E06841F2883B98B1FFF7B0FD30
:100B100082460BE0286A40F004002862EEE700BF3E
:100B2000FFF7A6FDA0EB0A0159455AD8286A8007AD
:100B3000F6D50CE0FFF79CFD824605E0FFF798FD37
:100B4000A0EB0A0159454CD8286A8007F6D41FB19A
:100B5000E86920F08050E861E06988B36968C1F312
:100B60008101022944D00228C6F8608004D0FFF732
:100B70007FFD044638E034E0FFF77AFD074604E0E5
:100B8000FFF776FDC01B02282BD828688001F7D418
:100B9000206AB0F5803F05D16868A16820F4003074
:100BA00008436860D4E908010843696821F47411B6
:100BB00008436860C6F86090FFF75AFD044606E0F7
:100BC00025E000BFFFF754FD001B022809D8286864
:100BD0008001F7D51BE000BFFFF74AFD001B02288C
:100BE00002D90320BDE8F88F28688001F4D40EE014
:100BF0000128F7D06868226A00F48031914204D15C
:100C0000616A00F47010884201D00120EAE70020F8
:100C1000E8E7000000100240000042428004424227
:100C20000C0000200070004010B5401EB0F1807F25
:100C300001D3012010BD4FF0E02460610F21601747
:100C400000F060F90020A06107202061002010BDA5
:100C5000FEE7000010B50C4C002208212046FFF7EB
:100C600001FD0C20FFF7F0FB012208212046FFF7D1
:100C7000F9FC1820FFF7E8FB20460022BDE81040F1
:100C80000821FFF7EFBC0000001801402DE9F04FEC
:100C900085B0002000900190029003903748816950
:100CA00041F040018161816901F040010491816955
:100CB00041F010018161816901F0100104918169A5
:100CC00041F080018161816901F0800104918169B5
:100CD00041F004018161816901F00401049181699D
:100CE00041F0080181618069DFF8948000F008001C
:100CF000049000227F214046FFF7B4FCDFF8849087
:100D00004FF40056002231464846FFF7ABFCDFF8AF
:100D100078A000221F215046FFF7A4FCDFF86CB03A
:100D20003711002239465846FFF79CFC01247F20EA
:100D3000CDE90004032569464046CDE90245FFF7A9
:100D400095FBCDE9006469464846CDE90245FFF7C9
:100D50008DFB1F20CDE9000469465046CDE90245D0
:100D6000FFF784FBCDE9007469465846CDE902459A
:100D7000FFF77CFB05B0BDE8F08F000000100240DB
:100D80000018014000100140001C0140000C01400F
:100D9000FEE7FEE770477047FFF770BC30B58FB0D5
:100DA00028216846FFF732FA14210AA8FFF72EFA25
:100DB00001210804CDE900100024029402250491C9
:100DC000CDE907504FF4E01009906846FFF79CFD0D
:100DD00008B172B6FEE70F20CDE90A054FF4806036
:100DE000CDE90C404FF4A0600E9002210AA8FFF755
:100DF000CFFC002801D072B6FEE70FB030BD7047BF
:100E0000FEE7000010B51446064A074B00F0DEF876
:100E100000F0ACF8010E2170010C6170010AA170A4
:100E2000E07010BD95D626E80B2E21402DE9F05F2D
:100E3000324C93468846054600279A463A4620217A
:100E40002046FFF70FFC002240212046FFF70AFC56
:100E50002B4E002220212046FFF704FC280601D556
:100E6000012200E0002201213046FFF7FBFB0122B6
:100E700020212046FFF7F6FB68067F1C050EFFB217
:100E8000082FE6D3002220212046FFF7EBFB0025A8
:100E9000B146274623E000BF1BF80560002400226E
:100EA00020213846FFF7DEFB300601D5012200E0A5
:100EB000002201214846FFF7D5FB012220213846B8
:100EC000FFF7D0FB7006641C060EE4B2082CE6D3D4
:100ED000002220213846FFF7C5FB6D1CEDB24545C9
:100EE000DAD3BAF1010F01D1FFF7B4FE3846BDE8FD
:100EF000F05F01224021FFF7B5BB00000018014060
:100F0000001C01400907090E002804DB00F1E02065
:100F100080F80014704700F00F0000F1E02080F826
:100F2000141D7047FFF7B2FBFFF738FFFFF7AEFE67
:100F3000FFF7D0F9FFF74EFA0B4C00202146FFF7E0
:100F400023FAFFF755FA00202146FFF71DFAFFF7B5
:100F50005DFA00202146FFF717FAFFF765FA002037
:100F60002146FFF711FAFEE780842E414FEA410344
:100F70004FEA5353A3F58063D3F11E03C8BFD3F1E7
:100F8000210C0CDD4FF0004242EAC12242EA5052ED
:100F900032FA03FC8CEAE17CACEBE1707047102B79
:100FA000C4BF0020704703F5787CBCF1FF3F04D03C
:100FB0006FF0004282EA2100704770B500F0B0F88F
:100FC0004992248000207047F2E70000DFF848C112
:100FD00070B51CEA111E1EBF1CEA13159EEA0C0F09
:100FE00095EA0C0F00F06F8081EA030423EA4C13AA
:100FF0004EEAD47E21EA4C1141F4801143F480136F
:10100000AE44A1FB024CA0FB0365AEF17F7E361916
:1010100055EB0C05A1FB034C4CF10003A0FB021C9B
:1010200016EB0C06654153F10003094218BF46F068
:10103000010613F4007F0BD14FEA03314FEA05306C
:10104000340341EA155140EA16506FF003020AE0FA
:101050004FEAC3214FEAC520F40241EA555140EA64
:1010600056506FF0020202EB2E4201EB025585EA68
:10107000CE710AD05FEA440C18BF24F0004450F14E
:10108000000041F1000120EAD47040F2FE7C62458C
:1010900000D270BDA84214BF4FF080444FF04044CE
:1010A000002E08BF0024BEF1806FA8BFA1F1C0418F
:1010B000BDE8704080F282804FF0000001F1C04135
:1010C00001F0004170479EEA0C0F0CEA131518BF9F
:1010D00095EA0C0F06D04FF0000081EA030E0EF0E7
:1010E000004170BD00F01CF88900013E00F007B817
:1010F00000F009B84FEA430C5FEA5C5C08D081EA73
:10110000030100F05BB84FEA410C5FEA5C5CF6D18A
:101110004FF00000014970470000FF070000F87F12
:101120000EF1020E2EF0030E5EF8046B364205D46B
:10113000012A43EB030515F5001F12D8012841EBE6
:10114000010C1CF5001F0CD80ED14FEAD17C15F50F
:10115000001F0CEB4C0C0CF1020C08BF4CEBD37CC9
:1011600004E04FF0080C01E04FEAD37C0CEB4C0597
:1011700026FA05F606F00706B6F1040C06D20EEBC9
:10118000860CBDE870404CF0010C6047DFE80CF0C5
:10119000090B02024FF000414FF00000A1F50021C1
:1011A00070BD19461046012851EB010418BFD4F553
:1011B000001484BF002001F0004170BD0808A0F5B4
:1011C00000114FEA310170470102020304050607CE
:1011D00008090A0B0C0D0E0F101000000000000093
:1011E0000000010203040607080900000C120008B1
:1011F00000000020100000006C0100081C12000814
:1012000010000020600600008801000801000000B6
:0C121000100000000000000000127A0036
:0400000508000131BD
:00000001FF
