:020000040800F2
:10000000A062002049010008FF3B0008C938000831
:10001000FD3B0008791D0008294000080000000091
:10002000000000000000000000000000033C000889
:100030000F1E000800000000013C0008053C0008FD
:100040006301000863010008630100086301000800
:1000500063010008630100086301000863010008F0
:10006000630100086301000863010008CD1D00085A
:1000700063010008630100086301000863010008D0
:1000800063010008630100086301000863010008C0
:1000900063010008630100086301000863010008B0
:1000A00063010008630100086301000863010008A0
:1000B0006301000863010008630100086301000890
:1000C0006301000863010008630100086301000880
:1000D000630100081D400008630100086301000877
:1000E0006301000863010008630100086301000860
:1000F000893C0008630100086301000863010008EF
:10010000630100086301000863010008630100083F
:10011000630100086301000863010008630100082F
:10012000630100086301000863010008D91D00088D
:10013000DFF810D000F022FD004800479D61000864
:10014000AFF30080A06200200648804706480047C1
:10015000FEE7FEE7FEE7FEE7FEE7FEE7FEE7FEE777
:10016000FEE7FEE7873C000831010008202A04DB97
:10017000203A21FA02F00021704721FA02F3D04020
:10018000C2F120029140084319467047D2B201E003
:1001900000F8012B491EFBD270470022F6E710B58C
:1001A00013460A4604461946FFF7F0FF204610BDE5
:1001B000F0B480EA0102D40F4200B2EB410F02D248
:1001C0000246084611464A0042D0C30DDDB2C1F3D3
:1001D000C752AD1A202D35DAC1F3160141F40002E1
:1001E00004B15242C5F1200602FA06F12A41104438
:1001F000B3EBD05F23D0C4B1012DA0EBC35009DC19
:10020000F0BC4FF0004202EAC352DBB200F500003E
:1002100000F045BB400000F1807000EBC350A0F13E
:10022000807040EAD170490009E0490841EAC07194
:10023000A0EBC35000F50000400800EBC350F0BC39
:1002400000F024BB6142012202EB4101001BF6E7F2
:10025000F0BC704781F00041AAE780F00040A7E7BA
:1002600080EA010210B502F00043400022D04A00AB
:100270001FD0010E01EB1261C0F35600C2F356020B
:1002800040F4000042F40002A0FB022000047F3989
:10029000140400D0401C50EA124001D44000491E12
:1002A000C2B20C0604EBD010401C4008802A02D0D9
:1002B00003E0002010BD20F00100002900DA00203A
:1002C000184310BD30B480EA010202F0004530F05E
:1002D000004221F0004013D090B1C30DD40DC2F301
:1002E0001601C0F31600E41A41F4000140F40002C4
:1002F0007D34914201D3641C00E04900002C02DAF5
:1003000030BC002070474FF400000023914201D31D
:10031000891A034340084FEA4101F7D151B1914294
:1003200002D14FF0004105E002D24FF0010101E09F
:100330006FF0010103EBC450284430BC00F0A6BAB2
:10034000420005D0C0F3C7525242914201DC002066
:10035000704700EBC15070472DE9FE4F804681EA9F
:100360000300C00F0C46009021F0004123F000452F
:10037000B8EB0200A94105D24046214690461C46F2
:100380000B46024623F00040104347D0270DC7F329
:100390000A00C3F30A510290401A019040286BDA18
:1003A000C3F3130040F4801B0098924620B1002351
:1003B000D2EB030A63EB0B0B01985946C0F14002E4
:1003C000504600F042FA06460D4650465946019AFC
:1003D00000F04AFA10EB08006141002487EA11524C
:1003E00084EAE7731A4340D0009A62B3019A012A63
:1003F0004FEA075215DC001B61EB02014FF000428F
:1004000002EA0752CDE90042001C41F58011324654
:100410002B4600F0B0FA03B0BDE8F08F404621460D
:10042000F9E7001B61EB0201001C41F58013001885
:100430005B412018A2F5001747EB030140EAD57095
:10044000B6196D4111E06D084FEA360645EAC075F0
:100450004FEA0752001B61EB0201001C41F58011BD
:1004600049084FEA30000019514132462B4603B08B
:10047000BDE8F04F00F070BA009801224000002360
:10048000D0EB020263EBE073009821464FEAE07480
:10049000B8EB000061EB0401E9E783F000435BE7A0
:1004A00081F0004158E72DE9FE4F81EA030404F092
:1004B000004421F0004100944FF0000B23F0004372
:1004C00050EA01045ED052EA03045BD0C3F30A543D
:1004D000C1F30A552C44A4F2F3340194A0FB025456
:1004E000C1F3130141F48011C3F3130343F48013E8
:1004F00001FB024400FB034E840A970A44EA81543C
:1005000047EA8357A4FB076802958D0A05FB078518
:100510004FEA932C04FB0C542705029D4FEA065822
:1005200047EA1637B5EB08056EEB070C870E920EFF
:1005300047EA811742EA8312A7FB0201B6EB0B01DF
:1005400064EB00042B0D43EA0C335E1844EB1C50A3
:10055000DA465146E7FB0201C5F313044FEA0B33B9
:1005600043EA14534FEA0432019C43EA0603A4F120
:100570000C040294009CCDE900B400F0FCF903B037
:10058000BDE8F08F00200146F9E72DE9F04D81EA42
:10059000030404F0004B21F0004514464FF0000A1C
:1005A00023F0004150EA050220D054EA01021DD098
:1005B000C5F30A570246C5F31303C1F31300C1F391
:1005C0000A5640F4801543F48013A7EB0608101B6D
:1005D000D64608F2FD3873EB050002D308F1010896
:1005E00001E092185B41B8F1000F03DA00200146E8
:1005F000BDE8F08D00204FF48011064684460EE0E1
:10060000171B73EB050705D3121B63EB05030643AA
:100610004CEA010C49084FEA300092185B4150EA5D
:100620000107EDD152EA030012D082EA040083EA06
:100630000501084305D0101BAB4106D2012200235F
:1006400006E000224FF0004302E06FF00102531079
:100650001AEB06004CEB085110EB0A0041EB0B01C2
:10066000BDE8F04D00F078B9C10F80EAE0700844B1
:10067000CA079623002100F012B9962300221146E2
:1006800000F00DB90EB540F2334102910021CDE9E1
:1006900000110A460B4600F06EF903B000BD20F0D1
:1006A0000040C10DC0F3160040F400007F2901DABC
:1006B00000207047962903DCC1F19601C8407047BD
:1006C00096398840704770B5C1F30A5201F0004571
:1006D0000024C1F3130140F2FF3341F480119A4228
:1006E00001DA002070BD40F233439A42A2F2334255
:1006F00003DC5242FFF73AFD00E090402C43F1D07A
:10070000404270BDC1F30A5210B5C1F3130140F26B
:10071000FF3341F480119A4201DA002010BD40F20B
:1007200033439A42A2F2334203DC5242FFF71EFDEA
:1007300010BD904010BD00F0004230F000400AD0E3
:10074000C10D01F56071C0F3160042EA0151C20803
:1007500040071143704700200146704701F00043F5
:1007600030B421F0004150EA010206D00A0DA2F592
:100770006072C1F31301002A02DC30BC0020704714
:10078000440F44EAC104C100E01830BC00EBC25081
:1007900000F07CB8002801DBC0F10040002901DB3B
:1007A000C1F1004181427047002801DBC0F10040E7
:1007B000002901DBC1F100418842704730B50B468A
:1007C000014600202022012409E021FA02F59D4281
:1007D00005D303FA02F5491B04FA02F52844151E55
:1007E000A2F10102F1DC30BD2DE9F05F05460020E9
:1007F00092469B4688460646814640241BE0284692
:10080000414647462246FFF7B1FC53465A46C01AB6
:10081000914110D311461846224600F016F82D1AC1
:1008200067EB01084F4622460120002100F00DF839
:1008300017EB00094E41201EA4F10104DFDC4846FD
:1008400031462A464346BDE8F09F202A04DB203A81
:1008500000FA02F1002070479140C2F1200320FA13
:1008600003F3194390407047202A06DBCB17203A48
:1008700041FA02F043EAE07306E041FA02F3D040A5
:10088000C2F1200291400843194670470029A8BFD1
:100890007047401C490008BF20F00100704710B4A9
:1008A000B0FA80FC00FA0CF050EA010404BF10BC5E
:1008B000704749B1CCF1200421FA04F411FA0CF18B
:1008C00018BF012121430843A3EB0C01CB1D4FEAC4
:1008D00000614FEA102042BF002010BC704700EBBF
:1008E000C35010440029A4BF10BC7047401C4900ED
:1008F00008BF20F0010010BC7047F0B4002802DCF3
:10090000F0BC00207047C0F3C751C0F3160040F49C
:100910000000CA0701D14000491E3F2202EB6105D9
:10092000002211464FF4000626FA01F31344D418AE
:10093000844201D8001B1A464000491C1729F3DDE8
:100940005100814202D24FF0FF3100E0002102EB62
:10095000C550F0BCFFF79ABF10B5141E73F1000428
:1009600008DA401C41F1000192185B411A4301D1A1
:1009700020F0010010BD2DE9F04D92469B4611B1CB
:10098000B1FA81F202E0B0FA80F220329046FFF72D
:100990005CFF04460F4640EA0A0041EA0B01534659
:1009A0005A46084313D0114653EA010019D0C8F142
:1009B00040025046FFF7DAFB05460E4650465946C0
:1009C0004246FFF742FF084305D0012004E02046DD
:1009D0003946BDE8F08D0020054346EAE0762C4319
:1009E00037430A986305E40AA0EB08000022FD0AD9
:1009F00044EA47540A3002D500200146E9E70105E0
:100A000010196941DDE9084500196941BDE8F04D5B
:100A1000A2E770B521F0004303430CD0C1F30A559F
:100A20000024D5EB040564EB0403D617AD1AB341DB
:100A300002DB0020014670BD201841EB025170BD61
:100A40002DE9F041054621F000400C46284309D02D
:100A5000C4F30A5040F23341884205DD284621465E
:100A6000BDE8F0812846FBE740F2FE31884210DC09
:100A70000CDB4FEA043040EA155050EA053105D04E
:100A8000104804F0004101430020E9E7002001463E
:100A9000E6E7A0F233404642C6F14002284621462E
:100AA000FFF7D3FE07468846284621463246FFF721
:100AB0005DFB43463A46FFF74FFF3246BDE8F04143
:100AC000FFF7C3BE0000F03F0EB5C10F80EAE07033
:100AD0000844CA07002140F233438DE80E000A465D
:100AE0000B46FFF748FF03B000BDC1F30A52C1F344
:100AF000130140F2FF3341F480119A4202DA0020E0
:100B00000146704740F233439A42A2F2334202DC7C
:100B10005242FFF72BBBFFF798BE000030B5041E12
:100B200071F1000404DB4FF00044404264EB01012A
:100B3000141E73F1000405DB1C464FF000435242C3
:100B400063EB04038B4208BF824230BD30B5041E04
:100B500071F1000404DB4FF00044404264EB0101FA
:100B6000141E73F1000405DB1C464FF00043524293
:100B700063EB0403994208BF904230BD064C074D19
:100B800006E0E06840F0010394E80700984710345D
:100B9000AC42F6D3FFF7D0FA00F6000820F60008C2
:100BA0002DE9F04D00231A461B1A8A4103DB002071
:100BB0000146BDE8F08DC1F30A52C1F3130141F4BF
:100BC00080154FF0000BD10702D100186D41521E65
:100BD0000027044640F2FF11384601EB620A3E4608
:100BE0008046024600204FF48011FFF7BFFAC21979
:100BF0007141BB1846EB0100B4EB030C75EB000C24
:100C000004D3E41A65EB000517460E46241908F1D3
:100C100001006D4180463428E3DDF91946EB0600FA
:100C2000091BA84103D24FF0FF32134601E0002216
:100C300013461BEB070046EB0A51BDE8F04DFFF7EA
:100C40008BBE00002DE9F04F81B001266FF001044A
:100C50004FEA510E06EB510704EB51084FEA4209E7
:100C600000240025009700BFAEB2B4424FEA44050D
:100C70002BD250F8361050F82570F20040F82510AD
:100C800045F00101043240F83670875850F821A031
:100C900040F8217040F802A0009AA118324450F8A0
:100CA00031B050F832704FEAC10A4FEAC20C40F836
:100CB000317040F832B00AF104010CF10402875897
:100CC00050F801C0475040F802C006EB0E0100EB9F
:100CD000850650F83170D6E9025A4FEAC10CB76068
:100CE0000CF1040740F83150A11CC2591D888CB288
:100CF00044454B44F26040F807A0B5D901B0BDE8C7
:100D0000F08F70B582B00446807825886268A38928
:100D100001280E4608D1D4F810C030462946CDF837
:100D200000C000F0C1FB03E03046294600F0C4F8E3
:100D3000E07801281CBF02B070BD2188E289A36859
:100D4000304602B0BDE87040FFF77CBF47F2006C50
:100D5000827046F60062C0F6000CC370C0F6000256
:100D6000FF294FF0FF030180C0F804C00DDDB1F58D
:100D7000807F13D0B1F5805F15D0B1F5806F21D1A0
:100D800006324FF06A51042317E010290FD0402992
:100D900018D17E324FF0725140230EE01E324FF0D8
:100DA0006E51102309E04FF06651012305E002F572
:100DB000FF724FF076514FF480738381C38100231B
:100DC0008260016158B270472DE9F04381B00C4652
:100DD00000219046B1EB920F054650D04FEA98099A
:100DE000D5E900070146FFF73BFA06463846394683
:100DF000FFF736FA01463046FFF7DAF905F074FFDF
:100E00002060D5E902060146FFF72AFA0746304678
:100E10003146FFF725FA01463846FFF7C9F905F0D4
:100E200063FF6060D5E904060146FFF719FA07463B
:100E300030463146FFF714FA01463846FFF7B8F955
:100E400005F052FFA060D5E9060605F1200701462E
:100E5000FFF706FA054630463146FFF701FA01462C
:100E60002846FFF7A5F904F1100605F03DFFE06004
:100E7000B9F101093D463446B2D134463D4618F039
:100E8000030715D0D5E900060146FFF7E9F98046CA
:100E900030463146FFF7E4F901464046FFF788F94E
:100EA00005F022FF44F8040B013F05F10805E9D1E4
:100EB00001B0BDE8F08300002DE9F04FA5B08F0828
:100EC000009000F1040B38011F90F8000B9107EB24
:100ED00047011E901801C9000D90D8002091111DE6
:100EE0000C9003EB4300C0002491CDE92211394658
:100EF000059203930A9004971E9A1D910BEB020131
:100F00005BF802901F9A1C9151F8048C0BEB0201C4
:100F10005BF80270209A1B9151F804AC0BEB0201B4
:100F20005BF8040C51F8044CDBF800501A915BF8A4
:100F3000026051462190CDF84C901294FFF738F999
:100F4000179040462146FFF733F916902846394658
:100F5000FFF72EF9159048463146FFF729F9DDF8DD
:100F60008890149059F8041C21981891D9F8001011
:100F700019915146FFF76EF9129904460E904046BA
:100F8000FFF768F9219028463946FFF763F9824652
:100F900013983146FFF75EF9179F169E8146384633
:100FA0003146FFF705F9159DDDF850804BF8040C2C
:100FB00028464146FFF7FCF8CBF80000204649469A
:100FC000FFF7F6F82199044612905046FFF742F9D0
:100FD0000F9038463146FFF73DF9109028464146BC
:100FE000FFF738F911900E984946FFF733F9219928
:100FF00081465046FFF7DCF82399824651F8045C9D
:101000000F682499204651F8046C09681391294609
:10101000FFF726F9DDF83C80219040462946FFF78E
:101020001FF9109C189D179020462946FFF718F9C4
:1010300016902846119D2946FFF712F91890484648
:101040003146FFF70DF9159050463146FFF708F984
:10105000149040463946FFF703F980461298394606
:10106000FFF7FEF806462846199D2946FFF7F8F8CF
:10107000074620462946FFF7F3F8139C05465046DD
:101080002146FFF7EDF8824648462146FFF7E8F88B
:10109000199021984146FFF78BF881461798314601
:1010A000FFF7D8F8064616983946FFF781F8074645
:1010B00018982946FFF7CEF8054615985146FFF7D0
:1010C00077F8044614981999FFF7C4F8DDE91C2154
:1010D00042F8047C1B9A013942F8049C1A9A42F89F
:1010E000044C1E9A4BF802501F9A4BF80260209A4B
:1010F0004BF802000D98229A0BF1080B0244229241
:101100000C98239A024423920A98249A0244249227
:101110007FF4F2AE0B981428C0F04D81049801467C
:10112000844600BF03984FEA9C078000039080B27A
:1011300007904FF0FF3000EB9C00069007EB470054
:10114000C200F800DDF80080041D01973B01002576
:1011500000270EA802914FEACC0B80E80418CDE9D5
:101160000C3400BF059E4FEAC70E56F837000897AB
:1011700016900EF1040030584FEA071E159056F8ED
:101180000E0014900EF104003058139007EB470046
:10119000C70056F830001290381D3058CDE9098547
:1011A000119000BF08EB0401219151F8046C08EB89
:1011B000030158F803B0D8F80000D8F8047058F8C4
:1011C00004A020914C6808EB020122951F9158F869
:1011D00002904D6859461B902397CDF890A0FFF7D9
:1011E00039F81D9030464946FFF734F81E903846CE
:1011F0002146FFF72FF81C9050462946FFF72AF8A2
:1012000082461B985946FEF7D3FF07461A90304690
:101210004946FEF7CDFF814623982146FEF7C8FFD9
:101220001B9024982946FEF7C3FF1D9E05463046B5
:101230005146FEF7BDFFDDF870B01E9C1890584671
:101240002146FFF707F82390384649464F46FFF7F7
:1012500001F8DDF86C90249048462946FEF7FAFF25
:10126000179030465146FEF7F5FF82465846214614
:10127000FEF79EFF83461A983946FEF799FFC8F895
:10128000000048462946FEF793FF169C189DC8F8B3
:10129000040020462946FEF7E3FF23991E902046CE
:1012A000FEF7DEFF149C24991C902046FEF7D8FF21
:1012B000179E1B9020463146FEF7D2FF129C1A90D3
:1012C00020465146D146FEF7CBFF1D902046594699
:1012D000FEF7C6FF159C239919902046FEF7C0FF24
:1012E000824620462946FEF7BBFF139D044628464A
:1012F0003146FEF7B5FF249906462846FEF7B0FFB3
:10130000119D239028465946FEF7AAFF834628469A
:101310004946FEF7A5FF1E9905465046FEF748FFD1
:1013200024901C982146FEF795FF82461B98314673
:10133000FEF73EFF81461A982399FEF78BFF1D9911
:1013400007465846FEF734FF064619982946FEF729
:1013500081FFDDE921150DF1380CDDE90C349CE845
:10136000041841F8049C209948F80470C1F804A0BE
:101370001F9965444860249848F803000B9848F882
:1013800002608542D844FFF40DAFDDE907070A9DEE
:1013900007440698DDF824800135854208F10808E5
:1013A0007FF6E0AE0298DDF804C013284FEA900003
:1013B00001463FF6B7AEDDF800A004980490DAF8D5
:1013C0000C009AE860012190DAE90474DAE906B9C0
:1013D00028463946FEF7ECFE229028463946FEF7AD
:1013E00039FF249030462146FEF7E2FE054630469E
:1013F0002146FEF72FFF2390404659464746FEF709
:10140000D7FE219C8046204649464E46FEF7D0FE38
:10141000814638465946FEF71DFF074620463146AD
:10142000FEF718FF229E044630464146FEF7C0FEF6
:10143000219028464946FEF7BBFE209030464146A3
:10144000FEF708FF229028464946FEF703FFDDF825
:1014500090B0814658462146FEF7AAFEDDF88C8002
:10146000064640463946FEF7F5FE054658462146F3
:10147000FEF7F0FE044640463946FEF799FE2199F4
:10148000CAF800102099CAF804102299CAE9021972
:10149000CAE90465CAE9064004980AF1200A01383D
:1014A0008CD125B0BDE8F08F2DE9F04FA7B08F08A3
:1014B000019000F1040838012290F80021901801F1
:1014C0000C9107EB47011090D800C9000F9003EB77
:1014D0004300239102F1040BC000394606920493A5
:1014E0000E90CDE925BB0597229A209108EB0201C9
:1014F00058F80250219A1F9151F8049C08EB020100
:1015000058F80240239A1D9151F8046C08EB02012F
:101510001E9151F804AC58F8021058F8040CD8F891
:101520000070119149462490169714951594FEF772
:101530003FFE199030465146FEF73AFE1890384665
:101540002946FEF735FE119D179020462946FEF7E5
:101550002FFE5BF8041C07461A91DBF8001013906D
:1015600024981B914946CDF870B0FEF773FE0446EF
:10157000129030465146FEF76DFE2490169814994D
:10158000FEF768FE814615982946FEF763FE199D11
:10159000189E834628463146FEF70AFEDDF85CA019
:1015A00048F8040C50463946FEF702FEC8F8000021
:1015B000204659465C46FEF74DFE24990746149096
:1015C0004846FEF7F5FD119028463146FEF742FEEB
:1015D000139983465046FEF73DFE1390129821461C
:1015E000FEF7E6FD249912904846FEF733FE259952
:1015F000824651F8045C0C682699384651F8046C10
:10160000096815912946FEF72BFEDDF844902490D9
:1016100048462946FEF724FE1A9D19905846294649
:10162000FEF71EFE18902846139D2946FEF718FE69
:10163000129F1A9038463146FEF712FE1790504618
:101640003146FEF70DFE169048462146FEF708FE8D
:10165000064614982146FEF703FE814628461B9D48
:101660002946FEF7FDFD149058462946FEF7F8FD81
:10167000159C054650462146FEF7F2FD8246384647
:101680002146FEF7EDFD1B9024983146FEF7E2FD62
:10169000834619984946FEF78BFD0446189814991D
:1016A000FEF7D8FD07461A982946FEF781FD054644
:1016B00017985146FEF7CEFD064616981B99FEF781
:1016C00077FD1D9A209942F8047C1F9A013942F84F
:1016D00004BC1E9ADDF870B042F8046C219A48F8F8
:1016E0000250229A48F80240239A48F802001098C3
:1016F000259A83440F9808F10808024425920E9811
:10170000269A024426927FF4EFAE0C981428C0F07B
:101710004A8105980146834604984FEA9B0780005A
:10172000049080B208904FF0FF3000EB9B000790D0
:1017300007EB4700C200F800DDF804804FEACB0C4D
:10174000031D02973F01002400260391CDF844B009
:10175000CDE90F2CCDE90D73DDF818E0F1005EF84E
:10176000360009961790081D5EF8000031011690AA
:101770005EF801001590081D5EF80000149006EB5D
:101780004600C1005EF830001390081D5EF80000AE
:10179000CDE90A84129000BF08EB03012394229143
:1017A00051F8044C08EB070158F807A0D8F80000DE
:1017B000D8F8045021914E6808EB020158F803B0A4
:1017C000209158F802904F68514625902695FEF7D3
:1017D00041FD249020464946FEF73CFD1F902846D7
:1017E0003146FEF737FD1E9058463946FEF732FD6A
:1017F00005461B9025985146FEF7DAFC1D902046C1
:101800004946FEF7D5FC814626983146FEF7D0FCC6
:101810001C9058463946FEF7CBFC249F06463846B6
:101820002946FEF717FD1E9DDDF87CA02590284671
:101830005146FEF7BDFC1D9C199020464946FEF717
:1018400009FDDDF870B0269058463146FEF702FDDE
:101850001B9918903846FEF7ABFC24902846514659
:10186000FEF7F8FC824620464946FEF7A1FCC8F880
:10187000000058463146FEF79BFC179D2599C8F895
:1018800004002846FEF7ECFC199E1E9028463146BF
:10189000FEF7E6FC159D26991D902846FEF7E0FC14
:1018A000189F1C9028463946FEF7DAFC139C2499B1
:1018B0001F902046FEF7D4FC1B9020465146FEF7B1
:1018C000CFFC169D1A9028463146FEF7C9FC259993
:1018D00006462846FEF7C4FC149C054620463946B9
:1018E000FEF7BEFC269907462046FEF7B9FCDDF858
:1018F0004890834648465146FEF7B2FC2499044678
:101900004846FEF7ADFC25901E983146FEF7A2FC36
:1019100026901D982946FEF74BFC81461C983946B7
:10192000FEF798FC1F9982465846FEF741FC064692
:101930001B982146FEF78EFC05461A982599FEF75E
:1019400037FCDDE92214DDE90D73DDE90F2C41F8E8
:1019500004AC219948F80360C1F804902099DDF89F
:1019600044B0486026985C4448F807000C9848F852
:1019700002508442E044FFF40FAFDDE908060B9CFF
:1019800006440798DDF828800134844208F10808ED
:101990007FF6E2AE0398DDF808B013284FEA900016
:1019A00001463FF6B9AEDDF804A005980590DAF8D7
:1019B0000C009AE860012490DAE90474DAE906B9C7
:1019C00028463946FEF7F4FB239028463946FEF7B1
:1019D00041FC269030462146FEF7EAFB054630469C
:1019E0002146FEF737FC2590404659464746FEF70C
:1019F000DFFB249C8046204649464E46FEF7D8FB36
:101A0000814638465946FEF725FC074620463146B2
:101A1000FEF720FC239E044630464146FEF7C8FBF5
:101A2000249028464946FEF7C3FB8346304641468C
:101A3000FEF710FC239028464946FEF70BFC269D36
:101A4000229028462146FEF705FC259E219030462F
:101A50003946FEF7ADFB209028462146FEF7A8FB4D
:101A6000269030463946FEF7F5FBDDF8C08025901C
:101A700024984146FEF7F4FB249058464146FEF771
:101A8000EFFB814623984146FEF7EAFB8346229806
:101A90004146FEF7E5FB074621984146FEF7E0FB8D
:101AA000054620984146FEF7DBFB04462698414652
:101AB000FEF7D6FB064625984146FEF7D1FB249952
:101AC0008AE8020ACAE90375CAE90546CAF81C0091
:101AD00005980AF1200A01387FF468AF27B0BDE805
:101AE000F08F000010B5214C00221021204600F09C
:101AF00035FF00220221204600F030FF00220421A1
:101B0000204600F02BFF01220821204600F026FF8E
:101B1000012000F015FE00220821204600F01EFFE3
:101B200000228021124800F019FF002201212046E6
:101B300000F014FF072000F057F8002000F054F8E0
:101B4000092000F051F8002000F04EF8602000F06D
:101B50004BF801220421204600F000FF204600221D
:101B6000BDE81040042100F0F9BE0000001C014057
:101B7000000801402DE9F0410E46002500F05CF917
:101B80000624174F00E015B9022000F02DF8641E5E
:101B9000E4B2385D00F028F86D1CEDB2002CF2D1F3
:101BA000082000F021F8340A204600F01DF8F0B2B9
:101BB00000F01AF8092000F017F8204600F014F899
:101BC000F0B200F011F8074C01220421204600F089
:101BD000C5FE2046BDE8F0410022042100F0BEBE53
:101BE00000000020001C01402DE9F0410F4F104E75
:101BF00005460824280601D5012200E00022202104
:101C0000384600F0ABFE6806050E00220221304681
:101C100000F0A4FE01220221304600F09FFE641E67
:101C200014F0FF04E6D1BDE8F08100000008014097
:101C3000001C014070B5044600688168C943C907AB
:101C400017D1816821F00101816000F08DFE054609
:101C50000AE000BF00F088FE401B022804D920687B
:101C60008068C043C00706D020688068C043C007B2
:101C7000F0D0002070BDA06A40F01000A062E06AC1
:101C800040F00100E062012070BD10B50146406ADD
:101C9000826A12F0500F05D0006A026BBDE8104056
:101CA00008461047816A41F40071816201688968C1
:101CB000C1F3424107290CD1017B51B9816A21F45A
:101CC00080718162816AC90403D4816A41F0010193
:101CD000816200F04FF910BD10B5406A816A41F091
:101CE00040018162C16A41F00401C16200F044F91F
:101CF00010BD10B5406A00F03EF910BDF8B50026E1
:101D00000446009600688168C943C9072DD08168E0
:101D100041F001018160164816490068B0FBF1F0FE
:101D200000E0401E00900028FBD100F01DFE05469B
:101D300016E000BF00F018FE401B022810D92068F2
:101D40008068C043C0070BD0A06A40F01000A062BA
:101D5000E06A40F00100E06284F824600120F8BDF0
:101D600020688068C043C007E4D10020F8BD0000AF
:101D70003C00002040420F00FEE7000070B5044622
:101D8000114DC0074FF4806101D0012200E0002214
:101D9000284600F0E3FD6008C0074FF4006101D061
:101DA000012200E00022284600F0D8FDA008C0076C
:101DB0004FF4805101D0012200E000222846BDE806
:101DC000704000F0CBBD000000180140014800F059
:101DD0001DBB000084410020014800F017BB00003B
:101DE000C841002030B590F840500124AC40C56B8C
:101DF0006C60046863604368102B036803D09960CB
:101E00000068C26030BD9A600068C16030BD704734
:101E100010B50749FF2004F0F5FE0549FF2004F046
:101E2000F1FEBDE810400249FF2004F0EBBE0000C7
:101E30004000002072B6FEE730B5C1B2C0F30725FE
:101E4000C0F30744030E0A4A0A4851430170090AC5
:101E500002FB05114170090A02FB04118170090A95
:101E600002FB0311C170090A0171090A417130BDF9
:101E700044E80F0000000020F8B50024009490F81A
:101E800024202546012A12D0012280F824204A6805
:101E90001F23072A0DD20668776B521E02EB8202BF
:101EA00093409F430B6893401F43776319E00220E0
:101EB000F8BD06680D2A0AD2376BD21F02EB8202E8
:101EC00093409F430B6893401F43376309E0F76AD1
:101ED0000D3A02EB820293409F430B6893401F43ED
:101EE000F7620A68072306680A2A0AD3F7680A3ADB
:101EF00002EB420293409F438B6893401F43F7607D
:101F000008E0376902EB420293409F438B6893409D
:101F10001F4337610A68102A01D0112A20D1124BC1
:101F200002689A4217D193681B0219D4936843F44C
:101F3000000393600968102912D10C490C4A096802
:101F4000B1FBF2F101EB8101490000E0491E009173
:101F50000029FBD104E0816A41F020018162012463
:101F600080F824502046F8BD002401403C000020A9
:101F700040420F0070477047704700002DE9F04164
:101F800004004FF000057FD0A06A002628B9E66261
:101F900084F82460204600F081F82046FFF74AFECE
:101FA000A16AC90600D420B1A06A40F01000A06266
:101FB0006AE0A16A21F4885141F00201A16233492B
:101FC00023688B42E16904D1B1F5402F01D14FF470
:101FD0000021277B4FF4807C41EA470261680A4375
:101FE000A168614508D0012906D0002194F814E0C9
:101FF000BEF1010F02D00AE06146F7E7C7B1A76A58
:1020000047F02007A762E76A47F00107E7625F68C9
:1020100027F469470F435F60236899681C4F394074
:1020200011439960A16861450BD0012909D00CE0EA
:10203000DFF860E0A7690EEB47370F4347F4006114
:10204000E5E7218A0D05A5F580152168CB6A23F403
:1020500070032B43CB62216889680F4B1940914272
:1020600008D1E662A16A21F0020141F00101A162FA
:10207000BDE8F081A06A20F0020040F01000A062EC
:10208000E06A40F00100E0620120F1E7003C01401D
:10209000FDF7E1FF00E0FFFFFE0E1FFF2DE9F04717
:1020A00086B00025009501950295039506462F4CB4
:1020B00002682F4803212F4B80274FF480784FF47C
:1020C00080694FF4005AA24223D1826942F400721F
:1020D0008261826902F400720492826942F0040211
:1020E0008261806900F0040004900120CDE90001C4
:1020F0006946184600F036FB204C1F48E4E802050C
:102100001E48A4E8A00327E03462666206B0BDE87A
:10211000F0871B4CA242F9D1826942F400428261ED
:10212000826902F400420492826942F004028261F0
:10213000806900F0040004900220CDE900016946A6
:10214000184600F00FFB0D4C0E484434E4E802053D
:102150000A48A4E8A003443064E8065A00F07AFA7A
:102160000028D1D0FFF766FECEE700000024014032
:102170000010024000080140080002408441002095
:10218000003C0140580402402DE9F04789460446CE
:102190003B4900683B4F0E1D9046884201D0B84233
:1021A00007D1306810F4702F03D001252846BDE810
:1021B000F08794F8240001280CD0012084F8240032
:1021C0002046FFF79BFD05004FF0000004D084F887
:1021D0002400EBE70220EAE7A16A40F6016291439E
:1021E00041F48071A1622168B94218D1326812F4B9
:1021F000702F14D0A16A41F48011A16231684905A1
:1022000005D5A16A21F4005141F48051A162A16A6F
:10221000C9040AD5E16A21F00601E16206E0A26A7A
:1022200022F48012A2624968E9E7E06284F824009F
:10223000216A15488862216A1448C862216A1448D4
:10224000086321686FF0020008602068816841F42B
:1022500080718160216843464A464C31206A00F013
:1022600037FA20688168C1F342410729816803D0A9
:1022700041F48011816099E741F4A001FAE7000080
:1022800000240140002801408B1C0008F31C0008BA
:10229000D91C000810B590F821100022022905D0A1
:1022A0000421816380F82020012010BD01680B68A3
:1022B00023F00E030B6001680B6823F001030B6031
:1022C00090F84030C46B012101FA03F3636080F899
:1022D000211080F82020104610BD00002DE9F05F8D
:1022E00090F821100024022903D0042181630124E5
:1022F00085E001680A6822F00E020A6001680A6837
:1023000022F001020A603F4E3E4FB215DFF8F4C0E2
:10231000DFF8F090DFF8ECA0DFF8E8B0DFF8E4E0F9
:102320000168783F13011502ACF1640CA9F1500962
:10233000AAF13C0AABF1280BAEF1140E4FF4801851
:10234000B14227D9B9420ED0614512D049451DD0BE
:10235000514518D0594518D0714501D1424615E074
:10236000294EB14201D1012210E0274E1436B1426C
:1023700001D110220AE0244E2836B14206D0224A6A
:102380003C32914201D11A4600E02A461E49091FFB
:102390000A602BE0B94213D0614517D0494522D0DD
:1023A00051451DD059451DD0714501D142461AE015
:1023B000B14202D14FF0807215E0134EB14201D10B
:1023C000012210E0104E1436B14201D110220AE071
:1023D0000D4E2836B14206D00B4A3C32914201D113
:1023E0001A4600E02A46074980394A60012180F8F0
:1023F0002110002180F82010416B01B18847204650
:10240000BDE8F09F80000240080402402DE9F05F23
:10241000C16B0A6801680B68046C4FF0040808FA85
:1024200004F8844D844E854FDFF814C2DFF814920F
:10243000DFF814A2DFF814B2DFF814E218EA020F92
:1024400065D05FEA437862D50A68920603D40A68C9
:1024500022F004020A60DFF8F0814FF48062016824
:1024600008F1140813011402414524D9A9420DD0E2
:10247000B1420FD0B9421AD0614515D0494515D0A7
:10248000514501D1120312E0594501D104220EE059
:10249000714501D140220AE06D4D1435A94206D0A4
:1024A0006B4A2832914201D11A4600E02246674920
:1024B000091F0A6029E0A94213D0B14215D0B942E0
:1024C00020D061451BD049451BD0514502D14FF466
:1024D000800217E0414502D14FF0806212E0594579
:1024E00001D104220EE0714501D140220AE0584D8D
:1024F0001435A94206D0564A2832914201D11A46D3
:1025000000E022464B4908394A60C16A71E04FF049
:10251000020808FA04F818EA020F70D05FEA83781C
:102520006DD50A68920606D40A6822F00A020A608B
:10253000012180F82110DFF810814FF4007201684A
:1025400008F1140813011402414524D9A9420DD001
:10255000B1420FD0B9421AD0614515D0494515D0C6
:10256000514501D1120312E0594501D102220EE07A
:10257000714501D120220AE0354D1435A94206D01B
:10258000334A2832914201D11A4600E022462F49AF
:10259000091F0A6029E0A94213D0B14215D0B942FF
:1025A00020D061451BD049451BD0514502D14FF485
:1025B000001217E0414502D14FF0007212E0594578
:1025C00001D102220EE0714501D120220AE0204D06
:1025D0001435A94206D01E4A2832914201D11A462A
:1025E00000E02246134908394A60002180F8201093
:1025F000816A00291CD0BDE8F05F0847FFE7082585
:10260000A540154214D01A0712D50A6822F00E020E
:102610000A6090F84020C36B012101FA02F25A606F
:10262000816380F82110002180F82010016BE0E721
:10263000BDE8F09F080002401C000240300002404C
:1026400044000240580002406C000240080402406E
:102650001C04024030B560B11A4B026814219A4242
:1026600009D2194B1344B3FBF1F1890001641749F6
:102670000AE0012030BD134B5B421344B3FBF1F180
:10268000890001640F490839C163022180F82110D3
:10269000136843F6F0718B43F0E901142143D0E94C
:1026A00002452C4321430469214344692143846941
:1026B00021431943116000214163012242770177D0
:1026C000084630BD08040240F8FFFDBF000002408C
:1026D00070B5044690F82000002501280CD0012098
:1026E00084F8200094F821600020012E06D084F8A0
:1026F00020000225284670BD022070BD022684F805
:102700002160A0632068066826F001060660204666
:10271000FFF768FBE06A00282068016802D041F0FA
:102720000E0106E021F0040101602068016841F01B
:102730000A0101602068016841F001010160D9E7E8
:1027400070B5044600F010F90546601C02D004483C
:102750000078044400F008F9401BA042FAD370BD91
:10276000300000202DE9F84FDFF8C8910024A9F1CE
:10277000040B23460F2709F1040AABF1040ED1E044
:102780000125A54006EA0502AA4276D1DFF8A8C1D4
:102790004E68A6EB0C0866452BD00DDC032E34D01A
:1027A00005DC36B3012E19D0022E2FD11BE0112EDD
:1027B00016D0122E2AD119E0B8F5881F19D006DCE0
:1027C000B8F5803F15D0B8F5801F1FD111E0B8F5DE
:1027D000001F0ED0B8F5041F18D10AE0CB6815E031
:1027E000CB681B1D12E0CB6808330FE0CB680C33BD
:1027F0000CE08B682BB1012B4FF0080303D045612F
:1028000004E0042302E0056100E00023FF2A01D870
:10281000064601E000F104064FEA840501D9A5F15E
:102820002005D6F8008007FA05FC28EA0C0803FA10
:1028300005F548EA0508C6F800804D68ED0070D53A
:102840003E4DAE6946F00106AE61AD6924F0030667
:1028500005F0010500953A4D06EB050CDCF8085033
:10286000A607360F07FA06F825EA0805DFF8D48030
:10287000404503D14FF0000825E052E0DFF8C88062
:10288000404502D14FF001081DE0DFF8C08040450F
:1028900002D14FF0020816E0DFF8B480404502D1C3
:1028A0004FF003080FE0DFF8AC80404502D14FF055
:1028B000040808E0DFF8A080404502D14FF0050889
:1028C00001E04FF0060808FA06F848EA0508CCF8D7
:1028D00008804D68D9F80060ED024D4601D51643D9
:1028E00000E096432E604D68DAF80060AD02554670
:1028F00001D5164300E096432E604D68DBF800607A
:10290000AD035D4601D5164300E096432E604D6849
:10291000DEF80060ED03754601D5164300E09643EE
:102920002E60641C0A681646E2407FF429AFBDE8B9
:10293000F88F000008040140000011100010024050
:102940000000014000080140000C0140001001405F
:102950000014014000180140001C01400AB101614F
:1029600070470904FBE700000148806870470000D9
:10297000300000200248816802781144816070476D
:1029800030000020074810B5016841F010010160D7
:10299000032000F075F80F2000F006F800F024F88E
:1029A000002010BD0020024070B50D4D04464FF4CC
:1029B0007A712878B1FBF0F00A490968B1FBF0F0B0
:1029C00000F052FB48B9102C07D200222146501EBD
:1029D00000F036F800206C6070BD012070BD000072
:1029E000300000203C0000200C4808B5816941F00F
:1029F00001018161816901F001010091C16941F02A
:102A00008051C161C06900F0805000900448416865
:102A100021F0E06141F00071416008BD001002400A
:102A200000000140002809DB00F01F020121914055
:102A30004009800000F1E020C0F80011704700005C
:102A4000F0B40E4B1B680C46C3F30223C3F1070519
:102A5000042D00D90425191D072901D2002300E007
:102A6000DB1E012606FA05F1491E214099409E40D1
:102A7000761E16403143F0BC01F0FCBA0CED00E0CC
:102A8000064900F0070208684FF6FF03184040EAC5
:102A90000220034A10430860704700000CED00E07C
:102AA0000000FA052DE9F84305460078354CC007CB
:102AB00054D0E0690026C00008D4E06940F080509E
:102AC000E061E069012600F0805000902E48016826
:102AD000C90512D40168804641F480710160FFF796
:102AE00043FF074605E000BFFFF73EFFC01B642819
:102AF00023D8D8F80000C005F6D5206A10F440703D
:102B000021D0A98801F4407181421CD0206A1F495C
:102B1000012220F440700A6000220A602062C0078F
:102B200011D0FFF721FF074641F2883808E000BFC7
:102B3000FFF71AFFC11B414502D90320BDE8F88306
:102B4000206A8007F4D5206A696820F44070084341
:102B500020621EB1E06920F08050E0612878800793
:102B600005D56068A96820F4404008436060287873
:102B7000C00605D56068696920F48000084360607C
:102B80000020DBE700100240007000404004424299
:102B90002DE9F0470F46050061D0434E306800F044
:102BA0000700B84209D2306820F00700384330608F
:102BB000306800F00700B84251D128683B4C8107CB
:102BC00012D5400703D5606840F4E0606060287863
:102BD000000703D5606840F4605060606068A968D1
:102BE00020F0F000084360602878C00728D06868AB
:102BF000012810D02168022810D0890700292EDA78
:102C0000616821F0030101436160FFF7ADFE80467A
:102C100041F288390DE021688903EFE78901EDE78A
:102C2000FFF7A2FEA0EB0801494502D90320BDE849
:102C3000F0876068696800F00C00B0EB810FEFD19D
:102C4000306800F00700B8420BD9306820F0070068
:102C500038433060306800F00700B84201D00120EE
:102C6000E5E72878400705D56068E96820F4E0606A
:102C7000084360602878000706D56068296920F459
:102C8000605040EAC100606000F038F86168084AAE
:102C9000C1F30311515CC84006490860064800684A
:102CA000FFF782FE0020C2E7002002400010024031
:102CB000526D00083C000020340000200448054903
:102CC00000684968044AC1F30221515CC84070475A
:102CD0003C00002000100240626D000804480549D5
:102CE00000684968044AC1F3C221515CC84070477A
:102CF0003C00002000100240626D00080E4A51683E
:102D00000E4801F00C03042B11D0082B0FD10C48F6
:102D1000C1F38343C903C05C0AD55168084AC1F3B3
:102D20004041921E515C054A5043B0FBF1F07047A0
:102D300004494843704700000010024000127A0026
:102D4000426D000800093D002DE9F84F040070D0E5
:102D50002078C04DC00749D06868C0F381000128C1
:102D600007D06868C0F38100022809D16868C003F1
:102D700006D52868800339D560680028E7D035E09B
:102D80006068B0F5803F0BD010B1B0F5A02F11D026
:102D9000286820F480302860286820F4802002E031
:102DA000286840F480302860606890B1FFF7DCFD4F
:102DB00006460AE0286840F480202860F0E700BF5B
:102DC000FFF7D2FD801B642873D828688003F7D5ED
:102DD0000CE0FFF7C9FD064605E000BFFFF7C4FDA4
:102DE000801B6428F0D828688003F7D420789A4E96
:102DF00080074FF001094FF0000839D5686810F0DE
:102E00000C0F07D06868C0F38100022809D16868F8
:102E1000C00306D42868800714D52069012808D18A
:102E200010E02069B0B1C6F80090FFF79DFD07469D
:102E300005E00AE1FFF798FDC01B0228C4D8286806
:102E40008007F7D52868616920F0F80040EAC100E2
:102E500028600DE0C6F80080FFF786FD074604E015
:102E6000FFF782FDC01B022823D828688007F7D40B
:102E7000207800072CD57948A169D9B1C0F8009015
:102E8000FFF772FD074604E0FFF76EFDC01B022846
:102E90000FD8686A8007F7D571484FF4FA51006877
:102EA000B0FBF1F0009000BF0098411E0091FAD2F3
:102EB0000EE080E0C0F80080FFF756FD074604E012
:102EC000FFF752FDC01B022875D8686A8007F7D447
:102ED0002078400760D5E8690027C00008D4E86979
:102EE00040F08050E861E869012700F080500090D0
:102EF0005C480168C90513D40168834641F48071B8
:102F00000160FFF731FD824606E000BFFFF72CFDB0
:102F1000A0EB0A0064284ED8DBF80000C005F5D508
:102F2000E06801280AD008B1052813D0286A20F0EB
:102F300001002862286A20F0040002E0286A40F0BC
:102F400001002862E06841F2883B98B1FFF70CFD70
:102F500082460BE0286A40F004002862EEE700BFDA
:102F6000FFF702FDA0EB0A0159455AD8286A8007ED
:102F7000F6D50CE0FFF7F8FC824605E0FFF7F4FC1D
:102F8000A0EB0A0159454CD8286A8007F6D41FB136
:102F9000E86920F08050E861E06988B36968C1F3AE
:102FA0008101022944D00228C6F8608004D0FFF7CE
:102FB000DBFC044638E034E0FFF7D6FC074604E0CB
:102FC000FFF7D2FCC01B02282BD828688001F7D459
:102FD000206AB0F5803F05D16868A16820F4003010
:102FE00008436860D4E908010843696821F4741152
:102FF00008436860C6F86090FFF7B6FC044606E038
:1030000025E000BFFFF7B0FC001B022809D82868A4
:103010008001F7D51BE000BFFFF7A6FC001B0228CC
:1030200002D90320BDE8F88F28688001F4D40EE0AF
:103030000128F7D06868226A00F48031914204D1F7
:10304000616A00F47010884201D00120EAE7002094
:10305000E8E70000001002400000424280044242C3
:103060003C0000200070004010B5401EB0F1807F91
:1030700001D3012010BD4FF0E02460610F216017E3
:1030800000F0F8FF0020A06107202061002010BDA3
:103090007047704770B590F83C20012A2CD001246D
:1030A00080F83C40022280F83D2003685A689D6801
:1030B00022F070060A6832435A60104B02689A4246
:1030C0000ED00F4B9A420BD0B2F1804F08D00D4B6F
:1030D0009A4205D00C4B9A4202D00C4B9A4204D132
:1030E000496825F080031943916080F83D40002134
:1030F00080F83C10084670BD022070BD002C0140D5
:10310000003401400004004000080040000C004072
:1031100010B5040003D094F83D0010B107E0012081
:1031200010BD002084F83C00204600F01FF802206B
:1031300084F83D00211D206800F0ACFD012084F8DA
:10314000460084F83E0084F83F0084F8400084F88C
:10315000410084F8420084F8430084F8440084F875
:10316000450084F83D00002010BD000008B500684F
:103170000B49884212D10B48816941F400518161A9
:103180008069002200F40050009011462C20FFF7C7
:1031900057FCBDE808402C20FFF744BC08BD0000E8
:1031A000003401400010024090F83D10012901D088
:1031B00001207047022180F83D1000680E498842C6
:1031C0000ED00E4988420BD0B0F1804F08D00C4988
:1031D000884205D00B49884202D00B49884204D16D
:1031E000816801F00701062903D0016841F001015F
:1031F0000160002070470000002C014000340140B5
:103200000004004000080040000C004070B5044677
:1032100090F83C000025012817D0012684F83C6076
:10322000022084F83D002068826822F0770222F4B0
:103230007F4282600868502838D00DDC20284FD0AB
:1032400005DC90B3102811D14AE0022070BD30286F
:1032500046D040280AD13BE060282FD070280DD0FE
:10326000B0F5805F03D0B0F5005F12D0012584F87F
:103270003D60002084F83C00284670BDCB68D1E951
:103280000121206800F054FD2068816841F0770139
:1032900009E0CB68D1E90121206800F049FD2068F0
:1032A000816841F480418160E1E719E0CA684968BA
:1032B000206800F04FFD5021206806E0CA68496888
:1032C000206800F058FD6021206800F03BFDCEE74B
:1032D000CA684968206800F03DFD40212068F4E795
:1032E000226801461046F0E770472DE9F041044698
:1032F0000068C66805694FF00007A90713D5B10734
:1033000011D5F91E016101202077206880698007AE
:10331000204602D0FFF7E8FF04E000F07EF82046E8
:1033200000F07CF82777680716D5700714D5216858
:103330006FF004000861022020772068806910F493
:10334000407F204602D0FFF7CFFF04E000F065F891
:10335000204600F063F82777280715D5300713D5E6
:1033600021686FF008000861042020772068C06998
:103370008007204602D0FFF7B7FF04E000F04DF8C9
:10338000204600F04BF82777E80616D5F00614D54E
:1033900021686FF010000861082020772068C0695C
:1033A00010F4407F204602D0FFF79EFF04E000F0BB
:1033B00034F8204600F032F82777E80708D0F00705
:1033C00006D021686FF001000861204600F027F860
:1033D000280608D5300606D521686FF08000086100
:1033E0002046FFF755FE680608D5700606D5216809
:1033F0006FF040000861204600F012F8A8060AD5D8
:10340000B00608D521686FF0200008612046BDE8AD
:10341000F041FFF73EBEBDE8F0817047704770474E
:103420007047704770470000F8B5016804460868A7
:10343000CA684B6910F00F0F4FF0000559D003F028
:10344000010602F49077374365D0C10705D0D10556
:1034500003D5616C41F001016164410705D5D907CD
:1034600003D0616C41F002016164810705D5D90781
:1034700003D0616C41F004016164010707D502F0DB
:103480002001314303D0616C41F008016164616C3B
:1034900000293AD0800604D5900602D5204600F0D7
:1034A000ABFC20684069616CC0F38010090700D450
:1034B00060B3204600F079FC20684069400621D5C1
:1034C0002068143050E8001F21F0400140E800124D
:1034D000002AF5D1E06BA8B16D494163E06BFEF7BE
:1034E000FDFE002811D0E06B416B01B0BDE8F0405B
:1034F000084783060FD593060DD52046BDE8F84052
:1035000000F07ABC2046FFF78DFFF8BD2046FFF79C
:1035100089FF6564F8BD266B2023012E7CD1C60689
:103520007AD5D60678D508684868009048694FF083
:103530000206400640D5E16B086840680004000CB4
:10354000E8D0A28D8242E5D9E085886920282DD077
:1035500020680C3050E8001F21F4807140E8001210
:10356000002AF5D12068143050E8001F21F0010135
:1035700040E80012002AF5D12068143050E8001FFE
:1035800021F0400140E80012002AF5D184F84230D1
:10359000256320680C3050E8001F21F0100140E83E
:1035A0000012002AF5D1E06BFEF774FE6663A08D71
:1035B000E18D401A81B22AE0A08DE18D401A81B2DE
:1035C000E08D0028A6D00029A4D022680C3252E851
:1035D000000F20F4907042E80007002FF5D120681A
:1035E000143050E8002F22F0010240E80027002F9D
:1035F000F5D184F84230256320680C3050E8002F64
:1036000022F0100240E80023002BF5D1666320462B
:10361000FFF707FFF8BDFFE705062BD5150629D5EF
:1036200094F841002128F5D1A068B0F5805F01D160
:103630002069B0B1206A411C21622168007848608D
:10364000E08C401E0004000CE084E3D12068C168D7
:1036500021F08001C1602068C16841F04001C16073
:10366000D8E7206A0088C0F308004860206A801C00
:103670002062E5E74006CDD55006CBD5CA68204686
:1036800022F04002CA6084F8413000F0F7F8C1E748
:103690009B3D000870B5040004D094F8410000255B
:1036A00010B106E0012070BD84F84050204600F0C3
:1036B00023F8242084F841002068C16821F40051D7
:1036C000C160204600F0FAFB2068016921F49041B6
:1036D00001612068416921F02A0141612068C168C7
:1036E00041F40051C1606564202084F8410084F8F1
:1036F00042006563002070BD30B585B000240094A1
:103700000194029403940068184988422CD1184807
:10371000816941F480418161816901F480410491B2
:10372000816941F0040181618069124D00F004005B
:1037300004904FF400700090022001900320039049
:1037400069462846FFF70EF82815CDE900046946BA
:1037500028460294FFF706F8002211462520FFF7BD
:103760006FF92520FFF75EF905B030BD0038014044
:10377000001002400008014090F84230202B01D098
:103780000220704721B11AB10023036300F0F2BB9D
:103790000120704710B500680C49884214D10C48CC
:1037A0000078542809D10A48801E8069FCF7C3FFBD
:1037B00002460B4607A000F039FCBDE8104001228C
:1037C00003490548FFF7D8BF10BD0000003801408D
:1037D0001200002025660000544200202DE9F84325
:1037E000044690F84100984616460D46202802D01F
:1037F0000220BDE8F88385B17EB1002060642120FD
:1038000084F84100FFF7B0F8A6848146E684A068FA
:103810002027B0F5805F02D003E00120E9E72069AE
:1038200010B12E4600250EE000260CE08021204637
:1038300000F0BBFBA8B9C6B116F8010B21684860BF
:10384000E08C401EE084E08C4B464FF00002CDF847
:1038500000800028EAD14FF04001204600F0A5FB8F
:1038600040B184F841700320C3E735F8020BC0F380
:103870000800E3E784F841700020BAE770470000D1
:1038800010B5104C012805D0022805D003280AD015
:1038900004280AD0002200E0012202212046FFF77E
:1038A0005DF8002207E0002200E00122022120460C
:1038B000FFF754F801222046BDE810400421FFF72D
:1038C0004DB80000000C0140FEE70000F0B5844652
:1038D000264E0020244F75780146024607F805C0A1
:1038E0004FF0280C6D1CB5FBFCFE0CFB1E557570D3
:1038F0000346044605467E5D012E06D0022E07D003
:10390000032E08D0042E09D00AE0491CC9B207E0F2
:10391000521CD2B204E05B1CDBB201E0641CE4B2D6
:103920006D1C282DE7DB914205D9994203D9A142AC
:1039300001D90120F0BD8A4205D99A4203D9A24299
:1039400001D90220F0BD8B4205D9934203D9A3428D
:1039500001D90320F0BD8C42FCD99442FAD99C4293
:10396000F8D90420F0BD0000FC3000201000002039
:103970003EB50024144800940194029411498460D7
:10398000016004730475012505614FF44021446012
:10399000C161FEF7F3FA08B1FEF74CFA0B48416833
:1039A00041F0E06141F480214160CDE90045694684
:1039B00005480294FEF760FA002801D0FEF73AFAB3
:1039C0003EBD0000002401402441002000000140D1
:1039D0003EB5002410480094019402940D4984607F
:1039E000016004730475012505614FF440214460B2
:1039F000C161FEF7C3FA08B1FEF71CFA0095CDE9E4
:103A0000015469460448FEF737FA002801D0FEF752
:103A100011FA3EBD003C014054410020114808B558
:103A2000416941F001014161416901F001010091E9
:103A3000416941F0020141614069002200F0020049
:103A4000009011460B20FEF7FBFF0B20FEF7EAFF6C
:103A5000002211463B20FEF7F3FFBDE808403B2063
:103A6000FEF7E0BF001002402DE9F04786B00020CD
:103A700000900190029003903248816941F08001EA
:103A80008161816901F080010491816941F0040143
:103A90008161816901F004010491816941F00801AB
:103AA0008161816901F008010491816941F040015F
:103AB00081618069244F00F04000049000227F2142
:103AC0003846FEF74BFFDFF884800022E0214046B5
:103AD000FEF744FFDFF87890002206214846FEF703
:103AE0003DFFDFF870A04FF4E0560022314650460B
:103AF000FEF734FF01247F20CDE900040325694649
:103B00003846CDE90245FEF72DFEE020CDE9000460
:103B100069464046CDE90245FEF724FE0620CDE980
:103B2000000469464846CDE90245FEF71BFECDE993
:103B3000006469465046CDE90245FEF713FE06B023
:103B4000BDE8F08700100240001C01400008014061
:103B5000000C01400018014010B586B00024184840
:103B60000094019402940394049414490594C0E9C8
:103B7000001440F26711C0E9024180210461C0E9EC
:103B80000541FFF7C5FA08B1FEF754F94FF480502C
:103B9000009069460A48FFF739FB08B1FEF74AF979
:103BA0002020CDE9040404A90548FFF773FA002892
:103BB00001D0FEF73FF906B010BD0000003401400F
:103BC0000C4200200C4810B50A4901604FF4E13165
:103BD0004160002181600C22C160C0E90412816152
:103BE000C161FFF757FD002803D0BDE81040FEF784
:103BF00021B910BD0038014054420020FEE7FEE725
:103C000070477047FEF7B6BE30B595B028216846BC
:103C1000FCF7C3FA14210AA8FCF7BFFA18210FA871
:103C2000FCF7BBFA01210804CDE90010002502953C
:103C300002240491CDE907404FF4E0100990684652
:103C4000FFF782F808B172B6FEE70AA90F2081E8F3
:103C500031004FF480600D904FF4A0600E9002216F
:103C60000AA8FEF795FF08B172B6FEE74FF40040D0
:103C700011900F940FA8FEF715FF002801D072B61F
:103C8000FEE715B030BD70470148FFF72EBB0000BE
:103C90000C420020F0B50268204C214D214E224FED
:103CA000224B4FF0804CA04209D0984207D060458B
:103CB00005D0A84203D0B04201D0B84204D122F0CE
:103CC000700E4A6842EA0E02A04209D0984207D01C
:103CD000604505D0A84203D0B04201D0B84203D11C
:103CE00022F44075CA682A434D6922F080022A43B3
:103CF00002608A68C2620A688262A04201D0984269
:103D000001D109690163012141610169C90703D03A
:103D1000016921F001010161F0BD0000002C0140AA
:103D20000004004000080040000C00400034014046
:103D300010B5846842EA032224F47F440A432243F4
:103D4000826010BD826822F070020A4342F00701CF
:103D50008160704710B5036A046A24F001040462AC
:103D6000846924F0F00444EA021423F00A020A43AE
:103D70008461026210BD10B5036A046A24F0100465
:103D80000462846923F0A00324F4704444EA0232FC
:103D900043EA01118261016210BD10B5406A002141
:103DA000C185C184FFF73EFB10BD01680C3151E8AD
:103DB000002F22F4907241E80023002BF5D1016816
:103DC000143151E8002F22F0010241E80023002BBA
:103DD000F5D1016B012909D101680C3151E8002F9F
:103DE00022F0100241E80023002BF5D1202180F8B9
:103DF000421000210163704708B590F84210222953
:103E000001D0022008BD82684FF480539A4201D14C
:103E1000016921B1816A9A421BD04AB10AE0026865
:103E2000816A5268C2F308020A80816A891C08E02C
:103E3000026972B10268526802F07F020A70816AF8
:103E4000491C8162C18D491E0904090CC18503D03A
:103E50001BE002685268F1E70168CA6822F020029C
:103E6000CA600168CA6822F48072CA6001684A693F
:103E700022F001024A61202180F8421000214163B2
:103E8000026B012A03D0FFF785FC002008BD016307
:103E900001680C3151E8002F22F0100241E80023A4
:103EA000002BF5D101680A68D20602D50A68496874
:103EB0000091818DFFF7B5FAE7E7000070B5044681
:103EC00000680169E26821F44051114301612169F0
:103ED000A0680843616908432168CA6841F20C631D
:103EE0009A430243CA6020684169A26921F4407183
:103EF000114341611E492068884202D1FEF7EEFE5F
:103F000001E0FEF7DBFE00EBC00101EB0012606890
:103F100064218000B2FBF0F3B3FBF1F36FF01806FD
:103F20007343B2FBF0F5B2FBF0F605EB83053223E9
:103F300003EB0515B5FBF1F5B6FBF1F605F0F00561
:103F400005EB0615B2FBF0F6B2FBF0F0B0FBF1F0BA
:103F50006FF01802504306EB800003EB0010B0FB3B
:103F6000F1F0216800F00F002844886070BD000067
:103F70000038014081628285C2850021416422218E
:103F800080F84210016921B10168CA6842F4807268
:103F9000CA6001684A6942F001024A610068C1686A
:103FA00041F02001C160002070472DE9F843984698
:103FB00017460D460446089E24E0701C22D0FEF7EA
:103FC000D3FCA0EB0800B0421AD8CEB12068C1687B
:103FD000490717D5802D15D0402D13D00168C9434E
:103FE00009070FD401680025406800902046FFF7BC
:103FF000DCFE0820606484F840500120BDE8F883AE
:104000000320FBE72068006835EA000004D00020A8
:10401000B842D2D00020F1E70120F9E70148FFF7CC
:1040200003BA000054420020FEE700000FB4054B25
:1040300010B503A9044A029800F07AF910BC5DF8A3
:1040400014FB0000CD5E000840000020490050EA4B
:10405000C12018BF04204A0D18BF40F0010040F2F3
:10406000FF72B2EB515F08BF40F00200012808BFA9
:10407000052070470907090E002804DB00F1E02045
:1040800080F80014704700F00F0000F1E02080F885
:10409000141D70472DE9F0414F1E00EBC701044687
:1040A000D1E9000115461E4637F006020DD02A461A
:1040B0003346FCF7F8F97F1E04EBC703D3E900236E
:1040C000FCF74AF937F00602F1D1022F25D0042F70
:1040D00013D0062F18BFBDE8F0812A463346FCF7FF
:1040E000E2F9D4E90A23FCF737F92A463346FCF70C
:1040F000DAF9D4E90823FCF72FF92A463346FCF70E
:10410000D2F9D4E90623FCF727F92A463346FCF70F
:10411000CAF9D4E90423FCF71FF92A463346FCF711
:10412000C2F9D4E90223FCF717F92A463346FCF713
:10413000BAF9D4E90023BDE8F041FCF70DB900005D
:104140000022134610460149FCF71FBA0000F03F59
:10415000FCF702B90022134610461146FCF715BAC7
:1041600040F2013200204FF0E041FCF752BC000069
:10417000024A00201107FCF74CBC000001FDFFFFC4
:1041800002E008C8121F08C1002AFAD17047704720
:10419000002001E001C1121F002AFBD1704700007E
:1041A0000149086070470000440000202DE9FF5FCE
:1041B00082B00021DDE90430020DDDF840B0034398
:1041C00018D044F61050A2F2FF3242431514119851
:1041D00001281FD0A5EB0B00401C5FEA000A4FF03E
:1041E00000064E4FDFF83891B046504615D5CAF15B
:1041F000000413E0119801244AA3012801D16FEAB9
:104200000B010298119AC0E90031C0E9024206B0E0
:10421000BDE8F09FCBF10000DFE704460021404AF3
:10422000491842EB0450CDE9001012E0E00707D036
:1042300032463B4640464946FCF735F980468946BA
:1042400032463B4610461946FCF72DF906460F4606
:104250006410002CEAD1DDE90401DDE90023BAF1A4
:10426000000F06DAFCF71FF942464B46FCF71BF934
:1042700005E0FCF78AF942464B46FCF786F904460E
:104280000E460022284BFCF761FC03D84FF0FF30AC
:10429000014607E00022254B20463146FCF75CF83A
:1042A000FCF723FC102409E0002C0ADB0A2200237F
:1042B000FCF79AFA039B30321A55641E50EA010249
:1042C000F2D1641C039AC4F111031444119A012A17
:1042D00003D0012208430DD10AE0084304D0002096
:1042E0004FF0110B119072E7A3EB0B056D1E0DE063
:1042F0005B4504DD4FF0000205F1010504E003DA3F
:104300004FF00002A5F10105002AECD002981199A6
:10431000C0E90231C0E9004579E70000000014401F
:104320000000F03F300000000000F0430000E03FDC
:104330002DE9FF4F95B09A46884606460025EEE1E6
:10434000252877D100242746F94A0121039400E06B
:10435000044316F8013F203B01FA03F01042F7D165
:1043600030782A2811D06FF02F033078A0F1300276
:10437000092A16D8039A44F0020402EB820203EBE6
:1043800042021044761C0390EFE758F8042B039286
:10439000002A03DA504244F40054039044F002042B
:1043A000761C30782E2816D116F8010F44F004043C
:1043B0002A280DD06FF02F023078A0F13003092B9E
:1043C00009D807EB870302EB4303C718761CF3E712
:1043D00058F8047B761C30786C280FD006DC4C280B
:1043E00017D068280DD06A2814D104E0742810D0A2
:1043F0007A280FD10DE044F400140AE044F480144C
:1044000001E044F440147278824202D104F5801431
:10441000761C761C307866280BD013DC582877D0B1
:1044200009DC002875D04528F6D04628F4D0472866
:104430001AD193E118E0632835D0642879D0652833
:1044400012D18BE1702873D008DC6728F1D069287D
:104450006FD06E280DD06F2806D1ACE073282CD019
:10446000752874D0782853D05246179990476D1C00
:1044700054E1C4F30250022809D003280DD0D8F823
:10448000001004280DD00D6008F1040846E1D8F8AA
:104490000010EA17C1E90052F6E7D8F800100D80C5
:1044A000F2E70D70F0E718F8041B8DF800100020FB
:1044B0008DF80100EB46012003E058F804BB4FF0F3
:1044C000FF3061074FF0000102D40DE009F1010156
:1044D0008946B9420FDA8145F8DB1BF8091000293B
:1044E000F4D108E009F1010189468142FADB1BF8A9
:1044F00009100029F6D103985346A0EB090721467D
:104500003846179A00F080FA284400EB090507E0C6
:1045100044E008E10DE01BF8010B52461799904763
:10452000B9F10109F7D2534621463846179AF2E00D
:1045300039E00A21C4F302524FF0000B0091022A25
:1045400006D058F8040BC117032A09D00AE023E06B
:1045500008F1070020F00702F2E80201904605E0AA
:1045600000B2C117042A01D140B2C117002906DAEE
:104570000A460021404261EB02012D2202E02205A1
:1045800004D52B228DF80420012203E0E20701D09C
:104590002022F7E7914657E00A2100E010214FF072
:1045A000000B00910BE010214FF0000B44F00404CD
:1045B0000827009103E008204FF0000B0090C4F39F
:1045C0000252022A05D058F8040B0021032A08D011
:1045D00008E008F1070020F00702F2E80201904627
:1045E00003E080B2042A00D1C0B24FF000092207D4
:1045F0002AD53278702A07D0DDF800C08CF0100C74
:104600005CEA0B0C05D00EE040228DF8042001225C
:1046100008E050EA010306D030238DF804308DF80D
:10462000052002229146009B83F0080353EA0B0306
:104630000AD150EA010201D1620705D530228DF876
:1046400004204FF001097F1E3278582A04D039A285
:104650000C920CAA02920BE03BA2F9E75B46009A8F
:10466000FCF7C2F80C9B9B5C029A521E02921370DC
:1046700050EA0102F2D1029804A9081A00F1200BB5
:10468000600702D524F4803400E001275F4502DD95
:10469000A7EB0B0000E0002000EB0B01009003985B
:1046A0004944401A0390E00306D453462146179A22
:1046B000039800F0A9F90544002706E001A8524636
:1046C000C05D179990476D1C7F1C4F45F6DBE003DA
:1046D0000CD553462146179A039800F095F90544E6
:1046E00004E030205246179990476D1C0099481EEF
:1046F00000900029F5DC08E0029802995246007803
:10470000491C0291179990476D1CBBF10001ABF158
:10471000010BF1DC5BE100F065F90544761C3078B3
:1047200000287FF40DAE19B02846BDE8F08F0000D8
:104730000928010030313233343536373839616277
:10474000636465660000000030313233343536373B
:10475000383941424344454600000000600700D418
:10476000062708F1070020F00700F0E80223804642
:1047700003F0004C5FEA0C0001D097A009E020058F
:1047800001D596A005E0E00701D095A001E0AFF2C9
:104790004C001390307823F0004365280CD006DCE1
:1047A000452809D046281DD047287FD13BE0662800
:1047B00018D067287AD136E00021112F01DB1120B3
:1047C00000E0781CCDE9000104A90CA8FFF7EEFC7D
:1047D000DDE90D010C9A4FF0000B07F10109109271
:1047E00000914EE04FF000400097CDE9011004A980
:1047F0000CA8FFF7DBFCDDE90D020C9B0F994FF0D5
:10480000000B91461093009211B9791C00EB01093D
:10481000B7EB090003D4C0F1FF3B07F10109A9EB95
:104820000700019042E0012F00DA01270021112F3B
:1048300001DD112000E03846CDE9000104A90CA8F3
:10484000FFF7B4FCDDE90D010C9A00914FF0000B6D
:10485000B946109221070FD4009A4A4503DA9146CF
:1048600001E0A9F10109B9F1010F05DD109AA9F1E3
:104870000101515C3029F4D0B84202DA10F1040F82
:1048800003DA0121CDE9011010E0002803DC8344A4
:10489000A9EB000102E0411C494500DD8946A0EB7F
:1048A0000B00401C01904FF000400290200705D4FF
:1048B0000198484502DB4FF0FF30019000208DF851
:1048C0004B0002980DF14B07B0F1004F25D00220AC
:1048D0000C902B200D90029800280CDA4042029098
:1048E0002D200D9007E00A210298FBF767FF303179
:1048F000029007F8011D0C99481E0C900029F2DC6B
:1049000002980028EFD1791E0D980870307800F0D9
:10491000200040F0450007F8020D11A8C01BC01D83
:1049200002901398007800B1012000EB0901019872
:1049300001EBE071029801440398401A401E039075
:10494000E00306D453462146179A039800F05CF81A
:1049500005441398007818B15246179990476D1C7A
:10496000E00323D553462146179A039800F04CF8EC
:1049700005441BE0BBF1000F07DB0098584504DD40
:104980001098179910F80B0001E017993020524643
:10499000904701980BF1010B401E05F101050190B4
:1049A00004D12E205246179990476D1CB9F1000191
:1049B000A9F10109DEDC05E017F8010B5246179951
:1049C00090476D1C0299481E02900029F4DC534662
:1049D0002146179A03989EE62D0000002B00000048
:1049E000200000002DE9F041044600251E46174630
:1049F000880404D405E039462020B0476D1C641EAD
:104A0000F9D52846BDE8F0812DE9F041044600259E
:104A10001E469046C80301D5302700E020278804B1
:104A200004D505E041463846B0476D1C641EF9D5F3
:104A30002846BDE8F08100002DE9F04F8FB00E460A
:104A40004FF06637FBF777FE0D460446132E58D914
:104A5000FD4AFE4BFBF727FD83460391204629467E
:104A600000224FF0804301F0E1FBF94AF94BFBF7DC
:104A70001AFD06468A46204629460022F64B01F0DA
:104A8000D5FBF64AF64BFBF70EFD814688462046DD
:104A900029460022F34B01F0C9FB0022F24BFBF741
:104AA00002FDCDE90510204629460022EF4B01F01A
:104AB000BDFB3A46EE4BFBF7F6FC07460791204656
:104AC00029460022EB4B01F0B1FB4FF06632EA4B76
:104AD000FBF7E9FC3A46079BFBF73EFCDDE90532B4
:104AE000FBF7DBFC4A464346FBF736FC32465346AF
:104AF000FBF7D3FC5A46039BFBF72EFCDF4AE04B47
:104B00005BE0112E5CD9DF4ADF4BFBF7CCFC814622
:104B100005912046294600224FF0804301F086FB94
:104B2000DA4ADB4BFBF7BFFC824688462046294623
:104B30000022C94B01F07AFBD64AD74BFBF7B3FCF6
:104B40008B460890204629460022C64B01F06EFB9A
:104B5000C24AD24B5242FBF7A6FC064602912046BF
:104B600029460022C14B01F061FB4FF06632CC4B6D
:104B7000FBF799FC07460391204629460022BD4BCE
:104B800001F054FB4FF06632C64BFBF78CFC3A4603
:104B9000039BFBF782FC3246029BFBF7DDFB5B4687
:104BA000089AFBF77AFC52464346FBF7D5FB4A4688
:104BB000059BFBF7D1FBBC4ABC4BFBF76EFCB7E097
:104BC0000F2E59D9BA4ABB4BFBF76DFC80468A467B
:104BD0002046294600224FF0804301F027FB4FF08A
:104BE00033394A46B44BFBF75EFC06460791204634
:104BF00029460022984B01F019FB4A46AF4BFBF7C0
:104C000052FC81468B46204629460022954B01F0F6
:104C10000DFBAB4AAB4BFBF746FC03910A902046D9
:104C200029460022914B01F001FB0022A64BFBF725
:104C30003AFC02910C902046294600228D4B01F04F
:104C4000F5FA3A46A14BFBF72EFC029B0C9AFBF7B8
:104C500024FC039B0A9AFBF77FFB4A465B46FBF763
:104C60001CFC3246079BFBF777FB42465346FBF79B
:104C700014FC974A974B59E00D2E63D9964A974BEF
:104C8000FBF711FCCDE905102046294600224FF024
:104C9000804301F0CBFA924A924BFBF704FC834627
:104CA00004912046294600226B4B01F0BFFA0022F6
:104CB0008D4BFBF7F8FB81468A46204629460022A9
:104CC000684B01F0B3FA4FF03332884BFBF7EBFB44
:104CD00006468846204629460022644B01F0A6FA83
:104CE0003A46834BFBF7DFFB0746039120462946F4
:104CF0000022604B01F09AFA714A7E4BFBF7D3FB1E
:104D00003A46039BFBF7C9FB32464346FBF724FBBD
:104D10004A465346FBF7C1FB5A46049BFBF71CFB74
:104D2000DDE90532FBF7B9FB734A744BFBF714FB63
:104D3000FBF714FD4FF07E51884200DB08460FB0B0
:104D4000BDE8F08F0B2E58D9574A6D4BFBF7ABFBE4
:104D500083460E462046294600224FF0804301F04C
:104D600065FA684A684BFBF79EFB80468A462046F8
:104D700029460022384B01F059FA644A644BFBF78C
:104D800092FB81460291204629460022354B01F0D4
:104D90004DFA5C4A5F4BFBF786FBCDE904012046E8
:104DA00029460022314B01F041FA3A465A4BFBF7B3
:104DB0007AFB0F460C902046294600222D4B01F02D
:104DC00035FA4FF03332554BFBF76DFB3B460C9AEF
:104DD000FBF763FBDDE90423FBF7BEFA4A46029BBF
:104DE000FBF75BFB42465346FBF7B6FA5A4633469F
:104DF000FBF753FB4A4A4B4B98E7082E22D94A4A05
:104E00004A4BFBF750FB06468946204629460022BE
:104E10004FF0804301F00AFA454A464BFBF743FB4B
:104E2000834609912046294600220B4B01F0FEF9EA
:104E3000414A424BFBF737FB8246884620462946CB
:104E400000227DE0B4E00000C3D32B651962054069
:104E50002DB29DEFA706324000000840F6285C8F77
:104E6000C20D6E400000104000F29240000014405D
:104E70006679A44000001840662A9FC08F537424AE
:104E800097FFA03FCA32C4B12E6EED3F986E1283D9
:104E9000C04A3840295C8FC2F52867403DC687402C
:104EA0006694994066FA9640C7BAB88D06F0863F78
:104EB000F0A7C64B37892F40330B714033979E4084
:104EC0009A9999999946BC400002CA4066E4C2404A
:104ED0007DAEB6627FD9D93FF5DBD78173C601407D
:104EE0008195438B6C27514000487D403325994084
:104EF0006658A54099DF9C4011363CBD5296B13FA3
:104F000006301240CDCCCCCCCC7C5C40EC51B81EF1
:104F100085038C40CCCCAB40E6F2BA40B34FB440F2
:104F20001904560E2DB2BD3F022B8716D90E26400E
:104F30001F85EB51B86E5B408FC2F5285C3D844005
:104F4000764B01F073F9764A764BFBF7ACFACDE974
:104F50000710204629460022734B01F067F94FF0F5
:104F60006632724BFBF79FFA0F46069020462946A1
:104F700000226F4B01F05AF94FF066326D4BFBF790
:104F800092FA3B46069AFBF7E7F9DDE90732FBF7B1
:104F900084FA52464346FBF7DFF95A46099BFBF772
:104FA0007CFA32464B46FBF7D7F9634A634B04E67B
:104FB000042E58D9624A634BFBF775FA88460C9069
:104FC0002046294600224FF0804301F02FF90022AD
:104FD0005D4BFBF768FA06468B46204629460022C1
:104FE0005A4B01F023F95A4A5A4BFBF75CFA8146B7
:104FF0008A46204629460022484B01F017F94FF017
:105000003332554BFBF74FFACDE9071020462946BE
:105010000022454B01F00AF90022504BFBF743FAFE
:1050200003910690204629460022414B01F0FEF8EC
:105030003A464B4BFBF737FA039B069AFBF72DFAE0
:10504000DDE90732FBF788F94A465346FBF725FAB4
:1050500032465B46FBF780F943460C9AFBF71DFA94
:10506000404A414B62E6414A414BFBF71CFA8146FC
:1050700007912046294600224FF0804301F0D6F8E0
:105080003C4A3D4BFBF70FFA8346884620462946AB
:1050900000222E4B01F0CAF84FF06632374BFBF777
:1050A00002FA06460F462046294600221B4B01F015
:1050B000BDF8274A324BFBF7F6F9824605912046A8
:1050C00029460022184B01F0B1F800222D4BFBF7C6
:1050D000EAF9CDE90201204629460022144B01F0ED
:1050E000A5F84FF06632284BFBF7DDF9DDE9022326
:1050F000FBF7D3F95246059BFBF72EF932463B46A8
:10510000FBF7CBF95A464346FBF726F94A46079B7D
:10511000FBF7C3F91D4A1E4B08E6000000001040D3
:10512000CDCCCCCCCCA69E400000144066D9A64085
:105130000000184066469AC08351499D8026D23FA0
:1051400085EB51B81E65354000D073400000084023
:105150009A999999996EA04033A0BC40800AC940A1
:10516000E652C140006F8104C58FE33F9318045697
:105170000ECD3B40713D0AD7A3687840667BA340C3
:105180009955C04080A8CB40A6A7C24009F9A067A6
:10519000B3EAE93F2DE9F05F0C4642F210774FF099
:1051A000005BFBF7C8FA0E460546BC4213D300224B
:1051B000FC4B01F03BF84FF06042FB4BFBF773F9FF
:1051C00007460C46002228463146134601F02EF8C9
:1051D0005A46F64B30E042F24860844215D32846E6
:1051E0000022F04B01F022F84FF06042F04BFBF749
:1051F0005AF904460F46002228463146134601F06C
:1052000015F84FF04042EB4B4FE0B4F5165F18D362
:1052100028460022E34B01F009F8D8465A46E64BEF
:10522000FBF741F907460C46002228463146134653
:1052300000F0FCFF4246E14BFBF735F93A462346C6
:1052400037E042F2B8404FF08048844213D32846FA
:105250000022D44B00F0EAFF4246D94BFBF723F97A
:1052600007460C46002228463146134600F0DEFF72
:105270000022D44BE0E742F2F0304FF02049844264
:105280001DD328460022C74B00F0D0FF4A46CE4B24
:10529000FBF709F904460F4600222846314613461B
:1052A00000F0C4FF4FF00042C84BFBF7FCF8224669
:1052B0003B46FBF751F8BDE8F05FFBF74FBA42F20F
:1052C0002830C34F844213D328460022B54B00F048
:1052D000ADFF00223B46FBF7E6F804460F460022EE
:1052E00028463146134600F0A1FF5A46B94BDCE789
:1052F00042F26020844214D328460022A94B00F0D9
:1053000095FF4246B44BFBF7CEF804460F46002209
:1053100028463146134600F089FF4FF00042AF4B5C
:10532000C3E742F298104FF0C04A844214D3284693
:1053300000229C4B00F07AFF4FF06042A84BFBF735
:10534000B2F807460C46002228463146134600F0C4
:105350006DFF5246A34B6FE742F2D000844214D354
:10536000284600228F4B00F061FF4FF000429E4B19
:10537000FBF799F807460C460022284631461346AB
:1053800000F054FF5A46994B56E742F20800844217
:1053900013D328460022834B00F048FF4A46944B23
:1053A000FBF781F804460F46002228463146134693
:1053B00000F03CFF4A468F4B77E7B4F5FA5F13D312
:1053C00028460022774B00F031FF52468A4BFBF70C
:1053D0006AF804460F46002228463146134600F07C
:1053E00025FF5246854B60E741F67860844213D32F
:1053F000284600226B4B00F019FF4A46804BFBF712
:1054000052F807460C46002228463146134600F063
:105410000DFF5A467B4B0FE741F6B050844214D340
:10542000284600225F4B00F001FF4FF06042764BB0
:10543000FBF739F807460C4600222846314613464A
:1054400000F0F4FE4246714BF6E641F6E840844235
:1054500014D328460022534B00F0E8FE00226C4B88
:10546000FBF721F807460C46002228463146134632
:1054700000F0DCFE4FF04042664BDDE6B4F5E15F44
:1054800014D328460022474B00F0D0FE4FF0604274
:10549000614BFBF708F804460F46002228463146C8
:1054A000134600F0C3FE00225C4BFEE641F6583086
:1054B000844215D3284600223A4B00F0B7FE4FF045
:1054C0000042574BFAF7EFFF07460C4600222846EA
:1054D0003146134600F0AAFE4FF04042514BABE676
:1054E00041F69020844213D3284600222D4B00F031
:1054F0009DFE42464C4BFAF7D6FF07460C4600226B
:1055000028463146134600F091FE5A46474B93E633
:1055100041F6C810844214D328460022214B00F0E3
:1055200085FE4FF00042424BFAF7BDFF07460C469E
:10553000002228463146134600F078FE52463D4B85
:105540007AE6B4F5C85F13D328460022154B00F065
:105550006DFE5A46384BFAF7A6FF07460C46002266
:1055600028463146134600F061FE4A46334B63E657
:1055700041F63800844267D328460022094B00F0E8
:1055800055FE4A462E4BFAF78EFF04460F46002280
:1055900028463146134600F049FE4FF04042294B61
:1055A00083E651E00000F03F94646D3F7409AFBFA3
:1055B000CA126D3F683AABBF990E6D3F7E37ADBFE3
:1055C0000BED6C3FEB1CABBF32C56C3FCA6AAABF88
:1055D000739F6C3F47ACADBF77496C3F0E65A8BF6A
:1055E000BE0E6C3FF2B1ABBF06D46B3F567FACBF73
:1055F00023806B3F0A7FA6BF8E736B3F0322ACBF35
:10560000E74F6B3F1D1EAABFEE3A6B3F17D4A7BFF3
:105610009D496B3F1188A7BF436D6B3FCBD8A8BF97
:1056200003936B3F35E9A6BF71C76B3FE5D2A8BFB7
:1056300042046C3F3F36A9BF904B6C3F0568ABBF3F
:1056400068736C3F33DAAABF41F27070844214D39E
:1056500028460022FB4B00F0E9FD4FF04042FA4B98
:10566000FAF721FF04460F4600222846314613462A
:1056700000F0DCFD4246F54B17E641F2A86084429B
:1056800015D328460022EF4B00F0D0FD4FF000422A
:10569000EF4BFAF708FF07460C4600222846314632
:1056A000134600F0C3FD4FF06042EA4BC4E5B4F589
:1056B000AF5F14D328460022E24B00F0B7FD4FF055
:1056C0006042E54BFAF7EFFE04460F4600222846FB
:1056D0003146134600F0AAFD5246E04BE5E541F2A3
:1056E0001850844214D328460022D64B00F09EFD69
:1056F0000022DB4BFAF7D7FE07460C46002228466D
:105700003146134600F092FD4FF04042D54B93E5F1
:1057100041F25040844213D328460022C94B00F086
:1057200085FD4246D04BFAF7BEFE04460F460022E6
:1057300028463146134600F079FD5A46CB4BB4E576
:1057400041F28830844213D328460022BD4B00F03A
:105750006DFD00223B46FAF7A6FE07460C460022E6
:1057600028463146134600F061FD5246C04B63E5C2
:10577000B4F5965F14D328460022B24B00F056FDD4
:105780004FF00042BB4BFAF78EFE04460F46002254
:1057900028463146134600F049FD0022B64B84E509
:1057A00041F2F810844213D328460022A54B00F0A2
:1057B0003DFD5A46B14BFAF776FE07460C460022ED
:1057C00028463146134600F031FD0022AC4B33E54C
:1057D00041F23010844213D328460022994B00F046
:1057E00025FD0022A74BFAF75EFE07460C46002275
:1057F00028463146134600F019FD5246A24B1BE5E0
:1058000041F26800844213D3284600228D4B00F0F9
:105810000DFD42469D4BFAF746FE07460C46002218
:1058200028463146134600F001FD4246984B03E5F9
:10583000B4F57A6F14D328460022824B00F0F6FCB0
:105840004FF04042934BFAF72EFE07460C460022DB
:1058500028463146134600F0E9FC4A468E4BEBE4FD
:1058600040F6D860844214D328460022754B00F0DD
:10587000DDFC4FF06042894BFAF715FE07460C46F7
:10588000002228463146134600F0D0FC4A46844B9D
:10589000D2E4B4F5616F13D328460022694B00F0BF
:1058A000C5FC5A467F4BFAF7FEFD04460F46002220
:1058B00028463146134600F0B9FC4A467A4BF4E4D8
:1058C00040F64850844214D3284600225D4B00F035
:1058D000ADFC4FF04042754BFAF7E5FD07460C462C
:1058E000002228463146134600F0A0FC5A46704B71
:1058F000A2E4B4F5486F14D328460022514B00F0BF
:1059000095FC4FF060426B4BFAF7CDFD04460F4615
:10591000002228463146134600F088FC0022664BE0
:10592000C3E440F6B830844214D328460022454BE5
:1059300000F07CFC4FF04042604BFAF7B4FD0746A4
:105940000C46002228463146134600F06FFC4A46BA
:105950005B4B71E4B4F52F6F14D328460022394B0A
:1059600000F064FC0022574BFAF79DFD04460F46F9
:10597000002228463146134600F058FC4FF0004202
:10598000514B92E440F62820844214D3284600224A
:105990002C4B00F04BFC5A464C4BFAF784FD074663
:1059A0000C46002228463146134600F03FFC4FF0DB
:1059B0006042474B40E4B4F5166F14D328460022EA
:1059C000204B00F033FC4FF06042424BFAF76BFD86
:1059D00007460C46002228463146134600F026FCB6
:1059E0005A463D4B28E440F69800844213D328469B
:1059F0000022144B00F01AFC5A46384BFAF753FDBC
:105A000004460F46002228463146134600F00EFC9D
:105A10004246334B49E4B4F5FA6F68D32846002276
:105A2000084B00F003FC5A462E4BFAF73CFD0446A7
:105A30000F46002228463146134600F0F7FB424647
:105A4000294B32E40000F03FA4A36C3FCCECABBF89
:105A500084B66C3FE9CEABBF00C16C3F6935ACBFCB
:105A6000E8BE6C3F61BEACBF08AC6C3FF433ADBF69
:105A700041D3AABF48866C3FD715ABBFCC7B6C3FE8
:105A8000A48BADBFE57D6C3FDAE2AABF419B6C3FC2
:105A9000D3BDAEBF19C36C3FAE0AACBFCA126D3FD7
:105AA000CCB1ACBF9F906D3FC0E6B0BFB6296E3F92
:105AB0007BF6B0BFDFD96E3FB1DEB0BFC8AF6F3F7E
:105AC000CCEAB1BFC556703FC1A7B1BF22E0703F5D
:105AD0000566B1BF9596713F3B53B4BF6D55723F9C
