:020000040800F2
:10000000F80B0020490100085101000853010008C5
:1000100055010008570100085901000800000000C0
:100020000000000000000000000000005B0100086C
:100030005D010008000000005F0100086101000888
:100040006301000863010008630100086301000800
:1000500063010008630100086301000863010008F0
:10006000630100086301000863010008390B000800
:1000700063010008630100086301000863010008D0
:1000800063010008630100086301000863010008C0
:1000900063010008630100086301000863010008B0
:1000A00063010008630100086301000863010008A0
:1000B0006301000863010008630100086301000890
:1000C0006301000863010008630100086301000880
:1000D00063010008191000086301000863010008AB
:1000E0006301000863010008630100086301000860
:1000F0006301000863010008630100086301000850
:10010000630100086301000863010008630100083F
:10011000630100086301000863010008630100082F
:10012000630100086301000863010008630100081F
:10013000DFF810D000F088FB00480047AD18000839
:10014000AFF30080F80B00200648804706480047C0
:10015000FEE7FEE7FEE7FEE7FEE7FEE7FEE7FEE777
:10016000FEE7FEE7B90F000831010008F0B480EAAD
:100170000102D40F4200B2EB410F02D20246084600
:1001800011464A0042D0C30DDDB2C1F3C752AD1AC9
:10019000202D35DAC1F3160141F4000204B15242B8
:1001A000C5F1200602FA06F12A411044B3EBD05FF4
:1001B00023D0C4B1012DA0EBC35009DCF0BC4FF03B
:1001C000004202EAC352DBB200F5000000F09CBA24
:1001D000400000F1807000EBC350A0F1807040EA55
:1001E000D170490009E0490841EAC071A0EBC35051
:1001F00000F50000400800EBC350F0BC00F07BBAF3
:100200006142012202EB4101001BF6E7F0BC70479E
:1002100081F00041AAE780F00040A7E780EA0102F0
:1002200010B502F00043400022D04A001FD0010E5A
:1002300001EB1261C0F35600C2F3560240F4000015
:1002400042F40002A0FB022000047F39140400D015
:10025000401C50EA124001D44000491EC2B20C06B4
:1002600004EBD010401C4008802A02D003E000209C
:1002700010BD20F00100002900DA0020184310BD55
:1002800030B480EA010202F0004530F0004221F073
:10029000004013D090B1C30DD40DC2F31601C0F3CA
:1002A0001600E41A41F4000140F400027D3491424A
:1002B00001D3641C00E04900002C02DA30BC0020AD
:1002C00070474FF400000023914201D3891A034381
:1002D00040084FEA4101F7D151B1914202D14FF0AC
:1002E000004105E002D24FF0010101E06FF0010191
:1002F00003EBC450284430BC00F0FDB92DE9FE4F9B
:10030000804681EA0300C00F0C46009021F00041B6
:1003100023F00045B8EB0200A94105D24046214632
:1003200090461C460B46024623F00040104347D03F
:10033000270DC7F30A00C3F30A510290401A019037
:1003400040286BDAC3F3130040F4801B00989246F8
:1003500020B10023D2EB030A63EB0B0B0198594643
:10036000C0F14002504600F095F906460D46504651
:100370005946019A00F0ADF910EB080061410024E4
:1003800087EA115284EAE7731A4340D0009A62B3B5
:10039000019A012A4FEA075215DC001B61EB0201AA
:1003A0004FF0004202EA0752CDE90042001C41F53D
:1003B000801132462B4600F0F0F903B0BDE8F08F13
:1003C00040462146F9E7001B61EB0201001C41F5A4
:1003D000801300185B412018A2F5001747EB0301BA
:1003E00040EAD570B6196D4111E06D084FEA360646
:1003F00045EAC0754FEA0752001B61EB0201001C81
:1004000041F5801149084FEA300000195141324648
:100410002B4603B0BDE8F04F00F0B0B900980122C0
:1004200040000023D0EB020263EBE073009821460A
:100430004FEAE074B8EB000061EB0401E9E783F0F8
:1004400000435BE781F0004158E72DE9FE4F81EA68
:10045000030404F0004421F0004100944FF0000B2D
:1004600023F0004350EA01045ED052EA03045BD05B
:10047000C3F30A54C1F30A552C44A4F2F334019493
:10048000A0FB0254C1F3130141F48011C3F3130321
:1004900043F4801301FB024400FB034E840A970AD5
:1004A00044EA815447EA8357A4FB076802958D0A02
:1004B00005FB07854FEA932C04FB0C542705029D8E
:1004C0004FEA065847EA1637B5EB08056EEB070CFE
:1004D000870E920E47EA811742EA8312A7FB0201B8
:1004E000B6EB0B0164EB00042B0D43EA0C335E18F2
:1004F00044EB1C50DA465146E7FB0201C5F31304F6
:100500004FEA0B3343EA14534FEA0432019C43EAA7
:100510000603A4F10C040294009CCDE900B400F0A1
:100520003CF903B0BDE8F08F00200146F9E72DE962
:10053000F04D81EA030404F0004B21F0004514461D
:100540004FF0000A23F0004150EA050220D054EA9F
:1005500001021DD0C5F30A570246C5F31303C1F3C8
:100560001300C1F30A5640F4801543F48013A7EB3F
:100570000608101BD64608F2FD3873EB050002D3BF
:1005800008F1010801E092185B41B8F1000F03DAAD
:1005900000200146BDE8F08D00204FF48011064692
:1005A00084460EE0171B73EB050705D3121B63EBA4
:1005B000050306434CEA010C49084FEA3000921843
:1005C0005B4150EA0107EDD152EA030012D082EA02
:1005D000040083EA0501084305D0101BAB4106D295
:1005E0000122002306E000224FF0004302E06FF0FA
:1005F000010253101AEB06004CEB085110EB0A00F5
:1006000041EB0B01BDE8F04D00F0B8B89623002295
:10061000114600F079B80EB540F233410291002145
:10062000CDE900110A460B4600F0B7F803B000BD53
:1006300000F0004220F00040C10DC0F3160040F46D
:1006400000007F2901DA00207047962903DCC1F100
:100650009601C84001E096398840002AF4D0404213
:100660007047C1F30A5210B5C1F3130140F2FF33D2
:1006700041F480119A4201DA002010BD40F2334368
:100680009A42A2F2334203DC524200F012F810BD4B
:10069000904010BD202A04DB203A00FA02F100202D
:1006A00070479140C2F1200320FA03F319439040B0
:1006B0007047202A04DB203A21FA02F0002170471B
:1006C00021FA02F3D040C2F12002914008431946BA
:1006D0007047202A06DBCB17203A41FA02F043EAA2
:1006E000E07306E041FA02F3D040C2F120029140EB
:1006F0000843194670470029A8BF7047401C4900AD
:1007000008BF20F00100704710B4B0FA80FC00FA76
:100710000CF050EA010404BF10BC704749B1CCF1A1
:10072000200421FA04F411FA0CF118BF012121432D
:100730000843A3EB0C01CB1D4FEA00614FEA1020E8
:1007400042BF002010BC704700EBC350104400298A
:10075000A4BF10BC7047401C490008BF20F0010036
:1007600010BC7047420005D0C0F3C75252429142BC
:1007700001DC0020704700EBC150704710B5141E1B
:1007800073F1000408DA401C41F1000192185B414A
:100790001A4301D120F0010010BD2DE9F04D924621
:1007A0009B4611B1B1FA81F202E0B0FA80F2203238
:1007B0009046FFF76FFF04460F4640EA0A0041EA01
:1007C0000B0153465A46084313D0114653EA010021
:1007D00019D0C8F140025046FFF76BFF05460E46A0
:1007E000504659464246FFF755FF084305D00120C1
:1007F00004E020463946BDE8F08D0020054346EA76
:10080000E0762C4337430A986305E40AA0EB08001E
:100810000022FD0A44EA47540A3002D5002001466E
:10082000E9E7010510196941DDE908450019694149
:10083000BDE8F04DA2E7C10F80EAE0700844CA07A6
:1008400096230021FFF760BF064C074D06E0E068E5
:1008500040F0010394E8070098471034AC42F6D307
:10086000FFF76AFC041F0008241F000810B51021C0
:100870001A4800F08EFA0221184800F08AFA042182
:10088000164800F086FA0821144800F084FA0A207D
:1008900000F068F90821114800F07BFA8021104827
:1008A00000F077FA01210D4800F073FA072000F0FC
:1008B00053F8002000F050F8092000F04DF8002017
:1008C00000F04AF8602000F047F80421034800F0E7
:1008D00062FA0421014800F05CFA10BD001C0140DE
:1008E000000801402DE9F04107460C460026384635
:1008F00000F070F906250CE016B9022000F02CF883
:10090000691EC9B20D46124A505C00F025F8701CF1
:10091000C6B2002DF0DC082000F01EF8201200F016
:100920001BF8E0B200F018F8092000F015F82012CA
:1009300000F012F8E0B200F00FF80421054800F0D2
:100940002AFA0421034800F024FABDE8F0810000EF
:100950000A000020001C014070B50446082517E07D
:1009600004F0800020B120210B4800F014FA03E0CD
:100970002021094800F00DFA6006040E0221074804
:1009800000F007FA0221054800F005FA681EC5B21A
:10099000002DE5DC70BD000000080140001C014096
:1009A00070B50446651C2078EE280AD1288800EB33
:1009B000C00101EB00104FF6FF7101EA8000104901
:1009C00008802078DD2802D1284600F021F8207820
:1009D000EF2802D128880B4908802078DE2805D12D
:1009E00009480078C0F10100074908702078AA285A
:1009F00005D106480078C0F101000449087070BDB7
:100A00000000002002000020080000200900002053
:100A10002DE9FF478246BAF80000FFF7FCFD0E4AB9
:100A20000E4BCDE90001FFF710FD064600220C4BEE
:100A3000FFF764FC044600220A4BFFF778FD80466E
:100A40000022094BFFF701FDCDE90201FFF709FE86
:100A500006490880BDE8FF877B14AE47E1BA2B400A
:100A600000E8744000C8A94000FEAF400600002026
:100A700039B1084A1268012383401A43054B1A60B2
:100A800006E0044A1268012383409A43014B1A602E
:100A9000704700000074004000B585B00121480790
:100AA00000F0DEF90121042000F0EAF91020ADF891
:100AB000100000208DF8130004A9094800F0DEF8AA
:100AC000002000900190022003906946002000F071
:100AD00009F801210020FFF7CBFF05B000BD0000A1
:100AE0000008014030B5002200230A4C226840F67D
:100AF000FE748440A243D1E900452C438D682C4309
:100B0000CD6844EA050303FA00F42243014C226055
:100B100030BD00000074004008B500220092054A74
:100B2000009200F10802009B1A440092009A1160A2
:100B300008BD0000007400400848006800F0020092
:100B400050B101200649087000BF0448406840F0D9
:100B500002000249486000BF7047000000000240E8
:100B60001000002000BF072100BF0B2200BF531E52
:100B70009BB21A1EFBD14B1E9BB2191EF5D1431E10
:100B8000DBB2181EEFD1704700BF772100BF4322B0
:100B900000BF531E9BB21A1EFBD14B1E9BB2191EE7
:100BA000F5D1431EDBB2181EEFD1704700BF40F2F3
:100BB000712100BF3F2200BF531E9BB21A1EFBD102
:100BC0004B1E9BB2191EF5D1431EDBB2181EEED18F
:100BD0007047000018B50146144ACBB28DF80030BA
:100BE0000B0A8DF801300B0C8DF802300B0E8DF8CE
:100BF00003309DF8003003FB02F00D4C2070000A1A
:100C00009DF8013002FB03006070000A9DF802307D
:100C100002FB0300A070000A9DF8033002FB0300F2
:100C2000E070000A2071030A637118BD44E80F00E8
:100C30000A00002008B50121842000F021F9E020FD
:100C4000ADF8000003208DF8020010208DF803009D
:100C50006946084800F012F87F20ADF80000032034
:100C60008DF8020010208DF803006946024800F05C
:100C700005F808BD00080140001C01402DE9F041C5
:100C8000024600250026002000230024002791F8BA
:100C900003C00CF00F0591F803C00CF0100CBCF170
:100CA000000F03D091F802C04CEA050591F800C08E
:100CB000BCF1000F31D0146800202BE04FF0010C84
:100CC0000CFA00F3B1F800C00CEA03069E4220D1F2
:100CD00083004FF00F0C0CFA03F7BC4305FA03FC3A
:100CE0004CEA040491F803C0BCF1280F06D14FF080
:100CF000010C0CFA00FCC2F814C00AE091F803C021
:100D0000BCF1480F05D14FF0010C0CFA00FCC2F801
:100D100010C0401C0828D1D31460B1F800C0BCF149
:100D2000FF0F34DD546800202EE000F1080C4FF076
:100D3000010808FA0CF3B1F800C00CEA03069E4261
:100D400021D183004FF00F0C0CFA03F7BC4305FAD6
:100D500003FC4CEA040491F803C0BCF1280F05D150
:100D600000F1080C08FA0CF8C2F8148091F803C0DE
:100D7000BCF1480F07D100F1080C4FF0010808FA48
:100D80000CF8C2F81080401C0828CED35460BDE88F
:100D9000F0814161704701617047000008B5012191
:100DA000082000F06DF84FF4E050ADF8000010207E
:100DB0008DF8030003208DF8020069460648FFF70E
:100DC0005DFF01200549086000200549C1F8AC011C
:100DD00002490831086008BD000C0140A881214289
:100DE0000080214270B50446A006040E00201A4976
:100DF0000860012000F0E0FB002518E00020164903
:100E0000091D0860012000F0D7FBC4F3C01013498E
:100E1000C1F8B0016006040E012000F0CDFB0120F6
:100E20000D49091D086000F0C7FB681CC5B2062DFE
:100E3000E4DB00200849091D0860012000F0BCFB2C
:100E400000200649C1F8B001012000F0B5FB0120E7
:100E50000149086070BD0000A88121420080214244
:100E600029B1064AD2690243044BDA6104E0034A1D
:100E7000D2698243014BDA617047000000100240E2
:100E800029B1064A92690243044B9A6104E0034A7D
:100E900092698243014B9A61704700000010024042
:100EA000F1B56C460525FE26294608A000F008F994
:100EB000217806A000F004F9617804A000F000F9A0
:100EC000314602A000F0FCF8F8BD000025630000E8
:100ED00010B500F001F810BD0CB500200190009095
:100EE0003348006840F480303149086000BF304822
:100EF000006800F4003000900198401C01900098B8
:100F000018B90198B0F5A06FF1D12948006800F434
:100F1000003010B10120009001E000200090009806
:100F2000012843D12348006840F01000214908609F
:100F30000846006820F0030008600846006840F09A
:100F4000020008601A48406819494860084640682D
:100F500048600846406840F4806048600846406841
:100F600020F47C1048600846406840F4E81048606F
:100F70000846006840F08070086000BF0C480068B8
:100F800000F000700028F9D00948406820F0030004
:100F9000074948600846406840F00200486000BFCA
:100FA0000348406800F00C000828F9D10CBD00008F
:100FB000001002400020024010B51348006840F0C5
:100FC00001001149086008464068104908400E4970
:100FD0004860084600680E4908400B49086008460A
:100FE000006820F4802008600846406820F4FE0075
:100FF00048604FF41F008860FFF76AFF4FF0006001
:101000000449086010BD0000001002400000FFF815
:10101000FFFFF6FE08ED00E010B51F48008800F065
:10102000200020B31C48001D0088C4B21B48008863
:1010300000F40040D8B91948008800F4804070B12D
:10104000FE2C03D000201549088023E013480088B7
:1010500040F400401149088000F024F81AE0052C03
:1010600006D10E48008840F480400C49088011E009
:101070000A480088C0F30D0009490C54074800884D
:10108000401C0649088008460088B0F5FA6F01DB6D
:101090000020088010BD000000380140180000202A
:1010A0002400002010B5044804780448FFF778FCB9
:1010B00000200149088010BD1800002024000020F5
:1010C0000FB4054B10B503A9044A029800F02AF8A2
:1010D00010BC5DF814FB000001160008140000208D
:1010E00000214FF07E50FFF7CBB80121FFF73ABB4C
:1010F00000210846FFF7C4B802E008C8121F08C163
:10110000002AFAD170477047002001E001C1121F88
:10111000002AFBD1704700000149086070470000B9
:10112000200000202DE9F84F994692468846054652
:10113000002706E025280AD051464A4690476D1CF4
:101140007F1C28780028F5D13846BDE8F88F0023A9
:1011500015F8011F18462E2915D115F8011F042373
:101160002A290DD06FF02F022978A1F13004092C23
:1011700009D800EB800002EB400008446D1CF3E747
:1011800058F8040B6D1C2A78002ADDD0632A07D09A
:10119000732A0FD0104651464A4690477F1C2AE0DA
:1011A00018F8042B8DF8002000218DF801106E46F0
:1011B000012103E058F8046B4FF0FF315A074FF05C
:1011C000000401D409E0641C84420BDA8C42FADB8F
:1011D000325D002AF7D105E0641C8C42FCDB305DF7
:1011E0000028F9D1274404E016F8010B51464A467D
:1011F0009047641EF8D26D1CA3E700002DE9FF4F55
:1012000083B00C4615461E46052C21DC0398FFF7DB
:10121000FDF9D0490190FFF701F88346CE49FFF769
:101220002FF88246CD49FEF7F6FFCD490290FFF731
:1012300027F8814600F060FA8046CA49FEF7EEFFC3
:101240000746FFF7F5F90A303060C82028607EE1D4
:10125000062C22D10398FFF7D9F9BE490190FEF779
:10126000DDFFBD490290FFF70BF88346BB49FEF74F
:10127000D2FF82464FF08241FFF702F8814600F02C
:101280003BFA8046B749FEF7C9FF0746FFF7D0F99A
:101290000A303060C820286059E1072C22D1039819
:1012A000FFF7B4F9AB490190FEF7B8FF8346AA49AE
:1012B000FEF7E6FF8246A949FEF7ADFF81464FF0F3
:1012C0008241FEF7DDFF029000F016FA8046A54944
:1012D000FEF7A4FF0746FFF7ABF90A303060DC20C9
:1012E000286034E1082C21D10398FFF78FF9994940
:1012F0000190FEF793FF98490290FEF7C1FF8346E5
:101300009649FEF788FF82469749FEF7B9FF814666
:1013100000F0F2F980469349FEF780FF0746FFF799
:1013200087F90A303060C820286010E1092C21D1EB
:101330000398FFF76BF987490190FEF76FFF83462B
:101340008549FEF79DFF85490290FEF764FF8246BE
:101350008649FEF795FF814600F0CEF98046814927
:10136000FEF75CFF0746FFF763F90A303060C820DC
:101370002860ECE0142C2FDCC4EB041101EB81009D
:10138000C11700EB5171C91033398CB22046FFF7F9
:101390003DF902900398FFF739F96E490090FEF786
:1013A0003DFF83466C49FEF76BFF6C490190FEF7E9
:1013B00032FF82460299FEF763FF814600F09CF9F6
:1013C00080466849FEF72AFF0746FFF731F90A30E1
:1013D0003060C8202860BAE02D2C29DC6000293854
:1013E00084B22046FFF712F902900398FFF70EF936
:1013F00058490090FEF712FF57490190FEF740FF51
:1014000083465649FEF707FF82460299FEF738FFEA
:10141000814600F071F980465249FEF7FFFE07460B
:10142000FFF706F90A30306040F2073028608EE09E
:101430003C2C2FDC20010A2190FBF1F01C3884B2F7
:101440006000253884B22046FFF7E0F80290039848
:10145000FFF7DCF83F490090FEF7E0FE3E490190BF
:10146000FEF70EFF83463D49FEF7D5FE8246029900
:10147000FEF706FF814600F03FF980463949FEF746
:10148000CDFE0746FFF7D4F80A30306040F207304F
:1014900028605CE0462C2CDC60010A2190FBF1F016
:1014A0004B3884B22046FFF7B1F802900398FFF75B
:1014B000ADF828490090FEF7B1FE27490190FEF7EC
:1014C000DFFE83462549FEF7A6FE82460299FEF717
:1014D000D7FE814600F010F980462249FEF79EFEB5
:1014E0000746FFF7A5F80A30306040F20730286061
:1014F0002DE040F23E2060434FF47A7190FBF1F012
:10150000193884B22046FFF781F802900398FFF75C
:101510007DF817490090FEF781FE83460E49FEF7DD
:10152000AFFE14490190FEF776FE82460299FEF75F
:10153000A7FE814600F0E0F880460A49FEF76EFEFD
:101540000746FFF775F8306040F2F470286007B086
:10155000BDE8F08FC9763E3E0000C8420000D5428B
:101560000000E0400000A041000040410000884130
:1015700021B0323F48218D434FF0E021096941F00D
:1015800004014FF0E0221161054908601146096924
:1015900041F0010111616FF070415161704700002D
:1015A0001C00002010B504464FF47A7104FB01F0D2
:1015B00000F002F810BD000070B5034600224FF0A5
:1015C000E02675690D4E366803FB06F44FF0E02601
:1015D000B16910E04FF0E026B06988420BD0884234
:1015E00002D20E1A324402E02E1A0E443244014650
:1015F000A24200D300E0EDE700BF70BD1C00002058
:1016000000BF054A128802F04002002AF9D0C2B297
:10161000014B1B1D1A807047003801401CB500BFEC
:101620001848806940F040001649886100BF00BF3B
:101630000846806940F04000886100BF00BF08464E
:10164000806940F00400886100BF01200090002301
:101650001A46102101900C4800F0CCFA01200090AD
:1016600000231A4608210190074800F0C3FA02201F
:10167000012100231A46CDE90010044800F0BAFA0F
:101680001CBD00000010024000180140000801408D
:101690001CB500BF1548806940F0080013498861F7
:1016A00000BF00BF0846806940F04000886100BF6D
:1016B0000120009000230246202101900C4800F0F8
:1016C00099FA012000900023024620210190094848
:1016D00000F090FA01222021054800F07FFA012253
:1016E0002021044800F07AFA1CBD000000100240DE
:1016F000000C0140001801402DE9F0410026A0F542
:101700000001B1F1FE4F7DD200F500226FF07E01A5
:1017100001EBE251C2F3025477184FF07E52A0EB76
:10172000C15602EB045557EA040047D0294630461B
:10173000FEF71CFD804629463046FEF769FD41460E
:10174000FEF79EFD05460146FEF768FD80464A49C4
:10175000FEF764FD4949FEF709FD06464146284665
:10176000FEF75CFD3146FEF759FD06463846FFF7A9
:1017700062F807464249FEF751FD4249794451F863
:101780002410FEF7F3FC3146FEF7F0FC06463E4916
:101790002846FEF743FD3146FEF7E8FC054638468D
:1017A0003A49FEF73BFD3A49794451F82410FEF7D7
:1017B000DDFC2946BDE8F041FEF7D8BC4FF07E5174
:1017C0003046FEF725FD05463249FEF727FD324932
:1017D000FEF7CCFC2946FEF721FD3049FEF7C6FC9A
:1017E0002946FEF71BFD2E49FEF7C0FC044629469C
:1017F0000846FEF713FD2146FEF710FD0446294971
:10180000284600E00EE0FEF709FD2146FEF7AEFC9B
:10181000044625492846FEF701FD2146BDE8F04172
:10182000FEF7A4BC4FF07F42B2EB400F03D2BDE8FD
:10183000F041FFF75ABCB0F1FF4F08BFBDE8F0819F
:10184000B0F1004F06D90120FFF766FCBDE8F0417A
:10185000FFF74EBC30F0004105D06FF0160617219F
:10186000FEF780FF50E70220FFF756FCFFF738FC39
:1018700080F00040BDE8F081DE02323E3B3D943E08
:10188000FC849A3664070000D95B5E3F00209A3ED4
:1018900018070000924FA93D7279DEBD2D3E143E1F
:1018A000D85B5EBE157B4B3C0000D83E1CB540F2B9
:1018B000FF7001904FF4E164092000F069FA4820BC
:1018C000FFF75AFEA101482000F09AFA6420FFF7C2
:1018D0006DF9FFF7AFF90520FFF756F9FEF7C6FFE0
:1018E000FFF75CFA0F20FFF74FF9FFF7D1FEFFF784
:1018F00095FE8949098842F2107201FB02F02146E7
:10190000FEF7F0FF0020FFF76DFA6B4601AA83484F
:10191000018881480088FFF771FC019A91B27E4AE4
:10192000128842F2107302FB03F0FEF7DBFF00990E
:10193000C8B2FFF757FAFFF7AFF840F6FF71002083
:10194000FFF7EAF8E6E06B4601AA7448018872489E
:101950000088FFF753FC019A91B26F4A128842F255
:10196000107302FB03F0FEF7BDFF0099C8B2FFF74A
:1019700039FA6B4801880020FFF7CEF866480088E6
:10198000642190FBF1F085B22846FFF789FA6420C4
:10199000FFF708FE33E06B4601AA604801885E4805
:1019A0000088FFF72BFC019A91B25B4A128842F241
:1019B000107302FB03F0FEF795FF0099C8B2FFF722
:1019C00011FA574801880020FFF7A6F8524800880E
:1019D000642190FBF1F085B22846FFF761FA3220CE
:1019E000FFF7E0FD00BF4F48006880F020004D4940
:1019F000086000BF484800886430474908804A486A
:101A0000007820B144480088B0F57A6FC3DD33E038
:101A10006B4601AA414801883F480088FFF7EEFB6A
:101A2000019A91B23C4A128842F2107302FB03F011
:101A3000FEF758FF0099C8B2FFF7D4F9384801887B
:101A40000020FFF769F834480088642190FBF1F02A
:101A500085B22846FFF724FA3220FFF7A3FD00BF26
:101A60003048006880F020002E49086000BF2A48F6
:101A700000886438284908802B48007818B1264827
:101A800000886428C4DA29480078002842D0002061
:101A90002149088033E06B4601AA204801881E488E
:101AA0000088FFF7ABFB019A91B21B4A128842F201
:101AB000107302FB03F0FEF715FF0099C8B2FFF7A1
:101AC00091F9174801880020FFF726F8124800888E
:101AD000642190FBF1F085B22846FFF7E1F90A2076
:101AE000FFF760FD00BF0F48006880F020000D493F
:101AF000086000BF084800886430074908800B4828
:101B0000007820B104480088B0F57A6FC3DD00206A
:101B10000649087017E700000000002002000020BE
:101B2000060000200C0C01400800002009000020E5
:101B300010B5024600210020264B1B6843F4803379
:101B4000244C23600AE000BF224B1B6803F40033DF
:101B50001BB1B1F5004F00D904E0491C4FF6F073FA
:101B60009942F0D300BF4FF6F073994201D30120A0
:101B70002FE04FF48063174C6360921E23465B682E
:101B800043EA8243636023465B6843F480336360C7
:101B90001023114C236023461B6843F0020323608B
:101BA0000C4B1B6843F080730A4C236000BF094B49
:101BB0001B685B0E002BFAD0064B5B6843F00203F8
:101BC000044C636000BF034B5B68C3F38103022BCB
:101BD000F9D110BD001002400020024002F00103C4
:101BE0001BB103690B43036103E0036943EA01434B
:101BF000036170472DE9F04F0E461D46DDE909C42B
:101C0000002100278846002300BF64E04FF001094F
:101C100009FA01F706EA0708B8455BD10023012A53
:101C200001D0022A0AD10CF0030305F0010943EAAE
:101C30008903A2F1010943EAC90318E0BAB90CB952
:101C4000042314E00823D0F80C904FF0010A0AFA9C
:101C500001FA29EA0A09C0F80C90D0F80CA004F0A7
:101C6000010909FA01F94AEA090AC0F80CA0072992
:101C700016D8D0F800904FEA810B4FF00F0A0AFAFD
:101C80000BFA29EA0A09C0F80090D0F800904FEA50
:101C9000810A03FA0AFA49EA0A09C0F8009019E031
:101CA000D0F80490A1F1080A4FEA8A0B4FF00F0A0E
:101CB0000AFA0BFA29EA0A09C0F80490D0F804904D
:101CC000A1F1080A4FEA8A0A03FA0AFA49EA0A095C
:101CD000C0F80490491C102998D3BDE8F08F00008B
:101CE0002DE9F0410746884614461D46284600F077
:101CF00033F8C5F1040007FA00F60F20284100EA86
:101D00000800064306F00F06E21704EBD2625211F8
:101D1000920002F1E022D2F800212146E31704EB01
:101D2000D3635B11A4EB431C012303FA0CF31A43A6
:101D30002046E31704EBD3635B119B0003F1E02320
:101D4000C3F800210348005D40EA06100149085528
:101D5000BDE8F08100E400E00146072323EA010228
:101D60001202054B18684FF6FF031840034B184347
:101D70001043014B186070470CED00E00000FA05BD
:101D80004A0A52020243014B1A60704708ED00E014
:101D900010B50446002017490861C8601420486146
:101DA00000208861C8610846006840F001000860B2
:101DB00008464068104908400E49486008460068D7
:101DC0000E4908400B4908600846006820F480204E
:101DD00008600846406820F4FE0048604FF41F0089
:101DE00088602046FFF7A4FE00214FF00060FFF757
:101DF000C7FF10BD001002400000FFF8FFFFF6FE15
:101E00007CB506460C4600BF2A48806940F00400B5
:101E10002849886100BF00BF0846806940F004007F
:101E2000886100BF00BF0846806940F48040886137
:101E300000BF0120032100230222CDE9001041024E
:101E40001D48FFF7D7FE0120032100231A46CDE9E4
:101E5000001081021848FFF7CDFE1848704300EBD0
:101E60005400B0FBF4F516490D800020091D0880D0
:101E70000846008808800846008840F0080008806E
:101E80000846008840F0040008800846008840F0BA
:101E9000200008800223252203210846FFF720FFA7
:101EA0000748001D008840F400500549091D0880BE
:101EB0007CBD0000001002400008014040420F00BD
:101EC00008380140000000000080513D0070C63D10
:101ED00000900D3E0050343E00E0573E00D0783E6A
:101EE00000C08B3E000000000AD6A936431C8C3788
:101EF000658F7338832DA236121D1F38B3756F3866
:101F0000D2535A38241F000800000020240000008B
:101F1000F8100008481F000824000020D40B00001F
:101F200008110008D00732000000F702000000008E
:101F300000000000000000000000000000000000A1
:081F4000000000000000000099
:0400000508000131BD
:00000001FF
