:020000040800F2
:10000000F00B0020490100085101000853010008CD
:1000100055010008570100085901000800000000C0
:100020000000000000000000000000005B0100086C
:100030005D010008000000005F0100086101000888
:100040006301000863010008630100086301000800
:1000500063010008630100086301000863010008F0
:10006000630100086301000863010008C10900087A
:1000700063010008630100086301000863010008D0
:1000800063010008630100086301000863010008C0
:1000900063010008630100086301000863010008B0
:1000A00063010008630100086301000863010008A0
:1000B0006301000863010008630100086301000890
:1000C0006301000863010008630100086301000880
:1000D00063010008A10E0008630100086301000825
:1000E0006301000863010008630100086301000860
:1000F0006301000863010008630100086301000850
:10010000630100086301000863010008630100083F
:10011000630100086301000863010008630100082F
:10012000630100086301000863010008630100081F
:10013000DFF810D000F002FB00480047B5130008BC
:10014000AFF30080F00B00200648804706480047C8
:10015000FEE7FEE7FEE7FEE7FEE7FEE7FEE7FEE777
:10016000FEE7FEE7410E0008310100082DE9FE4FD1
:10017000804681EA0300C00F0C46009021F0004148
:1001800023F00045B8EB0200A94105D240462146C4
:1001900090461C460B46024623F00040104347D0D1
:1001A000270DC7F30A00C3F30A510290401A0190C9
:1001B00040286BDAC3F3130040F4801B009892468A
:1001C00020B10023D2EB030A63EB0B0B01985946D5
:1001D000C0F14002504600F0ECF906460D4650468C
:1001E0005946019A00F004FA10EB0800614100241E
:1001F00087EA115284EAE7731A4340D0009A62B347
:10020000019A012A4FEA075215DC001B61EB02013B
:100210004FF0004202EA0752CDE90042001C41F5CE
:10022000801132462B4600F03BFA03B0BDE8F08F58
:1002300040462146F9E7001B61EB0201001C41F535
:10024000801300185B412018A2F5001747EB03014B
:1002500040EAD570B6196D4111E06D084FEA3606D7
:1002600045EAC0754FEA0752001B61EB0201001C12
:1002700041F5801149084FEA3000001951413246DA
:100280002B4603B0BDE8F04F00F0FBB90098012207
:1002900040000023D0EB020263EBE073009821469C
:1002A0004FEAE074B8EB000061EB0401E9E783F08A
:1002B00000435BE781F0004158E72DE9FE4F81EAFA
:1002C000030404F0004421F0004100944FF0000BBF
:1002D00023F0004350EA01045ED052EA03045BD0ED
:1002E000C3F30A54C1F30A552C44A4F2F334019425
:1002F000A0FB0254C1F3130141F48011C3F31303B3
:1003000043F4801301FB024400FB034E840A970A66
:1003100044EA815447EA8357A4FB076802958D0A93
:1003200005FB07854FEA932C04FB0C542705029D1F
:100330004FEA065847EA1637B5EB08056EEB070C8F
:10034000870E920E47EA811742EA8312A7FB020149
:10035000B6EB0B0164EB00042B0D43EA0C335E1883
:1003600044EB1C50DA465146E7FB0201C5F3130487
:100370004FEA0B3343EA14534FEA0432019C43EA39
:100380000603A4F10C040294009CCDE900B400F033
:1003900087F903B0BDE8F08F00200146F9E72DE9A9
:1003A000F04D81EA030404F0004B21F000451446AF
:1003B0004FF0000A23F0004150EA050220D054EA31
:1003C00001021DD0C5F30A570246C5F31303C1F35A
:1003D0001300C1F30A5640F4801543F48013A7EBD1
:1003E0000608101BD64608F2FD3873EB050002D351
:1003F00008F1010801E092185B41B8F1000F03DA3F
:1004000000200146BDE8F08D00204FF48011064623
:1004100084460EE0171B73EB050705D3121B63EB35
:10042000050306434CEA010C49084FEA30009218D4
:100430005B4150EA0107EDD152EA030012D082EA93
:10044000040083EA0501084305D0101BAB4106D226
:100450000122002306E000224FF0004302E06FF08B
:10046000010253101AEB06004CEB085110EB0A0086
:1004700041EB0B01BDE8F04D00F003B90EB5C10F23
:1004800080EAE0700844CA07002140F233438DE857
:100490000E000A460B4600F003F903B000BD0EB58E
:1004A00040F2334102910021CDE900110A460B468A
:1004B00000F0F6F803B000BD00F0004220F000406C
:1004C000C10DC0F3160040F400007F2901DA0020BE
:1004D0007047962903DCC1F19601C84001E09639C6
:1004E0008840002AF4D04042704770B5C1F30A52E8
:1004F00001F000450024C1F3130140F2FF3341F441
:1005000080119A4201DA002070BD40F233439A42D2
:10051000A2F2334203DC524200F05AF800E090406D
:100520002C43F1D0404270BD00F0004230F000405A
:100530000AD0C10D01F56071C0F3160042EA015105
:10054000C20840071143704700200146704701F080
:10055000004330B421F0004150EA010206D00A0DF8
:10056000A2F56072C1F31301002A02DC30BC002046
:100570007047440F44EAC104C100E01830BC00EBEE
:10058000C25000F047B830B50B460146002020228B
:10059000012409E021FA02F59D4205D303FA02F590
:1005A000491B04FA02F52844151EA2F10102F1DCF0
:1005B00030BD202A04DB203A00FA02F10020704707
:1005C0009140C2F1200320FA03F319439040704791
:1005D000202A04DB203A21FA02F00021704721FA98
:1005E00002F3D040C2F120029140084319467047FF
:1005F000202A06DBCB17203A41FA02F043EAE073E7
:1006000006E041FA02F3D040C2F1200291400843D3
:10061000194670470029A8BF7047401C490008BF11
:1006200020F00100704710B4B0FA80FC00FA0CF022
:1006300050EA010404BF10BC704749B1CCF120045A
:1006400021FA04F411FA0CF118BF012121430843E7
:10065000A3EB0C01CB1D4FEA00614FEA102042BF13
:10066000002010BC704700EBC35010440029A4BF09
:1006700010BC7047401C490008BF20F0010010BCAE
:10068000704710B5141E73F1000408DA401C41F1E4
:10069000000192185B411A4301D120F0010010BD06
:1006A0002DE9F04D92469B4611B1B1FA81F202E07C
:1006B000B0FA80F220329046FFF77BFF04460F46E7
:1006C00040EA0A0041EA0B0153465A46084313D058
:1006D000114653EA010019D0C8F140025046FFF715
:1006E00077FF05460E46504659464246FFF761FFE2
:1006F000084305D0012004E020463946BDE8F08DCE
:100700000020054346EAE0762C4337430A98630508
:10071000E40AA0EB08000022FD0A44EA47540A302C
:1007200002D500200146E9E7010510196941DDE91C
:10073000084500196941BDE8F04DA2E7064C074D98
:1007400006E0E06840F0010394E8070098471034A1
:10075000AC42F6D3FFF7F0FCF818000818190008AF
:1007600010B510211A4800F058FA0221184800F07C
:1007700054FA0421164800F050FA0821144800F0F9
:100780004EFA0A2000F032F90821114800F045FA2B
:100790008021104800F041FA01210D4800F03DFA97
:1007A000072000F053F8002000F050F8092000F076
:1007B0004DF8002000F04AF8602000F047F80421CE
:1007C000034800F02CFA0421014800F026FA10BD7D
:1007D000001C0140000801402DE9F04107460C468D
:1007E0000026384600F03AF906250CE016B902203A
:1007F00000F02CF8691EC9B20D46124A505C00F098
:1008000025F8701CC6B2002DF0DC082000F01EF8A0
:10081000201200F01BF8E0B200F018F8092000F0F8
:1008200015F8201200F012F8E0B200F00FF80421E1
:10083000054800F0F4F90421034800F0EEF9BDE8A2
:10084000F081000009000020001C014070B5044642
:10085000082517E004F0800020B120210B4800F0AB
:10086000DEF903E02021094800F0D7F96006040E04
:100870000221074800F0D1F90221054800F0CFF924
:10088000681EC5B2002DE5DC70BD00000008014007
:10089000001C014070B50446651C2078EE280DD17F
:1008A000288800EBC00101EB00104FF6FF7101EA50
:1008B00080000D490880288800F036FA2078DD286D
:1008C00002D12888094908802078EF2802D1288899
:1008D000074908802078DE2805D106480078C0F155
:1008E00001000449087070BD0000002006000020CF
:1008F000020000200800002039B1084A12680123D4
:1009000083401A43054B1A6006E0044A126801232B
:1009100083409A43014B1A60704700000074004006
:1009200000B585B00121480700F0DEF9012104205F
:1009300000F0EAF91020ADF8100000208DF8130047
:1009400004A9094800F0DEF8002000900190022080
:1009500003906946002000F009F801210020FFF70C
:10096000CBFF05B000BD00000008014030B50022FB
:1009700000230A4C226840F6FE748440A243D1E969
:1009800000452C438D682C43CD6844EA050303FAE7
:1009900000F42243014C226030BD0000007400408E
:1009A00008B500220092054A009200F10802009B5F
:1009B0001A440092009A116008BD000000740040C3
:1009C0000848006800F0020050B101200649087094
:1009D00000BF0448406840F002000249486000BF80
:1009E00070470000000002400F00002000BF0721F8
:1009F00000BF0B2200BF531E9BB21A1EFBD14B1E21
:100A00009BB2191EF5D1431EDBB2181EEFD1704701
:100A100000BF772100BF432200BF531E9BB21A1EA6
:100A2000FBD14B1E9BB2191EF5D1431EDBB2181E23
:100A3000EFD1704700BF40F2712100BF3F2200BFDD
:100A4000531E9BB21A1EFBD14B1E9BB2191EF5D131
:100A5000431EDBB2181EEED17047000018B50146E8
:100A6000144ACBB28DF800300B0A8DF801300B0C14
:100A70008DF802300B0E8DF803309DF8003003FB2B
:100A800002F00D4C2070000A9DF8013002FB0300BB
:100A90006070000A9DF8023002FB0300A070000A9B
:100AA0009DF8033002FB0300E070000A2071030A86
:100AB000637118BD44E80F000900002008B501214A
:100AC000842000F021F9E020ADF8000003208DF82B
:100AD000020010208DF803006946084800F012F863
:100AE0007F20ADF8000003208DF8020010208DF863
:100AF00003006946024800F005F808BD00080140FF
:100B0000001C01402DE9F04102460025002600208E
:100B100000230024002791F803C00CF00F0591F882
:100B200003C00CF0100CBCF1000F03D091F802C010
:100B30004CEA050591F800C0BCF1000F31D01468F3
:100B400000202BE04FF0010C0CFA00F3B1F800C0CC
:100B50000CEA03069E4220D183004FF00F0C0CFAE2
:100B600003F7BC4305FA03FC4CEA040491F803C004
:100B7000BCF1280F06D14FF0010C0CFA00FCC2F8B2
:100B800014C00AE091F803C0BCF1480F05D14FF042
:100B9000010C0CFA00FCC2F810C0401C0828D1D38C
:100BA0001460B1F800C0BCF1FF0F34DD54680020C0
:100BB0002EE000F1080C4FF0010808FA0CF3B1F830
:100BC00000C00CEA03069E4221D183004FF00F0CB7
:100BD0000CFA03F7BC4305FA03FC4CEA040491F851
:100BE00003C0BCF1280F05D100F1080C08FA0CF87D
:100BF000C2F8148091F803C0BCF1480F07D100F18E
:100C0000080C4FF0010808FA0CF8C2F81080401CDC
:100C10000828CED35460BDE8F0814161704701617E
:100C20007047000008B50121082000F06DF84FF46E
:100C3000E050ADF8000010208DF8030003208DF87F
:100C4000020069460648FFF75DFF0120054908607C
:100C500000200549C1F8AC0102490831086008BD0F
:100C6000000C0140A88121420080214270B5044659
:100C7000A006040E00201A490860012000F0FAFACC
:100C8000002518E000201649091D0860012000F029
:100C9000F1FAC4F3C0101349C1F8B0016006040EA4
:100CA000012000F0E7FA01200D49091D086000F05D
:100CB000E1FA681CC5B2062DE4DB00200849091DD5
:100CC0000860012000F0D6FA00200649C1F8B00102
:100CD000012000F0CFFA01200149086070BD00003A
:100CE000A88121420080214229B1064AD2690243EB
:100CF000044BDA6104E0034AD2698243014BDA61B2
:100D0000704700000010024029B1064A9269024370
:100D1000044B9A6104E0034A92698243014B9A6151
:100D20007047000000100240F1B56C460525FE2614
:100D3000294608A000F008F9217806A000F004F97F
:100D4000617804A000F000F9314602A000F0FCF840
:100D5000F8BD00002563000010B500F001F810BDDB
:100D60000CB50020019000903348006840F48030BA
:100D70003149086000BF3048006800F4003000903E
:100D80000198401C0190009818B90198B0F5A06F27
:100D9000F1D12948006800F4003010B10120009022
:100DA00001E0002000900098012843D1234800680A
:100DB00040F01000214908600846006820F0030058
:100DC00008600846006840F0020008601A48406861
:100DD000194948600846406848600846406840F441
:100DE000806048600846406820F47C1048600846EF
:100DF000406840F4E81048600846006840F08070A1
:100E0000086000BF0C48006800F000700028F9D0AE
:100E10000948406820F003000749486008464068D8
:100E200040F00200486000BF0348406800F00C003A
:100E30000828F9D10CBD000000100240002002403B
:100E400010B51348006840F00100114908600846D9
:100E50004068104908400E494860084600680E493D
:100E600008400B4908600846006820F480200860AC
:100E70000846406820F4FE0048604FF41F00886078
:100E8000FFF76AFF4FF000600449086010BD0000E2
:100E9000001002400000FFF8FFFFF6FE08ED00E042
:100EA00010B51F48008800F0200020B31C48001D2A
:100EB0000088C4B21B48008800F40040D8B9194823
:100EC000008800F4804070B1FE2C03D0002015494A
:100ED000088023E01348008840F40040114908804E
:100EE00000F024F81AE0052C06D10E48008840F4E2
:100EF00080400C49088011E00A480088C0F30D00CA
:100F000009490C5407480088401C064908800846D7
:100F10000088B0F5FA6F01DB0020088010BD0000EA
:100F200000380140140000201C00002010B50448C7
:100F300004780448FFF7AEFC00200149088010BD8A
:100F4000140000201C0000200FB4054B10B503A9AD
:100F5000044A029800F018F810BC5DF814FB000079
:100F6000BD1200081000002002E008C8121F08C1CE
:100F7000002AFAD170477047002001E001C1121F1A
:100F8000002AFBD1704700002DE9FF4F8BB09A4635
:100F90000F460546002606E025280BD052460D993F
:100FA00090476D1C761C28780028F5D10FB030468C
:100FB000BDE8F08F0024A0460122604900E0044310
:100FC00015F8013F203B02FA03F00842F7D12878D8
:100FD0002E2817D115F8010F44F004042A280ED04A
:100FE0006FF02F022878A0F1300109290AD808EB08
:100FF000880102EB410100EB01086D1CF2E757F894
:10100000048B6D1C287869283ED006DC0028CDD0E2
:1010100063280BD0642804D136E0732810D07528DB
:101020004BD052460D999047761C85E017F8040B7B
:101030008DF8000000208DF80100E946012003E052
:1010400057F8049B4FF0FF3061074FF0000401D4C4
:101050000AE0641C44450DDA8442FADB19F80410F6
:101060000029F6D106E0641C8442FCDB19F8041068
:101070000029F8D1264404E019F8010B52460D99D5
:101080009047641EF8D257E001CF4FF00A0B0028BA
:1010900002DA40422D2102E0210504D52B218DF8F2
:1010A0002410012103E0E10705D02021F7E70DF12D
:1010B000200908910CE00021F9E701CF4FF00A0B5D
:1010C000F9E75946FFF75FFA01F1300209F8012DFF
:1010D0000028F6D1ADEB090000F1200B600701D428
:1010E0004FF00108D84502DDA8EB0B0000E000201E
:1010F0008046002406E009A85246005D0D999047FD
:10110000641C761C08988442F5DB04E030205246CB
:101110000D999047761CB8F10001A8F10108F5DCA3
:1011200005E019F8010B52460D999047761CBBF16A
:101130000001ABF1010BF4DC6D1C34E70928010060
:101140002DE9F04F85B083460C4691469A465846A5
:1011500000F04CF80490322C1EDC2046FFF79FF97B
:1011600000221D4BCDE90001FFF719F907460022C7
:101170001A4BFFF7A2F805460022194BFFF79AF821
:10118000CDE90201FFF7B1F9CAF800000498FFF7B2
:1011900093F9C9F800001BE01820CAF80000049871
:1011A000FFF7C2F9CDE90001A4F13200FFF766F9BB
:1011B00007460C4A0C4BFFF780F80546DDE9002393
:1011C000FEF7D4FFCDE90201FFF78FF9C9F800005F
:1011D00005B0BDE8F08F00000000494000804340AA
:1011E00000804F4060764F1E16E245402DE9FC47D7
:1011F0008246AAF16400FFF741F90646094A0A4B04
:10120000FFF75BF804460022084BFFF7C8F880465A
:101210000022074BFEF7AAFFCDE90001FFF797F97F
:10122000BDE8FC87B0726891ED7C1B40000059401E
:10123000007087404FF0E021096941F004014FF050
:10124000E0221161054908601146096941F0010178
:1012500011616FF07041516170470000180000206B
:1012600010B504464FF47A7104FB01F000F002F867
:1012700010BD000070B5034600224FF0E0267569EE
:101280000D4E366803FB06F44FF0E026B16910E01E
:101290004FF0E026B06988420BD0884202D20E1A85
:1012A000324402E02E1A0E4432440146A24200D3D8
:1012B00000E0EDE700BF70BD1800002000BF054A48
:1012C000128802F04002002AF9D0C2B2014B1B1D65
:1012D0001A807047003801401CB500BF184880696B
:1012E00040F040001649886100BF00BF0846806991
:1012F00040F04000886100BF00BF0846806940F0B0
:101300000400886100BF0120009000231A461021CC
:1013100001900C4800F088F90120009000231A4643
:1013200008210190074800F07FF9022001210023E5
:101330001A46CDE90010044800F076F91CBD000003
:101340000010024000180140000801401CB500BF19
:101350001548806940F008001349886100BF00BF4C
:101360000846806940F04000886100BF012000907D
:1013700000230246202101900C4800F055F901207D
:1013800000900023024620210190094800F04CF90A
:1013900001222021054800F03BF9012220210448C8
:1013A00000F036F91CBD000000100240000C0140A6
:1013B000001801401CB540F2FF7001904FF4E16449
:1013C000092000F0FFF94820FFF734FFA101482071
:1013D00000F030FA6420FFF72DFBFFF76FFB0520CC
:1013E000FFF716FBFFF7BCF9FFF71CFC0F20FFF718
:1013F0000FFBFFF7ABFFFFF76FFF5549098842F27C
:10140000107201FB02F02146FFF7E6F90020FFF71A
:101410002DFC6B4601AA4F4801884D480088FFF714
:101420008FFE019A91B24A4A128842F2107302FB6F
:1014300003F0FFF7D1F90099C8B2FFF717FCFFF7E7
:101440006FFA40F6FF710020FFF7AAFA7FE06B46C3
:1014500001AA404801883E480088FFF771FE019AC2
:1014600091B23B4A128842F2107302FB03F0FFF77D
:10147000B3F90099C8B2FFF7F9FB3748018800209B
:10148000FFF78EFA29E06B4601AA324801883048FE
:101490000088FFF755FE019A91B22D4A128842F258
:1014A000107302FB03F0FFF797F90099C8B2FFF73A
:1014B000DDFB27480088FFF737FC3220FFF7D0FE1E
:1014C00000BF2648006880F020002449086000BF63
:1014D0001F48008864301E4908802148007820B1E8
:1014E0001B480088B0F57A6FCDDD29E06B4601AA74
:1014F0001848018816480088FFF722FE019A91B229
:10150000134A128842F2107302FB03F0FFF764F9EA
:101510000099C8B2FFF7AAFB0D480088FFF704FC4A
:101520003220FFF79DFE00BF0C48006880F02000CD
:101530000A49086000BF06480088643804490880EA
:101540000748007818B1024800886428CEDA7EE7A0
:101550000000002002000020060000200C0C0140CA
:101560000800002010B5024600210020264B1B6811
:1015700043F48033244C23600AE000BF224B1B68F5
:1015800003F400331BB1B1F5004F00D904E0491C4E
:101590004FF6F0739942F0D300BF4FF6F0739942C3
:1015A00001D301202FE04FF48063174C6360921E3B
:1015B00023465B6843EA8243636023465B6843F4E7
:1015C000803363601023114C236023461B6843F073
:1015D000020323600C4B1B6843F080730A4C2360AA
:1015E00000BF094B1B685B0E002BFAD0064B5B68F3
:1015F00043F00203044C636000BF034B5B68C3F31A
:101600008103022BF9D110BD0010024000200240DE
:1016100002F001031BB103690B43036103E003699B
:1016200043EA0143036170472DE9F04F0E461D4622
:10163000DDE909C4002100278846002300BF64E0DB
:101640004FF0010909FA01F706EA0708B8455BD12E
:101650000023012A01D0022A0AD10CF0030305F06D
:10166000010943EA8903A2F1010943EAC90318E029
:10167000BAB90CB9042314E00823D0F80C904FF049
:10168000010A0AFA01FA29EA0A09C0F80C90D0F80E
:101690000CA004F0010909FA01F94AEA090AC0F8A4
:1016A0000CA0072916D8D0F800904FEA810B4FF014
:1016B0000F0A0AFA0BFA29EA0A09C0F80090D0F8D2
:1016C00000904FEA810A03FA0AFA49EA0A09C0F8C7
:1016D000009019E0D0F80490A1F1080A4FEA8A0BB3
:1016E0004FF00F0A0AFA0BFA29EA0A09C0F8049027
:1016F000D0F80490A1F1080A4FEA8A0A03FA0AFA1C
:1017000049EA0A09C0F80490491C102998D3BDE899
:10171000F08F00002DE9F0410746884614461D462B
:10172000284600F033F8C5F1040007FA00F60F2050
:10173000284100EA0800064306F00F06E21704EB12
:10174000D2625211920002F1E022D2F80021214629
:10175000E31704EBD3635B11A4EB431C012303FAEF
:101760000CF31A432046E31704EBD3635B119B0091
:1017700003F1E023C3F800210348005D40EA0610AE
:1017800001490855BDE8F08100E400E00146072367
:1017900023EA01021202054B18684FF6FF031840B6
:1017A000034B18431043014B186070470CED00E0E9
:1017B0000000FA054A0A52020243014B1A607047C0
:1017C00008ED00E010B50446002017490861C86024
:1017D0001420486100208861C8610846006840F014
:1017E0000100086008464068104908400E494860FA
:1017F000084600680E4908400B4908600846006822
:1018000020F4802008600846406820F4FE0048600C
:101810004FF41F0088602046FFF7A4FE00214FF020
:101820000060FFF7C7FF10BD001002400000FFF886
:10183000FFFFF6FE7CB506460C4600BF2A488069CD
:1018400040F004002849886100BF00BF0846806955
:1018500040F00400886100BF00BF0846806940F482
:101860008040886100BF0120032100230222CDE9CE
:10187000001041021D48FFF7D7FE0120032100237D
:101880001A46CDE9001081021848FFF7CDFE18482E
:10189000704300EB5400B0FBF4F516490D800020B6
:1018A000091D08800846008808800846008840F026
:1018B000080008800846008840F0040008800846B8
:1018C000008840F0200008800223252203210846DA
:1018D000FFF720FF0748001D008840F4005005492D
:1018E000091D08807CBD0000001002400008014076
:1018F00040420F000838014018190008000000207D
:101900001C000000680F0008341900081C000020AB
:10191000D40B0000780F0008D0073200000014003C
:1019200000000000000000000000000000000000B7
:0419300000000000B3
:0400000508000131BD
:00000001FF
