:020000040800F2
:10000000B00C00204901000851010008530100080C
:1000100055010008570100085901000800000000C0
:100020000000000000000000000000005B0100086C
:100030005D010008000000005F0100086101000888
:100040006301000863010008630100086301000800
:1000500063010008630100086301000863010008F0
:10006000630100086301000863010008810C0008B7
:1000700063010008630100086301000863010008D0
:1000800063010008630100086301000863010008C0
:1000900063010008630100086301000863010008B0
:1000A00063010008630100086301000863010008A0
:1000B0006301000863010008630100086301000890
:1000C0006301000863010008630100086301000880
:1000D00063010008151500086301000863010008AA
:1000E0006301000863010008630100086301000860
:1000F0006301000863010008630100086301000850
:10010000630100086301000863010008630100083F
:10011000630100086301000863010008630100082F
:10012000630100086301000863010008630100081F
:10013000DFF810D000F088F9004800473D1E0008A5
:10014000AFF30080B00C0020064880470648004707
:10015000FEE7FEE7FEE7FEE7FEE7FEE7FEE7FEE777
:10016000FEE7FEE7B514000831010008F0B480EAAC
:100170000102D40F4200B2EB410F02D20246084600
:1001800011464A0042D0C30DDDB2C1F3C752AD1AC9
:10019000202D35DAC1F3160141F4000204B15242B8
:1001A000C5F1200602FA06F12A411044B3EBD05FF4
:1001B00023D0C4B1012DA0EBC35009DCF0BC4FF03B
:1001C000004202EAC352DBB200F5000000F00DB9B4
:1001D000400000F1807000EBC350A0F1807040EA55
:1001E000D170490009E0490841EAC071A0EBC35051
:1001F00000F50000400800EBC350F0BC00F0ECB884
:100200006142012202EB4101001BF6E7F0BC70479E
:1002100081F00041AAE780F00040A7E780EA0102F0
:1002200010B502F00043400022D04A001FD0010E5A
:1002300001EB1261C0F35600C2F3560240F4000015
:1002400042F40002A0FB022000047F39140400D015
:10025000401C50EA124001D44000491EC2B20C06B4
:1002600004EBD010401C4008802A02D003E000209C
:1002700010BD20F00100002900DA0020184310BD55
:1002800030B480EA010202F0004530F0004221F073
:10029000004013D090B1C30DD40DC2F31601C0F3CA
:1002A0001600E41A41F4000140F400027D3491424A
:1002B00001D3641C00E04900002C02DA30BC0020AD
:1002C00070474FF400000023914201D3891A034381
:1002D00040084FEA4101F7D151B1914202D14FF0AC
:1002E000004105E002D24FF0010101E06FF0010191
:1002F00003EBC450284430BC00F06EB896230022B3
:10030000114600F072B800F0004220F00040C10D2C
:10031000C0F3160040F400007F2901DA0020704786
:10032000962903DCC1F19601C84001E09639884066
:10033000002AF4D0404270472DE9F05F05460020C6
:1003400092469B4688460646814640241BE0284646
:1003500041464746224600F02FF853465A46C01AF7
:10036000914110D311461846224600F016F82D1A76
:1003700067EB01084F4622460120002100F00DF8EE
:1003800017EB00094E41201EA4F10104DFDC4846B2
:1003900031462A464346BDE8F09F202A04DB203A36
:1003A00000FA02F1002070479140C2F1200320FAC8
:1003B00003F3194390407047202A04DB203A21FAC6
:1003C00002F00021704721FA02F3D040C2F120026E
:1003D00091400843194670470029A8BF7047401C48
:1003E000490008BF20F00100704710B4B0FA80FC4B
:1003F00000FA0CF050EA010404BF10BC704749B188
:10040000CCF1200421FA04F411FA0CF118BF0121F7
:1004100021430843A3EB0C01CB1D4FEA00614FEAD7
:10042000102042BF002010BC704700EBC3501044A6
:100430000029A4BF10BC7047401C490008BF20F031
:10044000010010BC70470000064C074D06E0E06854
:1004500040F0010394E8070098471034AC42F6D30B
:10046000FFF76AFEC4230008E423000810B510213A
:100470001A4800F032FD0221184800F02EFD042138
:10048000164800F02AFD0821144800F028FD0A2033
:1004900000F00CFC0821114800F01FFD80211048DD
:1004A00000F01BFD01210D4800F017FD072000F0B2
:1004B00027FB002000F024FB092000F021FB002096
:1004C00000F01EFB602000F01BFB0421034800F03D
:1004D00006FD0421014800F000FD10BD001C014094
:1004E0000008014070B500254EF660261021254811
:1004F00000F0F3FC0221234800F0EFFC0421214826
:1005000000F0EBFC08211F4800F0E9FC0A2000F095
:10051000CDFB08211B4800F0E0FC80211A4800F0C8
:10052000DCFC0121174800F0D8FC072000F0E8FAB5
:10053000102000F0E5FA092000F0E2FA002000F0B7
:10054000DFFA602000F0DCFA304600F0E7FB06241A
:100550000CE015B9022000F0D3FA611EC9B20C46B6
:100560000A4A505C00F0CCFA681CC5B2002CF0DCE2
:100570000421044800F0B3FC0421024800F0ADFC63
:1005800070BD0000001C0140000801400000002078
:1005900010B510211A4800F0A0FC0221184800F004
:1005A0009CFC0421164800F098FC0821144800F037
:1005B00096FC0A2000F07AFB0821114800F08DFC1F
:1005C0008021104800F089FC01210D4800F085FCD5
:1005D000072000F095FA102000F092FA092000F0B0
:1005E0008FFA082000F08CFA602000F089FA0421CC
:1005F000034800F074FC0421014800F06EFC10BDBB
:10060000001C01400008014010B510211A4800F0FC
:1006100064FC0221184800F060FC0421164800F038
:100620005CFC0821144800F05AFC0A2000F03EFB54
:100630000821114800F051FC8021104800F04DFCC9
:1006400001210D4800F049FC072000F059FA102064
:1006500000F056FA092000F053FA022000F050FA98
:10066000602000F04DFA0421034800F038FC04211A
:10067000014800F032FC10BD001C014000080140A0
:1006800010B510211A4800F028FC0221184800F08B
:1006900024FC0421164800F020FC0821144800F036
:1006A0001EFC0A2000F002FB0821114800F015FC96
:1006B0008021104800F011FC01210D4800F00DFCD4
:1006C000072000F01DFA102000F01AFA092000F0AF
:1006D00017FA002000F014FA702000F011FA04213B
:1006E000034800F0FCFB0421014800F0F6FB10BDBC
:1006F000001C01400008014010B510211C4800F00A
:10070000ECFB02211A4800F0E8FB0421184800F035
:10071000E4FB0821164800F0E2FB0A2000F0C6FACC
:100720000821134800F0D9FB8021124800F0D5FBC6
:1007300001210F4800F0D1FB40210D4800F0CDFB16
:10074000072000F0DDF9102000F0DAF9092000F0B0
:10075000D7F9242000F0D4F9202000F0D1F90421A9
:10076000034800F0BCFB0421014800F0B6FB10BDBB
:10077000001C01400008014010B50446082000F0AC
:10078000BFF9201200F0BCF9E0B200F0B9F909207D
:1007900000F0B6F9201200F0B3F9E0B200F0B0F9C1
:1007A0000421044800F09BFB0421024800F095FB63
:1007B00010BD0000001C01402DE9F04704460D4625
:1007C00000274EF660284FF47A69002000F098F96F
:1007D000201200F095F9E0B200F092F9012000F04B
:1007E0008FF9281200F08CF9E8B200F089F9404640
:1007F00000F094FA06260CE017B9022000F080F908
:10080000711EC9B20E46124A505C00F079F9781C8C
:10081000C7B2002EF0DC082000F072F90F2000F0C3
:100820006FF9A02000F06CF9092000F069F90F20A1
:1008300000F066F9A02000F063F90421054800F0FB
:100840004EFB0421034800F048FBBDE8F0870000A0
:1008500000000020001C01402DE9F04780460D46B5
:100860000624002600274FF47A69404600F056FA25
:1008700000BF0CE016B9022000F042F9611EC9B2B7
:100880000C461C4A505C00F03BF9701CC6B2002CB0
:10089000F0DC284600F042FA06240CE017B90320E9
:1008A00000F02EF9611EC9B20C46124A505C00F0ED
:1008B00027F9781CC7B2002CF0DC082000F020F9E2
:1008C0000F2000F01DF9A02000F01AF9092000F017
:1008D00017F90F2000F014F9A02000F011F90421FD
:1008E000054800F0FCFA0421034800F0F6FABDE8E0
:1008F000F087000000000020001C01402DE9F041BD
:10090000064600254EF660274FF47A68384600F018
:1009100005FA06240CE015B9022000F0F1F8611E7A
:10092000C9B20C46144A505C00F0EAF8681CC5B223
:10093000002CF0DC082000F0E3F80F2000F0E0F8D5
:10094000A02000F0DDF8092000F0DAF80F2000F018
:10095000D7F8A02000F0D4F80A2000F0D1F83046F3
:1009600000F0CEF80421054800F0B9FA042103484C
:1009700000F0B3FABDE8F08100000020001C014047
:100980002DE9F84F83460E4617461D4606244FF0C4
:1009900000084FF000094FF0000A4FF4616000902A
:1009A000584600F0BBF900BF10E0B8F1000F02D1CB
:1009B000022000F0A5F8611EC9B20C46314A505C15
:1009C00000F09EF808F1010000F0FF08002CECDCBC
:1009D000304600F0A3F9062410E0B9F1000F02D16F
:1009E000032000F08DF8611EC9B20C46254A505C08
:1009F00000F086F809F1010000F0FF09002CECDCA2
:100A0000384600F08BF9062410E0BAF1000F02D14D
:100A1000042000F075F8611EC9B20C46194A505CFA
:100A200000F06EF80AF1010000F0FF0A002CECDC87
:100A3000062000F065F8C5F3034000F061F8C5F347
:100A4000072000F05DF8E8B200F05AF8082000F046
:100A500057F80E2000F054F8102000F051F809204B
:100A600000F04EF80E2000F04BF8102000F048F88F
:100A70000421054800F033FA0421034800F02DFA60
:100A8000BDE8F88F00000020001C01402DE9F04176
:100A900007460C460026384600F040F906250CE0D3
:100AA00016B9022000F02CF8691EC9B20D46124A90
:100AB000505C00F025F8701CC6B2002DF0DC082058
:100AC00000F01EF8201200F01BF8E0B200F018F859
:100AD000092000F015F8201200F012F8E0B200F042
:100AE0000FF80421054800F0FAF90421034800F04A
:100AF000F4F9BDE8F081000000000020001C014076
:100B000070B50446082517E004F0800020B12021CC
:100B10000B4800F0E4F903E02021094800F0DDF97A
:100B20006006040E0221074800F0D7F902210548AB
:100B300000F0D5F9681EC5B2002DE5DC70BD0000DF
:100B400000080140001C01402DE9F84F04460D4605
:100B5000022D02DA0120BDE8F88F2078052801D0A7
:100B60000120F8E76078113806286FD2DFE800F03E
:100B7000031C354B6181A078212802D1FFF744FD89
:100B800011E0A07822280CD10B2D01DA0120E2E738
:100B9000D4F80770D4F8038041463846FFF75CFE6E
:100BA00001E00120D7E767E0A078212802D1FFF714
:100BB000EFFC11E0A07823280CD10B2D01DA0120E5
:100BC000C9E7B4F803B0B4F8076031465846FFF7F8
:100BD000F3FD01E00120BEE74EE0A078212802D11C
:100BE000FFF74EFD0EE0A078242809D1072D01DA89
:100BF0000120B0E7E07800900720FFF77FFE01E0DA
:100C00000120A8E738E0A078212802D1FFF76AFC8C
:100C10000EE0A078252809D1072D01DA01209AE7F6
:100C2000B4F803603046FFF7A7FD01E0012092E72A
:100C300022E0A078212802D1FFF75EFD18E0A0781D
:100C4000262813D1132D02DA012084E712E0D4F80C
:100C50000370D4F80780D4F80B90D4F80FA0534653
:100C60004A4641463846FFF78BFE01E0012072E715
:100C700002E001E001206EE700BF00206BE700000A
:100C80000848006800F0020050B1012006490870D1
:100C900000BF0448406840F002000249486000BFBD
:100CA00070470000000002400600002000BF07213E
:100CB00000BF0B2200BF531E9BB21A1EFBD14B1E5E
:100CC0009BB2191EF5D1431EDBB2181EEFD170473F
:100CD00000BF772100BF432200BF531E9BB21A1EE4
:100CE000FBD14B1E9BB2191EF5D1431EDBB2181E61
:100CF000EFD1704700BF40F2712100BF3F2200BF1B
:100D0000531E9BB21A1EFBD14B1E9BB2191EF5D16E
:100D1000431EDBB2181EEED17047000018B5014625
:100D2000144ACBB28DF800300B0A8DF801300B0C51
:100D30008DF802300B0E8DF803309DF8003003FB68
:100D400002F00D4C2070000A9DF8013002FB0300F8
:100D50006070000A9DF8023002FB0300A070000AD8
:100D60009DF8033002FB0300E070000A2071030AC3
:100D7000637118BD44E80F000000002008B5012190
:100D8000842000F007FAE020ADF8000003208DF881
:100D9000020010208DF803006946084800F012F8A0
:100DA0007F20ADF8000003208DF8020010208DF8A0
:100DB00003006946024800F005F808BD000801403C
:100DC000001C01402DE9F0410246002500260020CC
:100DD00000230024002791F803C00CF00F0591F8C0
:100DE00003C00CF0100CBCF1000F03D091F802C04E
:100DF0004CEA050591F800C0BCF1000F31D0146831
:100E000000202BE04FF0010C0CFA00F3B1F800C009
:100E10000CEA03069E4220D183004FF00F0C0CFA1F
:100E200003F7BC4305FA03FC4CEA040491F803C041
:100E3000BCF1280F06D14FF0010C0CFA00FCC2F8EF
:100E400014C00AE091F803C0BCF1480F05D14FF07F
:100E5000010C0CFA00FCC2F810C0401C0828D1D3C9
:100E60001460B1F800C0BCF1FF0F34DD54680020FD
:100E70002EE000F1080C4FF0010808FA0CF3B1F86D
:100E800000C00CEA03069E4221D183004FF00F0CF4
:100E90000CFA03F7BC4305FA03FC4CEA040491F88E
:100EA00003C0BCF1280F05D100F1080C08FA0CF8BA
:100EB000C2F8148091F803C0BCF1480F07D100F1CB
:100EC000080C4FF0010808FA0CF8C2F81080401C1A
:100ED0000828CED35460BDE8F081416170470161BC
:100EE0007047000010B500200F4908600F480068E7
:100EF00020F470400D4908600846006840F44050F6
:100F0000086000200A49C1F8AC01022000F000FF8F
:100F1000012005490860022000F0FAFE0020044983
:100F2000C1F8A80110BD0000A8812142040C0140B5
:100F3000008021420C48806940F008000A4988611D
:100F40000A48006820F47F400849086008460068A5
:100F500040F44C50086005480830006840F4406098
:100F6000024908310860704700100240040C01403B
:100F700010B500200F4908600F48006820F4704049
:100F80000D4908600846006840F4405008600120A0
:100F90000A49C1F8AC01022000F0BAFE012005495F
:100FA0000860022000F0B4FE00200449C1F8A80146
:100FB00010BD0000A8812142040C014000802142A4
:100FC00070B5054600241748006820F470401549A4
:100FD00008600846006840F400400860002616E0FB
:100FE000002011490860022000F092FE01200F4904
:100FF000C1F8A8016006040E0B487C38006808B1EF
:10100000601CC4B2012000F083FE701CC6B2082E22
:10101000E6DB15B9FFF7ACFF01E0FFF763FF204601
:1010200070BD0000040C0140A881214200802142D3
:1010300070B504461548006820F4704013490860F4
:101040000846006840F440500860002010490860DD
:10105000002517E0E0090E49091D08606006040E2E
:10106000022000F055FE01200A49C1F8A801022023
:1010700000F04EFE002006490860022000F048FE05
:10108000681CC5B2082DE5DB70BD0000040C0140F2
:10109000A88121420080214210B50F48006820F449
:1010A00070400D4908600846006840F440500860F0
:1010B00001200A4908600A49C1F8A801042000F08B
:1010C00027FE002005490860042000F021FE0020D2
:1010D0000349C1F8A80110BD040C0140AC812142B4
:1010E0000080214210B50F48006820F470400D497F
:1010F00008600846006840F44050086000200A4933
:1011000008600A49C1F8AC01042000F001FE01208A
:10111000054908600549C1F8AC01042000F0F8FD5C
:1011200010BD0000040C0140A88121420080214232
:1011300010B500241448006820F47040124908607B
:101140000846006840F40040086001200F4908602C
:1011500000F0DEFD01200E49C1F8A80100F0D8FD25
:1011600007E0601CC4B2FA2C03DDFFF7BBFF0120CF
:1011700010BD0648803800680028F2D10349091FD5
:10118000086000BFF4E70000040C0140AC8121427C
:101190000080214229B1064A92690243044B9A61B8
:1011A00004E0034A92698243014B9A617047000050
:1011B0000010024070B50546032000F089F804468F
:1011C0004FF6F370044044EA85042146032000F002
:1011D000E1F870BD2DE9F04706460027B846032028
:1011E00000F076F8044604F01F04C4F3810804F00C
:1011F00003070FB90A2704E0012F01D1142700E0EB
:101200000527B8F1000F02D142F2FC1512E0B8F147
:10121000010F02D0B8F1020F02D141F6B05509E03A
:10122000532000F055F8054605EB85004FF6FF7199
:1012300001EA4005AE4201DABDE8F087701B90FB81
:10124000F7F01FFA80F9C9F3090944EA891084B25A
:1012500044F010042146032000F09CF8142000F014
:101260004DFD00BF0B2000F033F800F08000002897
:10127000F8D000BFE0E7000010B5FFF75BFE0020EC
:1012800000F026F8044621460FA000F0ABF945F621
:101290000500844203D045F62000844210D102218B
:1012A000084600F077F8322000F028FD4CF20101EA
:1012B000022000F06FF84FF4167000F01FFD01E0FF
:1012C000012010BD0020FCE725780D0A0000000079
:1012D00070B50546FFF7E0FE2220FFF7A9FEFFF7F5
:1012E00027FF2846FFF7A4FEFFF722FFFFF7D4FEF3
:1012F0002320FFF79DFEFFF71BFF0120FFF760FE95
:1013000004464FF6FF7000EA04240020FFF758FE61
:101310000443FFF7E7FE204670BD70B50546032085
:10132000FFF7D6FF04464FF6FC7004402C432146DD
:10133000032000F02FF870BD10B54020FFF7C8FF64
:1013400004464FF6F070044044F00104214640206A
:1013500000F020F810BD70B505464220FFF7B8FF39
:1013600004464FF6C07004402C432146422000F052
:1013700011F870BD70B505464220FFF7A9FF04467D
:101380004FF6FF00044044EA05242146422000F0C5
:1013900001F870BD70B505460C46FFF77DFE2220B2
:1013A000FFF746FEFFF7C4FE2846FFF741FEFFF7B2
:1013B000BFFE2012FFF73CFEFFF7BAFEE0B2FFF7D8
:1013C00037FEFFF7B5FEFFF78DFE70BD10B500F0DC
:1013D00001F810BD0CB50020019000903348006862
:1013E00040F480303149086000BF3048006800F4A4
:1013F000003000900198401C0190009818B90198A5
:10140000B0F5A06FF1D12948006800F4003010B1A8
:101410000120009001E0002000900098012843D1B5
:101420002348006840F01000214908600846006821
:1014300020F0030008600846006840F002000860E1
:101440001A4840681949486008464068486008469C
:10145000406840F4806048600846406820F47C1092
:1014600048600846406840F4E81048600846006854
:1014700040F08070086000BF0C48006800F0007009
:101480000028F9D00948406820F003000749486067
:101490000846406840F00200486000BF03484068CA
:1014A00000F00C000828F9D10CBD0000001002402B
:1014B0000020024010B51348006840F001001149B7
:1014C000086008464068104908400E4948600846D0
:1014D00000680E4908400B4908600846006820F47F
:1014E000802008600846406820F4FE0048604FF401
:1014F0001F008860FFF76AFF4FF000600449086032
:1015000010BD0000001002400000FFF8FFFFF6FED3
:1015100008ED00E010B51F48008800F0200020B35F
:101520001C48001D0088C4B21B48008800F400401D
:10153000D8B91948008800F4804070B10A2C03D053
:1015400000201549088023E01348008840F400403B
:101550001149088000F024F81AE00D2C06D10E483D
:10156000008840F480400C49088011E00A48008857
:10157000C0F30D0009490C5407480088401C064977
:10158000088008460088B0F5FA6F01DB002008806B
:1015900010BD0000003801400C000020DC000020DD
:1015A00010B50C48047821460B48FFF7CDFA30B946
:1015B0000623AA22552109A000F014F805E01523FE
:1015C000AA22552105A000F00DF80020014908804D
:1015D00010BD00000C000020DC0000202563256306
:1015E000256300000FB4054B10B503A9044A029807
:1015F00000F018F810BC5DF814FB0000B91D0008DD
:101600000800002002E008C8121F08C1002AFAD111
:1016100070477047002001E001C1121F002AFBD172
:10162000704700002DE9FF4F8DB00F46054600269C
:1016300006E025280BD0DDE90F1290476D1C761CC3
:1016400028780028F5D111B03046BDE8F08F00248D
:10165000A246A1460122E94900E0044315F8013FF2
:10166000203B02FA03F00842F7D128782A2810D04C
:101670006FF02F022878A0F13001092914D80AEB65
:101680008A0102EB410144F0020400EB010A6D1CE7
:10169000F0E701CF5FEA000A03D544F40054CAF131
:1016A000000A44F002046D1C28782E2817D115F882
:1016B000010F44F004042A280ED06FF02F0228787E
:1016C000A0F1300109290AD809EB890102EB410197
:1016D00000EB01096D1CF2E757F8049B6D1C28789C
:1016E0006C280FD006DC4C2817D068280DD06A284B
:1016F00014D104E0742810D07A280FD10DE044F4FE
:1017000000140AE044F4801401E044F440146978C1
:10171000814202D104F580146D1C6D1C28786E285E
:101720001ED00CDC632830D004DC00288BD0582875
:1017300011D19FE0642867D069280CD164E0732838
:101740002DD004DC6F2872D0702804D194E0752865
:101750006ED078286DD0DDE90F129047761C4BE1F2
:10176000C4F30250022806D0032809D0042801CF70
:1017700009D0066040E101CFF117C0E900613BE10B
:1017800001CF068038E1067036E117F8040B8DF8BA
:10179000000000208DF80100EB46012003E057F81F
:1017A00004BB4FF0FF3061074FF0000102D40DE0A1
:1017B00008F10101884649450FDA8045F8DB1BF83E
:1017C00008100029F4D108E008F10101884681429F
:1017D000FADB1BF808100029F6D1DDE90F23AAEB8C
:1017E00008008146214600F031F9304400EB08063C
:1017F00004E0DDE90F121BF8010B9047B8F1010876
:10180000F7D221464846F2E00A21C4F302524FF0D3
:10181000000B0891022A04D001CFC117032A09D076
:101820000AE0FF1D27F00707F7E8020108E02CE0B7
:101830001EE01FE000B2C117042A01D140B2C11757
:10184000021E71F1000206DA0023D0EB030063EB05
:1018500001012D2202E0220504D52B228DF824203F
:10186000012203E0E20701D02022F7E7904653E08F
:101870000A210BE0102109E010214FF0000B44F089
:1018800004044FF00809089103E008214FF0000B11
:101890000891C4F30252022A04D001CF0021032A86
:1018A00006D006E0FF1D27F00707F7E8020103E076
:1018B00080B2042A00D1C0B24FF0000822072BD515
:1018C0002A78702A07D0DDF820C08CF0100C5CEA72
:1018D0000B0C05D00EE040228DF82420012208E0F8
:1018E00050EA010306D030238DF824308DF82520EE
:1018F00002229046089B83F0080353EA0B030BD1A6
:1019000050EA010201D1620706D530228DF8242069
:101910004FF00108A9F101092A78582A04D038A209
:101920000B9208AA0A920BE03AA2F9E75B46089AE2
:10193000FEF702FD0B9B9B5C0A9A521E0A921370E3
:1019400050EA0102F2D10A98ADEB000000F1200B41
:10195000600702D524F4803401E04FF00109D94535
:1019600002DDA9EB0B0000E0002000EB0B0141447D
:101970000890AAEB010AE00306D4DDE90F23214613
:10198000504600F063F806444FF0000908E009A94A
:1019900011F80900DDE90F12904709F10109761CE1
:1019A000C145F4DBE0030CD5DDE90F2321465046A9
:1019B00000F04CF8064404E0DDE90F1230209047B7
:1019C000761C0899481E08900029F5DC08E00A9862
:1019D0000A990078491C0A91DDE90F129047761C9C
:1019E000BBF10001ABF1010BF1DC21465046DDE912
:1019F0000F2300F019F806446D1C21E609280100A8
:101A00003031323334353637383961626364656674
:101A10000000000030313233343536373839414236
:101A200043444546000000002DE9F04104460025EE
:101A30001E461746880404D405E039462020B047E6
:101A40006D1C641EF9D52846BDE8F0812DE9F041F2
:101A5000044600251E469046C80301D5302700E005
:101A60002027880404D505E041463846B0476D1C60
:101A7000641EF9D52846BDE8F08130B50A290EDA92
:101A8000036901EB41050724AC40A34303610369EB
:101A900001EB41050724AC402343036111E0C36817
:101AA000A1F10A0404EB44050724AC40A343C3603E
:101AB000C368A1F10A0404EB44050724AC402343A6
:101AC000C36030BD10B504460A48006820F001002C
:101AD000084908602146084800F05EF9054800689A
:101AE00040F00100034908600846006840F48000A7
:101AF000086010BD082401400800024010B50446EB
:101B000000F058F82948006840F4807027490860C0
:101B10000846006840F00200086024482C30006845
:101B200020F01F0021492C3108600846006840F071
:101B300001000860072201211C480838FFF79DFFBB
:101B400022461A4944311A4800F006F90020184983
:101B5000083988600846806840F0020088600846BE
:101B60008068886008468068886008468068886069
:101B70000846806840F0800088600846806840F42D
:101B8000807088600846806840F4806088600846FD
:101B9000806840F48050886008468068886002232E
:101BA0000B220321084600F01BFB10BD0824014056
:101BB000080002401CB500BF4248806940F00400A4
:101BC0004049886100BF00BF0846806940F400704A
:101BD000886100BF012000900023032202210190B0
:101BE000394800F087FA3748C06840F4C06035498A
:101BF000C8600846C06820F4C060C86008464068F5
:101C000020F4404048600846406840F40040486086
:101C10002E48006820F470202C49086008460068AF
:101C200008600846006820F480700860081D00689D
:101C300020F00200091D08600846006820F46020BA
:101C400008600846006840F46020086008460068A4
:101C500040F4801008600846006820F400600860C6
:101C60001A482830006820F47000184928310860AC
:101C70000846006808601548001D006840F0010033
:101C80001249091D08600846006840F00800086015
:101C900000BF0E48001D006800F008000028F8D1C1
:101CA0000A48001D006840F004000849091D08604A
:101CB00000BF0648001D006800F004000028F8D1AD
:101CC0001CBD000000100240000801400424014037
:101CD0004FF0E021096941F004014FF0E022116169
:101CE000054908601146096941F0010111616FF071
:101CF00070415161704700001000002010B504468B
:101D00004FF47A7104FB01F000F002F810BD0000FE
:101D100070B5034600224FF0E02675690D4E366817
:101D200003FB06F44FF0E026B16910E04FF0E02627
:101D3000B06988420BD0884202D20E1A324402E0C7
:101D40002E1A0E4432440146A24200D300E0EDE7D1
:101D500000BF70BD1000002070B504460E46154649
:101D60000B48844206D90B48406940F002000949FB
:101D7000486105E00748406940F0010005494861B5
:101D80000520FFF7BBFFA660E5600020606070BD26
:101D90008000024000100240026822F0010202604E
:101DA00000BF026802F00102002AFAD14160026815
:101DB00042F001020260704700BF054A128802F03B
:101DC0004002002AF9D0C2B2014B1B1D1A80704795
:101DD000003801401CB500BF1548806940F008007C
:101DE0001349886100BF00BF0846806940F0400089
:101DF000886100BF0120009000230246202101904D
:101E00000C4800F077F901200090002302462021C1
:101E10000190094800F06EF901222021054800F0E8
:101E20005DF901222021044800F058F91CBD000092
:101E300000100240000C01400018014086B04FF431
:101E4000967005904FF07E5844F62060049046F25C
:101E5000A8144BF67450204403904FF0000A092058
:101E600000F016FA4820FFF733FF4FF4E131482025
:101E700000F046FA6420FEF73DFFFEF77FFF0520E5
:101E8000FEF726FFFEF7F2FA0F20FEF721FF4FF4D0
:101E90007A7104FB01F040F6FF71FEF7F7FD00BF19
:101EA000FFF7EAF90028FBD140F28A215320FFF71F
:101EB00071FA40F27E415420FFF76CFA0320FFF7DD
:101EC00079F90020FFF729FA0320FFF753FA3F20A2
:101ED000FFF741FAFFF730FA0A210398B0FBF1F05F
:101EE0001FFA80FB5846FFF775F935A0FFF77AFB1C
:101EF000FFF770FF3748FFF701FE6420FFF7E2FDB0
:101F00005CE035480078012845D1002733A0FFF771
:101F100069FB002505E02F4830F815000744681CD0
:101F200085B2642DF7DB6420B7FBF0F086B24FF08A
:101F30008B414046FEF7A4F983463046FEF7DEF9B2
:101F400059460290FEF76AF981460598FEF7D6F9E0
:101F5000414602904FF08040FEF760F902460021B2
:101F60000090484600F046F801900299FEF756F9B5
:101F70008346FEF7C8F9049944184FF47A7104FBBC
:101F800001F040F6FF71FEF781FD00201249087054
:101F90006420FFF797FD0AF1010A6420BAFBF0F113
:101FA00000FB11A050B910A0FFF71CFB00BF1048A8
:101FB000006880F020000E49086000BFA1E7000023
:101FC00050726F6772616D6D652053746172740A2F
:101FD0000000000014000020060000206164635F20
:101FE000646D610A00000000544F47474C450A00E9
:101FF0000C0C01402DE9F04705460E4614463146CB
:102000002046FEF705F9814631462846FEF700F9DD
:1020100082464946FEF734F980464FF08041FEF78C
:10202000FDF807464FF07E51FEF7F2F8BDE8F08765
:1020300010B5024600210020264B1B6843F4803374
:10204000244C23600AE000BF224B1B6803F40033DA
:102050001BB1B1F5004F00D904E0491C4FF6F073F5
:102060009942F0D300BF4FF6F073994201D301209B
:102070002FE04FF48063174C6360921E23465B6829
:1020800043EA8243636023465B6843F480336360C2
:102090001023114C236023461B6843F00203236086
:1020A0000C4B1B6843F080730A4C236000BF094B44
:1020B0001B685B0E002BFAD0064B5B6843F00203F3
:1020C000044C636000BF034B5B68C3F38103022BC6
:1020D000F9D110BD001002400020024002F00103BF
:1020E0001BB103690B43036103E0036943EA014346
:1020F000036170472DE9F04F0E461D46DDE909C426
:10210000002100278846002300BF64E04FF001094A
:1021100009FA01F706EA0708B8455BD10023012A4E
:1021200001D0022A0AD10CF0030305F0010943EAA9
:102130008903A2F1010943EAC90318E0BAB90CB94D
:10214000042314E00823D0F80C904FF0010A0AFA97
:1021500001FA29EA0A09C0F80C90D0F80CA004F0A2
:10216000010909FA01F94AEA090AC0F80CA007298D
:1021700016D8D0F800904FEA810B4FF00F0A0AFAF8
:102180000BFA29EA0A09C0F80090D0F800904FEA4B
:10219000810A03FA0AFA49EA0A09C0F8009019E02C
:1021A000D0F80490A1F1080A4FEA8A0B4FF00F0A09
:1021B0000AFA0BFA29EA0A09C0F80490D0F8049048
:1021C000A1F1080A4FEA8A0A03FA0AFA49EA0A0957
:1021D000C0F80490491C102998D3BDE8F08F000086
:1021E0002DE9F0410746884614461D46284600F072
:1021F00033F8C5F1040007FA00F60F20284100EA81
:102200000800064306F00F06E21704EBD2625211F3
:10221000920002F1E022D2F800212146E31704EBFC
:10222000D3635B11A4EB431C012303FA0CF31A43A1
:102230002046E31704EBD3635B119B0003F1E0231B
:10224000C3F800210348005D40EA06100149085523
:10225000BDE8F08100E400E00146072323EA010223
:102260001202054B18684FF6FF031840034B184342
:102270001043014B186070470CED00E00000FA05B8
:102280004A0A52020243014B1A60704708ED00E00F
:1022900010B50446002017490861C8601420486141
:1022A00000208861C8610846006840F001000860AD
:1022B00008464068104908400E49486008460068D2
:1022C0000E4908400B4908600846006820F4802049
:1022D00008600846406820F4FE0048604FF41F0084
:1022E00088602046FFF7A4FE00214FF00060FFF752
:1022F000C7FF10BD001002400000FFF8FFFFF6FE10
:102300007CB506460C4600BF2A48806940F00400B0
:102310002849886100BF00BF0846806940F004007A
:10232000886100BF00BF0846806940F48040886132
:1023300000BF0120032100230222CDE90010410249
:102340001D48FFF7D7FE0120032100231A46CDE9DF
:10235000001081021848FFF7CDFE1848704300EBCB
:102360005400B0FBF4F516490D800020091D0880CB
:102370000846008808800846008840F00800088069
:102380000846008840F0040008800846008840F0B5
:10239000200008800223252203210846FFF720FFA2
:1023A0000748001D008840F400500549091D0880B9
:1023B0007CBD0000001002400008014040420F00B8
:1023C00008380140E4230008000000201400000049
:1023D00004160008F8230008140000209C0C0000DC
:1023E00014160008000000000000000000000000BB
:0823F0000000000000000000E5
:0400000508000131BD
:00000001FF
